{
  "contractName": "ArtalaxiesMarketV2",
  "abi": [
    {
      "anonymous": false,
      "inputs": [
        {
          "indexed": false,
          "internalType": "address",
          "name": "previousAdmin",
          "type": "address"
        },
        {
          "indexed": false,
          "internalType": "address",
          "name": "newAdmin",
          "type": "address"
        }
      ],
      "name": "AdminChanged",
      "type": "event"
    },
    {
      "anonymous": false,
      "inputs": [
        {
          "indexed": true,
          "internalType": "address",
          "name": "owner",
          "type": "address"
        },
        {
          "indexed": true,
          "internalType": "address",
          "name": "approved",
          "type": "address"
        },
        {
          "indexed": true,
          "internalType": "uint256",
          "name": "tokenId",
          "type": "uint256"
        }
      ],
      "name": "Approval",
      "type": "event"
    },
    {
      "anonymous": false,
      "inputs": [
        {
          "indexed": true,
          "internalType": "address",
          "name": "owner",
          "type": "address"
        },
        {
          "indexed": true,
          "internalType": "address",
          "name": "operator",
          "type": "address"
        },
        {
          "indexed": false,
          "internalType": "bool",
          "name": "approved",
          "type": "bool"
        }
      ],
      "name": "ApprovalForAll",
      "type": "event"
    },
    {
      "anonymous": false,
      "inputs": [
        {
          "indexed": true,
          "internalType": "address",
          "name": "beacon",
          "type": "address"
        }
      ],
      "name": "BeaconUpgraded",
      "type": "event"
    },
    {
      "anonymous": false,
      "inputs": [
        {
          "indexed": true,
          "internalType": "bytes32",
          "name": "role",
          "type": "bytes32"
        },
        {
          "indexed": true,
          "internalType": "bytes32",
          "name": "previousAdminRole",
          "type": "bytes32"
        },
        {
          "indexed": true,
          "internalType": "bytes32",
          "name": "newAdminRole",
          "type": "bytes32"
        }
      ],
      "name": "RoleAdminChanged",
      "type": "event"
    },
    {
      "anonymous": false,
      "inputs": [
        {
          "indexed": true,
          "internalType": "bytes32",
          "name": "role",
          "type": "bytes32"
        },
        {
          "indexed": true,
          "internalType": "address",
          "name": "account",
          "type": "address"
        },
        {
          "indexed": true,
          "internalType": "address",
          "name": "sender",
          "type": "address"
        }
      ],
      "name": "RoleGranted",
      "type": "event"
    },
    {
      "anonymous": false,
      "inputs": [
        {
          "indexed": true,
          "internalType": "bytes32",
          "name": "role",
          "type": "bytes32"
        },
        {
          "indexed": true,
          "internalType": "address",
          "name": "account",
          "type": "address"
        },
        {
          "indexed": true,
          "internalType": "address",
          "name": "sender",
          "type": "address"
        }
      ],
      "name": "RoleRevoked",
      "type": "event"
    },
    {
      "anonymous": false,
      "inputs": [
        {
          "indexed": true,
          "internalType": "address",
          "name": "from",
          "type": "address"
        },
        {
          "indexed": true,
          "internalType": "address",
          "name": "to",
          "type": "address"
        },
        {
          "indexed": true,
          "internalType": "uint256",
          "name": "tokenId",
          "type": "uint256"
        }
      ],
      "name": "Transfer",
      "type": "event"
    },
    {
      "anonymous": false,
      "inputs": [
        {
          "indexed": true,
          "internalType": "address",
          "name": "implementation",
          "type": "address"
        }
      ],
      "name": "Upgraded",
      "type": "event"
    },
    {
      "inputs": [],
      "name": "DEFAULT_ADMIN_ROLE",
      "outputs": [
        {
          "internalType": "bytes32",
          "name": "",
          "type": "bytes32"
        }
      ],
      "stateMutability": "view",
      "type": "function"
    },
    {
      "inputs": [],
      "name": "MINTER_ROLE",
      "outputs": [
        {
          "internalType": "bytes32",
          "name": "",
          "type": "bytes32"
        }
      ],
      "stateMutability": "view",
      "type": "function"
    },
    {
      "inputs": [],
      "name": "UPGRADER_ROLE",
      "outputs": [
        {
          "internalType": "bytes32",
          "name": "",
          "type": "bytes32"
        }
      ],
      "stateMutability": "view",
      "type": "function"
    },
    {
      "inputs": [
        {
          "internalType": "address",
          "name": "to",
          "type": "address"
        },
        {
          "internalType": "uint256",
          "name": "tokenId",
          "type": "uint256"
        }
      ],
      "name": "approve",
      "outputs": [],
      "stateMutability": "nonpayable",
      "type": "function"
    },
    {
      "inputs": [
        {
          "internalType": "address",
          "name": "owner",
          "type": "address"
        }
      ],
      "name": "balanceOf",
      "outputs": [
        {
          "internalType": "uint256",
          "name": "",
          "type": "uint256"
        }
      ],
      "stateMutability": "view",
      "type": "function"
    },
    {
      "inputs": [
        {
          "internalType": "uint256",
          "name": "tokenId",
          "type": "uint256"
        }
      ],
      "name": "burn",
      "outputs": [],
      "stateMutability": "nonpayable",
      "type": "function"
    },
    {
      "inputs": [
        {
          "internalType": "uint256",
          "name": "tokenId",
          "type": "uint256"
        }
      ],
      "name": "getApproved",
      "outputs": [
        {
          "internalType": "address",
          "name": "",
          "type": "address"
        }
      ],
      "stateMutability": "view",
      "type": "function"
    },
    {
      "inputs": [],
      "name": "getBaseURI",
      "outputs": [
        {
          "internalType": "string",
          "name": "",
          "type": "string"
        }
      ],
      "stateMutability": "view",
      "type": "function"
    },
    {
      "inputs": [
        {
          "internalType": "bytes32",
          "name": "role",
          "type": "bytes32"
        }
      ],
      "name": "getRoleAdmin",
      "outputs": [
        {
          "internalType": "bytes32",
          "name": "",
          "type": "bytes32"
        }
      ],
      "stateMutability": "view",
      "type": "function"
    },
    {
      "inputs": [],
      "name": "getTotalMint",
      "outputs": [
        {
          "internalType": "uint256",
          "name": "",
          "type": "uint256"
        }
      ],
      "stateMutability": "view",
      "type": "function"
    },
    {
      "inputs": [
        {
          "internalType": "bytes32",
          "name": "role",
          "type": "bytes32"
        },
        {
          "internalType": "address",
          "name": "account",
          "type": "address"
        }
      ],
      "name": "grantRole",
      "outputs": [],
      "stateMutability": "nonpayable",
      "type": "function"
    },
    {
      "inputs": [
        {
          "internalType": "bytes32",
          "name": "role",
          "type": "bytes32"
        },
        {
          "internalType": "address",
          "name": "account",
          "type": "address"
        }
      ],
      "name": "hasRole",
      "outputs": [
        {
          "internalType": "bool",
          "name": "",
          "type": "bool"
        }
      ],
      "stateMutability": "view",
      "type": "function"
    },
    {
      "inputs": [
        {
          "internalType": "address",
          "name": "owner",
          "type": "address"
        },
        {
          "internalType": "address",
          "name": "operator",
          "type": "address"
        }
      ],
      "name": "isApprovedForAll",
      "outputs": [
        {
          "internalType": "bool",
          "name": "",
          "type": "bool"
        }
      ],
      "stateMutability": "view",
      "type": "function"
    },
    {
      "inputs": [],
      "name": "name",
      "outputs": [
        {
          "internalType": "string",
          "name": "",
          "type": "string"
        }
      ],
      "stateMutability": "view",
      "type": "function"
    },
    {
      "inputs": [
        {
          "internalType": "uint256",
          "name": "tokenId",
          "type": "uint256"
        }
      ],
      "name": "ownerOf",
      "outputs": [
        {
          "internalType": "address",
          "name": "",
          "type": "address"
        }
      ],
      "stateMutability": "view",
      "type": "function"
    },
    {
      "inputs": [
        {
          "internalType": "bytes32",
          "name": "role",
          "type": "bytes32"
        },
        {
          "internalType": "address",
          "name": "account",
          "type": "address"
        }
      ],
      "name": "renounceRole",
      "outputs": [],
      "stateMutability": "nonpayable",
      "type": "function"
    },
    {
      "inputs": [
        {
          "internalType": "bytes32",
          "name": "role",
          "type": "bytes32"
        },
        {
          "internalType": "address",
          "name": "account",
          "type": "address"
        }
      ],
      "name": "revokeRole",
      "outputs": [],
      "stateMutability": "nonpayable",
      "type": "function"
    },
    {
      "inputs": [
        {
          "internalType": "address",
          "name": "to",
          "type": "address"
        }
      ],
      "name": "safeMint",
      "outputs": [],
      "stateMutability": "nonpayable",
      "type": "function"
    },
    {
      "inputs": [
        {
          "internalType": "address",
          "name": "to",
          "type": "address"
        },
        {
          "internalType": "string",
          "name": "uri",
          "type": "string"
        }
      ],
      "name": "safeMint",
      "outputs": [],
      "stateMutability": "nonpayable",
      "type": "function"
    },
    {
      "inputs": [
        {
          "internalType": "address",
          "name": "from",
          "type": "address"
        },
        {
          "internalType": "address",
          "name": "to",
          "type": "address"
        },
        {
          "internalType": "uint256",
          "name": "tokenId",
          "type": "uint256"
        }
      ],
      "name": "safeTransferFrom",
      "outputs": [],
      "stateMutability": "nonpayable",
      "type": "function"
    },
    {
      "inputs": [
        {
          "internalType": "address",
          "name": "from",
          "type": "address"
        },
        {
          "internalType": "address",
          "name": "to",
          "type": "address"
        },
        {
          "internalType": "uint256",
          "name": "tokenId",
          "type": "uint256"
        },
        {
          "internalType": "bytes",
          "name": "_data",
          "type": "bytes"
        }
      ],
      "name": "safeTransferFrom",
      "outputs": [],
      "stateMutability": "nonpayable",
      "type": "function"
    },
    {
      "inputs": [
        {
          "internalType": "address",
          "name": "operator",
          "type": "address"
        },
        {
          "internalType": "bool",
          "name": "approved",
          "type": "bool"
        }
      ],
      "name": "setApprovalForAll",
      "outputs": [],
      "stateMutability": "nonpayable",
      "type": "function"
    },
    {
      "inputs": [
        {
          "internalType": "string",
          "name": "uri_",
          "type": "string"
        }
      ],
      "name": "setBaseURI",
      "outputs": [],
      "stateMutability": "nonpayable",
      "type": "function"
    },
    {
      "inputs": [
        {
          "internalType": "bytes4",
          "name": "interfaceId",
          "type": "bytes4"
        }
      ],
      "name": "supportsInterface",
      "outputs": [
        {
          "internalType": "bool",
          "name": "",
          "type": "bool"
        }
      ],
      "stateMutability": "view",
      "type": "function"
    },
    {
      "inputs": [],
      "name": "symbol",
      "outputs": [
        {
          "internalType": "string",
          "name": "",
          "type": "string"
        }
      ],
      "stateMutability": "view",
      "type": "function"
    },
    {
      "inputs": [
        {
          "internalType": "address",
          "name": "from",
          "type": "address"
        },
        {
          "internalType": "address",
          "name": "to",
          "type": "address"
        },
        {
          "internalType": "uint256",
          "name": "tokenId",
          "type": "uint256"
        }
      ],
      "name": "transferFrom",
      "outputs": [],
      "stateMutability": "nonpayable",
      "type": "function"
    },
    {
      "inputs": [
        {
          "internalType": "address",
          "name": "newImplementation",
          "type": "address"
        }
      ],
      "name": "upgradeTo",
      "outputs": [],
      "stateMutability": "nonpayable",
      "type": "function"
    },
    {
      "inputs": [
        {
          "internalType": "address",
          "name": "newImplementation",
          "type": "address"
        },
        {
          "internalType": "bytes",
          "name": "data",
          "type": "bytes"
        }
      ],
      "name": "upgradeToAndCall",
      "outputs": [],
      "stateMutability": "payable",
      "type": "function"
    },
    {
      "inputs": [],
      "name": "initialize",
      "outputs": [],
      "stateMutability": "nonpayable",
      "type": "function"
    },
    {
      "inputs": [
        {
          "internalType": "string",
          "name": "uri_",
          "type": "string"
        }
      ],
      "name": "setDefaultURI",
      "outputs": [],
      "stateMutability": "nonpayable",
      "type": "function"
    },
    {
      "inputs": [],
      "name": "version",
      "outputs": [
        {
          "internalType": "string",
          "name": "",
          "type": "string"
        }
      ],
      "stateMutability": "pure",
      "type": "function"
    },
    {
      "inputs": [
        {
          "internalType": "uint256",
          "name": "tokenId",
          "type": "uint256"
        }
      ],
      "name": "tokenURI",
      "outputs": [
        {
          "internalType": "string",
          "name": "",
          "type": "string"
        }
      ],
      "stateMutability": "view",
      "type": "function"
    }
  ],
  "bytecode": "0x60a06040523073ffffffffffffffffffffffffffffffffffffffff1660809073ffffffffffffffffffffffffffffffffffffffff168152503480156200004457600080fd5b50600060019054906101000a900460ff16806200006c575060008054906101000a900460ff16155b620000ae576040517f08c379a0000000000000000000000000000000000000000000000000000000008152600401620000a590620001af565b60405180910390fd5b60008060019054906101000a900460ff161590508015620000ff576001600060016101000a81548160ff02191690831515021790555060016000806101000a81548160ff0219169083151502179055505b8015620001215760008060016101000a81548160ff0219169083151502179055505b50620001d1565b600082825260208201905092915050565b7f496e697469616c697a61626c653a20636f6e747261637420697320616c72656160008201527f647920696e697469616c697a6564000000000000000000000000000000000000602082015250565b600062000197602e8362000128565b9150620001a48262000139565b604082019050919050565b60006020820190508181036000830152620001ca8162000188565b9050919050565b6080516159ca6200020260003960008181610b0801528181610b9701528181610d680152610df701526159ca6000f3fe6080604052600436106101e35760003560e01c806370a0823111610102578063c87b56dd11610095578063d795cdb711610064578063d795cdb7146106dd578063da1b9e0814610708578063e985e9c514610731578063f72c0d8b1461076e576101e3565b8063c87b56dd14610623578063d204c45e14610660578063d539139314610689578063d547741f146106b4576101e3565b806395d89b41116100d157806395d89b411461057b578063a217fddf146105a6578063a22cb465146105d1578063b88d4fde146105fa576101e3565b806370a08231146104bf578063714c5398146104fc5780638129fc1c1461052757806391d148541461053e576101e3565b80633659cfe61161017a5780634f1ef286116101495780634f1ef2861461041257806354fd4d501461042e57806355f804b3146104595780636352211e14610482576101e3565b80633659cfe61461036e57806340d097c31461039757806342842e0e146103c057806342966c68146103e9576101e3565b806323b872dd116101b657806323b872dd146102b6578063248a9ca3146102df5780632f2ff15d1461031c57806336568abe14610345576101e3565b806301ffc9a7146101e857806306fdde0314610225578063081812fc14610250578063095ea7b31461028d575b600080fd5b3480156101f457600080fd5b5061020f600480360381019061020a9190613eb2565b610799565b60405161021c9190613efa565b60405180910390f35b34801561023157600080fd5b5061023a6107ab565b6040516102479190613fae565b60405180910390f35b34801561025c57600080fd5b5061027760048036038101906102729190614006565b61083d565b6040516102849190614074565b60405180910390f35b34801561029957600080fd5b506102b460048036038101906102af91906140bb565b6108c2565b005b3480156102c257600080fd5b506102dd60048036038101906102d891906140fb565b6109da565b005b3480156102eb57600080fd5b5061030660048036038101906103019190614184565b610a3a565b60405161031391906141c0565b60405180910390f35b34801561032857600080fd5b50610343600480360381019061033e91906141db565b610a5a565b005b34801561035157600080fd5b5061036c600480360381019061036791906141db565b610a83565b005b34801561037a57600080fd5b506103956004803603810190610390919061421b565b610b06565b005b3480156103a357600080fd5b506103be60048036038101906103b9919061421b565b610c8f565b005b3480156103cc57600080fd5b506103e760048036038101906103e291906140fb565b610cea565b005b3480156103f557600080fd5b50610410600480360381019061040b9190614006565b610d0a565b005b61042c6004803603810190610427919061437d565b610d66565b005b34801561043a57600080fd5b50610443610ea3565b6040516104509190613fae565b60405180910390f35b34801561046557600080fd5b50610480600480360381019061047b919061447a565b610ee0565b005b34801561048e57600080fd5b506104a960048036038101906104a49190614006565b610f11565b6040516104b69190614074565b60405180910390f35b3480156104cb57600080fd5b506104e660048036038101906104e1919061421b565b610fc3565b6040516104f391906144d2565b60405180910390f35b34801561050857600080fd5b5061051161107b565b60405161051e9190613fae565b60405180910390f35b34801561053357600080fd5b5061053c61108a565b005b34801561054a57600080fd5b50610565600480360381019061056091906141db565b611279565b6040516105729190613efa565b60405180910390f35b34801561058757600080fd5b506105906112e4565b60405161059d9190613fae565b60405180910390f35b3480156105b257600080fd5b506105bb611376565b6040516105c891906141c0565b60405180910390f35b3480156105dd57600080fd5b506105f860048036038101906105f39190614519565b61137d565b005b34801561060657600080fd5b50610621600480360381019061061c9190614559565b611393565b005b34801561062f57600080fd5b5061064a60048036038101906106459190614006565b6113f5565b6040516106579190613fae565b60405180910390f35b34801561066c57600080fd5b50610687600480360381019061068291906145dc565b6114ac565b005b34801561069557600080fd5b5061069e611512565b6040516106ab91906141c0565b60405180910390f35b3480156106c057600080fd5b506106db60048036038101906106d691906141db565b611536565b005b3480156106e957600080fd5b506106f261155f565b6040516106ff91906144d2565b60405180910390f35b34801561071457600080fd5b5061072f600480360381019061072a919061447a565b61157d565b005b34801561073d57600080fd5b5061075860048036038101906107539190614638565b6115ae565b6040516107659190613efa565b60405180910390f35b34801561077a57600080fd5b50610783611642565b60405161079091906141c0565b60405180910390f35b60006107a482611666565b9050919050565b6060606580546107ba906146a7565b80601f01602080910402602001604051908101604052809291908181526020018280546107e6906146a7565b80156108335780601f1061080857610100808354040283529160200191610833565b820191906000526020600020905b81548152906001019060200180831161081657829003601f168201915b5050505050905090565b6000610848826116e0565b610887576040517f08c379a000000000000000000000000000000000000000000000000000000000815260040161087e9061474b565b60405180910390fd5b6069600083815260200190815260200160002060009054906101000a900473ffffffffffffffffffffffffffffffffffffffff169050919050565b60006108cd82610f11565b90508073ffffffffffffffffffffffffffffffffffffffff168373ffffffffffffffffffffffffffffffffffffffff16141561093e576040517f08c379a0000000000000000000000000000000000000000000000000000000008152600401610935906147dd565b60405180910390fd5b8073ffffffffffffffffffffffffffffffffffffffff1661095d61174c565b73ffffffffffffffffffffffffffffffffffffffff16148061098c575061098b8161098661174c565b6115ae565b5b6109cb576040517f08c379a00000000000000000000000000000000000000000000000000000000081526004016109c29061486f565b60405180910390fd5b6109d58383611754565b505050565b6109eb6109e561174c565b8261180d565b610a2a576040517f08c379a0000000000000000000000000000000000000000000000000000000008152600401610a2190614901565b60405180910390fd5b610a358383836118eb565b505050565b600060fb6000838152602001908152602001600020600101549050919050565b610a6382610a3a565b610a7481610a6f61174c565b611b47565b610a7e8383611be4565b505050565b610a8b61174c565b73ffffffffffffffffffffffffffffffffffffffff168173ffffffffffffffffffffffffffffffffffffffff1614610af8576040517f08c379a0000000000000000000000000000000000000000000000000000000008152600401610aef90614993565b60405180910390fd5b610b028282611cc5565b5050565b7f000000000000000000000000000000000000000000000000000000000000000073ffffffffffffffffffffffffffffffffffffffff163073ffffffffffffffffffffffffffffffffffffffff161415610b95576040517f08c379a0000000000000000000000000000000000000000000000000000000008152600401610b8c90614a25565b60405180910390fd5b7f000000000000000000000000000000000000000000000000000000000000000073ffffffffffffffffffffffffffffffffffffffff16610bd4611da7565b73ffffffffffffffffffffffffffffffffffffffff1614610c2a576040517f08c379a0000000000000000000000000000000000000000000000000000000008152600401610c2190614ab7565b60405180910390fd5b610c3381611dfe565b610c8c81600067ffffffffffffffff811115610c5257610c51614252565b5b6040519080825280601f01601f191660200182016040528015610c845781602001600182028036833780820191505090505b506000611e34565b50565b7f9f2df0fed2c77648de5860a4cc508cd0818c85b8b8a1ab4ceeef8d981c8956a6610cc181610cbc61174c565b611b47565b6000610cce610191612005565b9050610cdb610191612013565b610ce58382612029565b505050565b610d0583838360405180602001604052806000815250611393565b505050565b610d1b610d1561174c565b8261180d565b610d5a576040517f08c379a0000000000000000000000000000000000000000000000000000000008152600401610d5190614b49565b60405180910390fd5b610d6381612047565b50565b7f000000000000000000000000000000000000000000000000000000000000000073ffffffffffffffffffffffffffffffffffffffff163073ffffffffffffffffffffffffffffffffffffffff161415610df5576040517f08c379a0000000000000000000000000000000000000000000000000000000008152600401610dec90614a25565b60405180910390fd5b7f000000000000000000000000000000000000000000000000000000000000000073ffffffffffffffffffffffffffffffffffffffff16610e34611da7565b73ffffffffffffffffffffffffffffffffffffffff1614610e8a576040517f08c379a0000000000000000000000000000000000000000000000000000000008152600401610e8190614ab7565b60405180910390fd5b610e9382611dfe565b610e9f82826001611e34565b5050565b60606040518060400160405280600281526020017f7632000000000000000000000000000000000000000000000000000000000000815250905090565b6000801b610ef581610ef061174c565b611b47565b816101929080519060200190610f0c929190613d63565b505050565b6000806067600084815260200190815260200160002060009054906101000a900473ffffffffffffffffffffffffffffffffffffffff169050600073ffffffffffffffffffffffffffffffffffffffff168173ffffffffffffffffffffffffffffffffffffffff161415610fba576040517f08c379a0000000000000000000000000000000000000000000000000000000008152600401610fb190614bdb565b60405180910390fd5b80915050919050565b60008073ffffffffffffffffffffffffffffffffffffffff168273ffffffffffffffffffffffffffffffffffffffff161415611034576040517f08c379a000000000000000000000000000000000000000000000000000000000815260040161102b90614c6d565b60405180910390fd5b606860008373ffffffffffffffffffffffffffffffffffffffff1673ffffffffffffffffffffffffffffffffffffffff168152602001908152602001600020549050919050565b6060611085612053565b905090565b600060019054906101000a900460ff16806110b0575060008054906101000a900460ff16155b6110ef576040517f08c379a00000000000000000000000000000000000000000000000000000000081526004016110e690614cff565b60405180910390fd5b60008060019054906101000a900460ff16159050801561113f576001600060016101000a81548160ff02191690831515021790555060016000806101000a81548160ff0219169083151502179055505b6111b36040518060400160405280601981526020017f417274616c61786965732054657374696e67204d61726b6574000000000000008152506040518060400160405280600581526020017f54415254580000000000000000000000000000000000000000000000000000008152506120e6565b6111bb6121db565b6111c36122cc565b6111cb6123bd565b6111d36124ae565b6111e06000801b33611be4565b61120a7f9f2df0fed2c77648de5860a4cc508cd0818c85b8b8a1ab4ceeef8d981c8956a633611be4565b6112347f189ab7a9244df0848122154315af71fe140f3db0fe014031783b0946b8c9d2e333611be4565b6112556040518060600160405280603c8152602001615932603c913961157d565b80156112765760008060016101000a81548160ff0219169083151502179055505b50565b600060fb600084815260200190815260200160002060000160008373ffffffffffffffffffffffffffffffffffffffff1673ffffffffffffffffffffffffffffffffffffffff16815260200190815260200160002060009054906101000a900460ff16905092915050565b6060606680546112f3906146a7565b80601f016020809104026020016040519081016040528092919081815260200182805461131f906146a7565b801561136c5780601f106113415761010080835404028352916020019161136c565b820191906000526020600020905b81548152906001019060200180831161134f57829003601f168201915b5050505050905090565b6000801b81565b61138f61138861174c565b8383612597565b5050565b6113a461139e61174c565b8361180d565b6113e3576040517f08c379a00000000000000000000000000000000000000000000000000000000081526004016113da90614901565b60405180910390fd5b6113ef84848484612704565b50505050565b6060600061140283612760565b905060008151111561141757809150506114a7565b6101938054611425906146a7565b80601f0160208091040260200160405190810160405280929190818152602001828054611451906146a7565b801561149e5780601f106114735761010080835404028352916020019161149e565b820191906000526020600020905b81548152906001019060200180831161148157829003601f168201915b50505050509150505b919050565b7f9f2df0fed2c77648de5860a4cc508cd0818c85b8b8a1ab4ceeef8d981c8956a66114de816114d961174c565b611b47565b60006114eb610191612005565b90506114f8610191612013565b6115028482612029565b61150c8184612772565b50505050565b7f9f2df0fed2c77648de5860a4cc508cd0818c85b8b8a1ab4ceeef8d981c8956a681565b61153f82610a3a565b6115508161154b61174c565b611b47565b61155a8383611cc5565b505050565b6000600161156e610191612005565b6115789190614d4e565b905090565b6000801b6115928161158d61174c565b611b47565b8161019390805190602001906115a9929190613d63565b505050565b6000606a60008473ffffffffffffffffffffffffffffffffffffffff1673ffffffffffffffffffffffffffffffffffffffff16815260200190815260200160002060008373ffffffffffffffffffffffffffffffffffffffff1673ffffffffffffffffffffffffffffffffffffffff16815260200190815260200160002060009054906101000a900460ff16905092915050565b7f189ab7a9244df0848122154315af71fe140f3db0fe014031783b0946b8c9d2e381565b60007f7965db0b000000000000000000000000000000000000000000000000000000007bffffffffffffffffffffffffffffffffffffffffffffffffffffffff1916827bffffffffffffffffffffffffffffffffffffffffffffffffffffffff191614806116d957506116d8826127e6565b5b9050919050565b60008073ffffffffffffffffffffffffffffffffffffffff166067600084815260200190815260200160002060009054906101000a900473ffffffffffffffffffffffffffffffffffffffff1673ffffffffffffffffffffffffffffffffffffffff1614159050919050565b600033905090565b816069600083815260200190815260200160002060006101000a81548173ffffffffffffffffffffffffffffffffffffffff021916908373ffffffffffffffffffffffffffffffffffffffff160217905550808273ffffffffffffffffffffffffffffffffffffffff166117c783610f11565b73ffffffffffffffffffffffffffffffffffffffff167f8c5be1e5ebec7d5bd14f71427d1e84f3dd0314c0f7b2291e5b200ac8c7c3b92560405160405180910390a45050565b6000611818826116e0565b611857576040517f08c379a000000000000000000000000000000000000000000000000000000000815260040161184e90614e16565b60405180910390fd5b600061186283610f11565b90508073ffffffffffffffffffffffffffffffffffffffff168473ffffffffffffffffffffffffffffffffffffffff1614806118d157508373ffffffffffffffffffffffffffffffffffffffff166118b98461083d565b73ffffffffffffffffffffffffffffffffffffffff16145b806118e257506118e181856115ae565b5b91505092915050565b8273ffffffffffffffffffffffffffffffffffffffff1661190b82610f11565b73ffffffffffffffffffffffffffffffffffffffff1614611961576040517f08c379a000000000000000000000000000000000000000000000000000000000815260040161195890614ea8565b60405180910390fd5b600073ffffffffffffffffffffffffffffffffffffffff168273ffffffffffffffffffffffffffffffffffffffff1614156119d1576040517f08c379a00000000000000000000000000000000000000000000000000000000081526004016119c890614f3a565b60405180910390fd5b6119dc8383836128c8565b6119e7600082611754565b6001606860008573ffffffffffffffffffffffffffffffffffffffff1673ffffffffffffffffffffffffffffffffffffffff1681526020019081526020016000206000828254611a379190614f5a565b925050819055506001606860008473ffffffffffffffffffffffffffffffffffffffff1673ffffffffffffffffffffffffffffffffffffffff1681526020019081526020016000206000828254611a8e9190614d4e565b92505081905550816067600083815260200190815260200160002060006101000a81548173ffffffffffffffffffffffffffffffffffffffff021916908373ffffffffffffffffffffffffffffffffffffffff160217905550808273ffffffffffffffffffffffffffffffffffffffff168473ffffffffffffffffffffffffffffffffffffffff167fddf252ad1be2c89b69c2b068fc378daa952ba7f163c4a11628f55a4df523b3ef60405160405180910390a4505050565b611b518282611279565b611be057611b768173ffffffffffffffffffffffffffffffffffffffff1660146128cd565b611b848360001c60206128cd565b604051602001611b95929190615062565b6040516020818303038152906040526040517f08c379a0000000000000000000000000000000000000000000000000000000008152600401611bd79190613fae565b60405180910390fd5b5050565b611bee8282611279565b611cc157600160fb600084815260200190815260200160002060000160008373ffffffffffffffffffffffffffffffffffffffff1673ffffffffffffffffffffffffffffffffffffffff16815260200190815260200160002060006101000a81548160ff021916908315150217905550611c6661174c565b73ffffffffffffffffffffffffffffffffffffffff168173ffffffffffffffffffffffffffffffffffffffff16837f2f8788117e7eff1d82e926ec794901d17c78024a50270940304540a733656f0d60405160405180910390a45b5050565b611ccf8282611279565b15611da357600060fb600084815260200190815260200160002060000160008373ffffffffffffffffffffffffffffffffffffffff1673ffffffffffffffffffffffffffffffffffffffff16815260200190815260200160002060006101000a81548160ff021916908315150217905550611d4861174c565b73ffffffffffffffffffffffffffffffffffffffff168173ffffffffffffffffffffffffffffffffffffffff16837ff6391f5c32d9c69d2a47ea670b442974b53935d1edc7fd64eb21e047a839171b60405160405180910390a45b5050565b6000611dd57f360894a13ba1a3210667c828492db98dca3e2076cc3735a920a3ca505d382bbc60001b612b09565b60000160009054906101000a900473ffffffffffffffffffffffffffffffffffffffff16905090565b7f189ab7a9244df0848122154315af71fe140f3db0fe014031783b0946b8c9d2e3611e3081611e2b61174c565b611b47565b5050565b6000611e3e611da7565b9050611e4984612b13565b600083511180611e565750815b15611e6757611e658484612bcc565b505b6000611e957f4910fdfa16fed3260ed0e7147f7cc6da11a60208b5b9406d12a635614ffd914360001b612cb0565b90508060000160009054906101000a900460ff16611ffe5760018160000160006101000a81548160ff021916908315150217905550611f618583604051602401611edf9190614074565b6040516020818303038152906040527f3659cfe6000000000000000000000000000000000000000000000000000000007bffffffffffffffffffffffffffffffffffffffffffffffffffffffff19166020820180517bffffffffffffffffffffffffffffffffffffffffffffffffffffffff8381831617835250505050612bcc565b5060008160000160006101000a81548160ff021916908315150217905550611f87611da7565b73ffffffffffffffffffffffffffffffffffffffff168273ffffffffffffffffffffffffffffffffffffffff1614611ff4576040517f08c379a0000000000000000000000000000000000000000000000000000000008152600401611feb9061510e565b60405180910390fd5b611ffd85612cba565b5b5050505050565b600081600001549050919050565b6001816000016000828254019250508190555050565b612043828260405180602001604052806000815250612d09565b5050565b61205081612d64565b50565b60606101928054612063906146a7565b80601f016020809104026020016040519081016040528092919081815260200182805461208f906146a7565b80156120dc5780601f106120b1576101008083540402835291602001916120dc565b820191906000526020600020905b8154815290600101906020018083116120bf57829003601f168201915b5050505050905090565b600060019054906101000a900460ff168061210c575060008054906101000a900460ff16155b61214b576040517f08c379a000000000000000000000000000000000000000000000000000000000815260040161214290614cff565b60405180910390fd5b60008060019054906101000a900460ff16159050801561219b576001600060016101000a81548160ff02191690831515021790555060016000806101000a81548160ff0219169083151502179055505b6121a3612db7565b6121ab612e90565b6121b58383612f69565b80156121d65760008060016101000a81548160ff0219169083151502179055505b505050565b600060019054906101000a900460ff1680612201575060008054906101000a900460ff16155b612240576040517f08c379a000000000000000000000000000000000000000000000000000000000815260040161223790614cff565b60405180910390fd5b60008060019054906101000a900460ff161590508015612290576001600060016101000a81548160ff02191690831515021790555060016000806101000a81548160ff0219169083151502179055505b612298612db7565b6122a0612e90565b6122a8613072565b80156122c95760008060016101000a81548160ff0219169083151502179055505b50565b600060019054906101000a900460ff16806122f2575060008054906101000a900460ff16155b612331576040517f08c379a000000000000000000000000000000000000000000000000000000000815260040161232890614cff565b60405180910390fd5b60008060019054906101000a900460ff161590508015612381576001600060016101000a81548160ff02191690831515021790555060016000806101000a81548160ff0219169083151502179055505b612389612db7565b612391612e90565b61239961314b565b80156123ba5760008060016101000a81548160ff0219169083151502179055505b50565b600060019054906101000a900460ff16806123e3575060008054906101000a900460ff16155b612422576040517f08c379a000000000000000000000000000000000000000000000000000000000815260040161241990614cff565b60405180910390fd5b60008060019054906101000a900460ff161590508015612472576001600060016101000a81548160ff02191690831515021790555060016000806101000a81548160ff0219169083151502179055505b61247a612db7565b612482612e90565b61248a613224565b80156124ab5760008060016101000a81548160ff0219169083151502179055505b50565b600060019054906101000a900460ff16806124d4575060008054906101000a900460ff16155b612513576040517f08c379a000000000000000000000000000000000000000000000000000000000815260040161250a90614cff565b60405180910390fd5b60008060019054906101000a900460ff161590508015612563576001600060016101000a81548160ff02191690831515021790555060016000806101000a81548160ff0219169083151502179055505b61256b6132fd565b6125736133d6565b80156125945760008060016101000a81548160ff0219169083151502179055505b50565b8173ffffffffffffffffffffffffffffffffffffffff168373ffffffffffffffffffffffffffffffffffffffff161415612606576040517f08c379a00000000000000000000000000000000000000000000000000000000081526004016125fd9061517a565b60405180910390fd5b80606a60008573ffffffffffffffffffffffffffffffffffffffff1673ffffffffffffffffffffffffffffffffffffffff16815260200190815260200160002060008473ffffffffffffffffffffffffffffffffffffffff1673ffffffffffffffffffffffffffffffffffffffff16815260200190815260200160002060006101000a81548160ff0219169083151502179055508173ffffffffffffffffffffffffffffffffffffffff168373ffffffffffffffffffffffffffffffffffffffff167f17307eab39ab6107e8899845ad3d59bd9653f200f220920489ca2b5937696c31836040516126f79190613efa565b60405180910390a3505050565b61270f8484846118eb565b61271b848484846134af565b61275a576040517f08c379a00000000000000000000000000000000000000000000000000000000081526004016127519061520c565b60405180910390fd5b50505050565b606061276b82613646565b9050919050565b61277b826116e0565b6127ba576040517f08c379a00000000000000000000000000000000000000000000000000000000081526004016127b19061529e565b60405180910390fd5b806097600084815260200190815260200160002090805190602001906127e1929190613d63565b505050565b60007f80ac58cd000000000000000000000000000000000000000000000000000000007bffffffffffffffffffffffffffffffffffffffffffffffffffffffff1916827bffffffffffffffffffffffffffffffffffffffffffffffffffffffff191614806128b157507f5b5e139f000000000000000000000000000000000000000000000000000000007bffffffffffffffffffffffffffffffffffffffffffffffffffffffff1916827bffffffffffffffffffffffffffffffffffffffffffffffffffffffff1916145b806128c157506128c082613798565b5b9050919050565b505050565b6060600060028360026128e091906152be565b6128ea9190614d4e565b67ffffffffffffffff81111561290357612902614252565b5b6040519080825280601f01601f1916602001820160405280156129355781602001600182028036833780820191505090505b5090507f30000000000000000000000000000000000000000000000000000000000000008160008151811061296d5761296c615318565b5b60200101907effffffffffffffffffffffffffffffffffffffffffffffffffffffffffffff1916908160001a9053507f7800000000000000000000000000000000000000000000000000000000000000816001815181106129d1576129d0615318565b5b60200101907effffffffffffffffffffffffffffffffffffffffffffffffffffffffffffff1916908160001a90535060006001846002612a1191906152be565b612a1b9190614d4e565b90505b6001811115612abb577f3031323334353637383961626364656600000000000000000000000000000000600f861660108110612a5d57612a5c615318565b5b1a60f81b828281518110612a7457612a73615318565b5b60200101907effffffffffffffffffffffffffffffffffffffffffffffffffffffffffffff1916908160001a905350600485901c945080612ab490615347565b9050612a1e565b5060008414612aff576040517f08c379a0000000000000000000000000000000000000000000000000000000008152600401612af6906153bd565b60405180910390fd5b8091505092915050565b6000819050919050565b612b1c81613802565b612b5b576040517f08c379a0000000000000000000000000000000000000000000000000000000008152600401612b529061544f565b60405180910390fd5b80612b887f360894a13ba1a3210667c828492db98dca3e2076cc3735a920a3ca505d382bbc60001b612b09565b60000160006101000a81548173ffffffffffffffffffffffffffffffffffffffff021916908373ffffffffffffffffffffffffffffffffffffffff16021790555050565b6060612bd783613802565b612c16576040517f08c379a0000000000000000000000000000000000000000000000000000000008152600401612c0d906154e1565b60405180910390fd5b6000808473ffffffffffffffffffffffffffffffffffffffff1684604051612c3e9190615548565b600060405180830381855af49150503d8060008114612c79576040519150601f19603f3d011682016040523d82523d6000602084013e612c7e565b606091505b5091509150612ca6828260405180606001604052806027815260200161596e60279139613815565b9250505092915050565b6000819050919050565b612cc381612b13565b8073ffffffffffffffffffffffffffffffffffffffff167fbc7cd75a20ee27fd9adebab32041f755214dbc6bffa90cc0225b39da2e5c2d3b60405160405180910390a250565b612d13838361387c565b612d2060008484846134af565b612d5f576040517f08c379a0000000000000000000000000000000000000000000000000000000008152600401612d569061520c565b60405180910390fd5b505050565b612d6d81613a4a565b6000609760008381526020019081526020016000208054612d8d906146a7565b905014612db457609760008281526020019081526020016000206000612db39190613de9565b5b50565b600060019054906101000a900460ff1680612ddd575060008054906101000a900460ff16155b612e1c576040517f08c379a0000000000000000000000000000000000000000000000000000000008152600401612e1390614cff565b60405180910390fd5b60008060019054906101000a900460ff161590508015612e6c576001600060016101000a81548160ff02191690831515021790555060016000806101000a81548160ff0219169083151502179055505b8015612e8d5760008060016101000a81548160ff0219169083151502179055505b50565b600060019054906101000a900460ff1680612eb6575060008054906101000a900460ff16155b612ef5576040517f08c379a0000000000000000000000000000000000000000000000000000000008152600401612eec90614cff565b60405180910390fd5b60008060019054906101000a900460ff161590508015612f45576001600060016101000a81548160ff02191690831515021790555060016000806101000a81548160ff0219169083151502179055505b8015612f665760008060016101000a81548160ff0219169083151502179055505b50565b600060019054906101000a900460ff1680612f8f575060008054906101000a900460ff16155b612fce576040517f08c379a0000000000000000000000000000000000000000000000000000000008152600401612fc590614cff565b60405180910390fd5b60008060019054906101000a900460ff16159050801561301e576001600060016101000a81548160ff02191690831515021790555060016000806101000a81548160ff0219169083151502179055505b8260659080519060200190613034929190613d63565b50816066908051906020019061304b929190613d63565b50801561306d5760008060016101000a81548160ff0219169083151502179055505b505050565b600060019054906101000a900460ff1680613098575060008054906101000a900460ff16155b6130d7576040517f08c379a00000000000000000000000000000000000000000000000000000000081526004016130ce90614cff565b60405180910390fd5b60008060019054906101000a900460ff161590508015613127576001600060016101000a81548160ff02191690831515021790555060016000806101000a81548160ff0219169083151502179055505b80156131485760008060016101000a81548160ff0219169083151502179055505b50565b600060019054906101000a900460ff1680613171575060008054906101000a900460ff16155b6131b0576040517f08c379a00000000000000000000000000000000000000000000000000000000081526004016131a790614cff565b60405180910390fd5b60008060019054906101000a900460ff161590508015613200576001600060016101000a81548160ff02191690831515021790555060016000806101000a81548160ff0219169083151502179055505b80156132215760008060016101000a81548160ff0219169083151502179055505b50565b600060019054906101000a900460ff168061324a575060008054906101000a900460ff16155b613289576040517f08c379a000000000000000000000000000000000000000000000000000000000815260040161328090614cff565b60405180910390fd5b60008060019054906101000a900460ff1615905080156132d9576001600060016101000a81548160ff02191690831515021790555060016000806101000a81548160ff0219169083151502179055505b80156132fa5760008060016101000a81548160ff0219169083151502179055505b50565b600060019054906101000a900460ff1680613323575060008054906101000a900460ff16155b613362576040517f08c379a000000000000000000000000000000000000000000000000000000000815260040161335990614cff565b60405180910390fd5b60008060019054906101000a900460ff1615905080156133b2576001600060016101000a81548160ff02191690831515021790555060016000806101000a81548160ff0219169083151502179055505b80156133d35760008060016101000a81548160ff0219169083151502179055505b50565b600060019054906101000a900460ff16806133fc575060008054906101000a900460ff16155b61343b576040517f08c379a000000000000000000000000000000000000000000000000000000000815260040161343290614cff565b60405180910390fd5b60008060019054906101000a900460ff16159050801561348b576001600060016101000a81548160ff02191690831515021790555060016000806101000a81548160ff0219169083151502179055505b80156134ac5760008060016101000a81548160ff0219169083151502179055505b50565b60006134d08473ffffffffffffffffffffffffffffffffffffffff16613802565b15613639578373ffffffffffffffffffffffffffffffffffffffff1663150b7a026134f961174c565b8786866040518563ffffffff1660e01b815260040161351b94939291906155a9565b602060405180830381600087803b15801561353557600080fd5b505af192505050801561356657506040513d601f19601f82011682018060405250810190613563919061560a565b60015b6135e9573d8060008114613596576040519150601f19603f3d011682016040523d82523d6000602084013e61359b565b606091505b506000815114156135e1576040517f08c379a00000000000000000000000000000000000000000000000000000000081526004016135d89061520c565b60405180910390fd5b805181602001fd5b63150b7a0260e01b7bffffffffffffffffffffffffffffffffffffffffffffffffffffffff1916817bffffffffffffffffffffffffffffffffffffffffffffffffffffffff19161491505061363e565b600190505b949350505050565b6060613651826116e0565b613690576040517f08c379a0000000000000000000000000000000000000000000000000000000008152600401613687906156a9565b60405180910390fd5b60006097600084815260200190815260200160002080546136b0906146a7565b80601f01602080910402602001604051908101604052809291908181526020018280546136dc906146a7565b80156137295780601f106136fe57610100808354040283529160200191613729565b820191906000526020600020905b81548152906001019060200180831161370c57829003601f168201915b50505050509050600061373a612053565b9050600081511415613750578192505050613793565b60008251111561378557808260405160200161376d9291906156c9565b60405160208183030381529060405292505050613793565b61378e84613b5b565b925050505b919050565b60007f01ffc9a7000000000000000000000000000000000000000000000000000000007bffffffffffffffffffffffffffffffffffffffffffffffffffffffff1916827bffffffffffffffffffffffffffffffffffffffffffffffffffffffff1916149050919050565b600080823b905060008111915050919050565b6060831561382557829050613875565b6000835111156138385782518084602001fd5b816040517f08c379a000000000000000000000000000000000000000000000000000000000815260040161386c9190613fae565b60405180910390fd5b9392505050565b600073ffffffffffffffffffffffffffffffffffffffff168273ffffffffffffffffffffffffffffffffffffffff1614156138ec576040517f08c379a00000000000000000000000000000000000000000000000000000000081526004016138e390615739565b60405180910390fd5b6138f5816116e0565b15613935576040517f08c379a000000000000000000000000000000000000000000000000000000000815260040161392c906157a5565b60405180910390fd5b613941600083836128c8565b6001606860008473ffffffffffffffffffffffffffffffffffffffff1673ffffffffffffffffffffffffffffffffffffffff16815260200190815260200160002060008282546139919190614d4e565b92505081905550816067600083815260200190815260200160002060006101000a81548173ffffffffffffffffffffffffffffffffffffffff021916908373ffffffffffffffffffffffffffffffffffffffff160217905550808273ffffffffffffffffffffffffffffffffffffffff16600073ffffffffffffffffffffffffffffffffffffffff167fddf252ad1be2c89b69c2b068fc378daa952ba7f163c4a11628f55a4df523b3ef60405160405180910390a45050565b6000613a5582610f11565b9050613a63816000846128c8565b613a6e600083611754565b6001606860008373ffffffffffffffffffffffffffffffffffffffff1673ffffffffffffffffffffffffffffffffffffffff1681526020019081526020016000206000828254613abe9190614f5a565b925050819055506067600083815260200190815260200160002060006101000a81549073ffffffffffffffffffffffffffffffffffffffff021916905581600073ffffffffffffffffffffffffffffffffffffffff168273ffffffffffffffffffffffffffffffffffffffff167fddf252ad1be2c89b69c2b068fc378daa952ba7f163c4a11628f55a4df523b3ef60405160405180910390a45050565b6060613b66826116e0565b613ba5576040517f08c379a0000000000000000000000000000000000000000000000000000000008152600401613b9c90615837565b60405180910390fd5b6000613baf612053565b90506000815111613bcf5760405180602001604052806000815250613bfa565b80613bd984613c02565b604051602001613bea9291906156c9565b6040516020818303038152906040525b915050919050565b60606000821415613c4a576040518060400160405280600181526020017f30000000000000000000000000000000000000000000000000000000000000008152509050613d5e565b600082905060005b60008214613c7c578080613c6590615857565b915050600a82613c7591906158cf565b9150613c52565b60008167ffffffffffffffff811115613c9857613c97614252565b5b6040519080825280601f01601f191660200182016040528015613cca5781602001600182028036833780820191505090505b5090505b60008514613d5757600182613ce39190614f5a565b9150600a85613cf29190615900565b6030613cfe9190614d4e565b60f81b818381518110613d1457613d13615318565b5b60200101907effffffffffffffffffffffffffffffffffffffffffffffffffffffffffffff1916908160001a905350600a85613d5091906158cf565b9450613cce565b8093505050505b919050565b828054613d6f906146a7565b90600052602060002090601f016020900481019282613d915760008555613dd8565b82601f10613daa57805160ff1916838001178555613dd8565b82800160010185558215613dd8579182015b82811115613dd7578251825591602001919060010190613dbc565b5b509050613de59190613e29565b5090565b508054613df5906146a7565b6000825580601f10613e075750613e26565b601f016020900490600052602060002090810190613e259190613e29565b5b50565b5b80821115613e42576000816000905550600101613e2a565b5090565b6000604051905090565b600080fd5b600080fd5b60007fffffffff0000000000000000000000000000000000000000000000000000000082169050919050565b613e8f81613e5a565b8114613e9a57600080fd5b50565b600081359050613eac81613e86565b92915050565b600060208284031215613ec857613ec7613e50565b5b6000613ed684828501613e9d565b91505092915050565b60008115159050919050565b613ef481613edf565b82525050565b6000602082019050613f0f6000830184613eeb565b92915050565b600081519050919050565b600082825260208201905092915050565b60005b83811015613f4f578082015181840152602081019050613f34565b83811115613f5e576000848401525b50505050565b6000601f19601f8301169050919050565b6000613f8082613f15565b613f8a8185613f20565b9350613f9a818560208601613f31565b613fa381613f64565b840191505092915050565b60006020820190508181036000830152613fc88184613f75565b905092915050565b6000819050919050565b613fe381613fd0565b8114613fee57600080fd5b50565b60008135905061400081613fda565b92915050565b60006020828403121561401c5761401b613e50565b5b600061402a84828501613ff1565b91505092915050565b600073ffffffffffffffffffffffffffffffffffffffff82169050919050565b600061405e82614033565b9050919050565b61406e81614053565b82525050565b60006020820190506140896000830184614065565b92915050565b61409881614053565b81146140a357600080fd5b50565b6000813590506140b58161408f565b92915050565b600080604083850312156140d2576140d1613e50565b5b60006140e0858286016140a6565b92505060206140f185828601613ff1565b9150509250929050565b60008060006060848603121561411457614113613e50565b5b6000614122868287016140a6565b9350506020614133868287016140a6565b925050604061414486828701613ff1565b9150509250925092565b6000819050919050565b6141618161414e565b811461416c57600080fd5b50565b60008135905061417e81614158565b92915050565b60006020828403121561419a57614199613e50565b5b60006141a88482850161416f565b91505092915050565b6141ba8161414e565b82525050565b60006020820190506141d560008301846141b1565b92915050565b600080604083850312156141f2576141f1613e50565b5b60006142008582860161416f565b9250506020614211858286016140a6565b9150509250929050565b60006020828403121561423157614230613e50565b5b600061423f848285016140a6565b91505092915050565b600080fd5b600080fd5b7f4e487b7100000000000000000000000000000000000000000000000000000000600052604160045260246000fd5b61428a82613f64565b810181811067ffffffffffffffff821117156142a9576142a8614252565b5b80604052505050565b60006142bc613e46565b90506142c88282614281565b919050565b600067ffffffffffffffff8211156142e8576142e7614252565b5b6142f182613f64565b9050602081019050919050565b82818337600083830152505050565b600061432061431b846142cd565b6142b2565b90508281526020810184848401111561433c5761433b61424d565b5b6143478482856142fe565b509392505050565b600082601f83011261436457614363614248565b5b813561437484826020860161430d565b91505092915050565b6000806040838503121561439457614393613e50565b5b60006143a2858286016140a6565b925050602083013567ffffffffffffffff8111156143c3576143c2613e55565b5b6143cf8582860161434f565b9150509250929050565b600067ffffffffffffffff8211156143f4576143f3614252565b5b6143fd82613f64565b9050602081019050919050565b600061441d614418846143d9565b6142b2565b9050828152602081018484840111156144395761443861424d565b5b6144448482856142fe565b509392505050565b600082601f83011261446157614460614248565b5b813561447184826020860161440a565b91505092915050565b6000602082840312156144905761448f613e50565b5b600082013567ffffffffffffffff8111156144ae576144ad613e55565b5b6144ba8482850161444c565b91505092915050565b6144cc81613fd0565b82525050565b60006020820190506144e760008301846144c3565b92915050565b6144f681613edf565b811461450157600080fd5b50565b600081359050614513816144ed565b92915050565b600080604083850312156145305761452f613e50565b5b600061453e858286016140a6565b925050602061454f85828601614504565b9150509250929050565b6000806000806080858703121561457357614572613e50565b5b6000614581878288016140a6565b9450506020614592878288016140a6565b93505060406145a387828801613ff1565b925050606085013567ffffffffffffffff8111156145c4576145c3613e55565b5b6145d08782880161434f565b91505092959194509250565b600080604083850312156145f3576145f2613e50565b5b6000614601858286016140a6565b925050602083013567ffffffffffffffff81111561462257614621613e55565b5b61462e8582860161444c565b9150509250929050565b6000806040838503121561464f5761464e613e50565b5b600061465d858286016140a6565b925050602061466e858286016140a6565b9150509250929050565b7f4e487b7100000000000000000000000000000000000000000000000000000000600052602260045260246000fd5b600060028204905060018216806146bf57607f821691505b602082108114156146d3576146d2614678565b5b50919050565b7f4552433732313a20617070726f76656420717565727920666f72206e6f6e657860008201527f697374656e7420746f6b656e0000000000000000000000000000000000000000602082015250565b6000614735602c83613f20565b9150614740826146d9565b604082019050919050565b6000602082019050818103600083015261476481614728565b9050919050565b7f4552433732313a20617070726f76616c20746f2063757272656e74206f776e6560008201527f7200000000000000000000000000000000000000000000000000000000000000602082015250565b60006147c7602183613f20565b91506147d28261476b565b604082019050919050565b600060208201905081810360008301526147f6816147ba565b9050919050565b7f4552433732313a20617070726f76652063616c6c6572206973206e6f74206f7760008201527f6e6572206e6f7220617070726f76656420666f7220616c6c0000000000000000602082015250565b6000614859603883613f20565b9150614864826147fd565b604082019050919050565b600060208201905081810360008301526148888161484c565b9050919050565b7f4552433732313a207472616e736665722063616c6c6572206973206e6f74206f60008201527f776e6572206e6f7220617070726f766564000000000000000000000000000000602082015250565b60006148eb603183613f20565b91506148f68261488f565b604082019050919050565b6000602082019050818103600083015261491a816148de565b9050919050565b7f416363657373436f6e74726f6c3a2063616e206f6e6c792072656e6f756e636560008201527f20726f6c657320666f722073656c660000000000000000000000000000000000602082015250565b600061497d602f83613f20565b915061498882614921565b604082019050919050565b600060208201905081810360008301526149ac81614970565b9050919050565b7f46756e6374696f6e206d7573742062652063616c6c6564207468726f7567682060008201527f64656c656761746563616c6c0000000000000000000000000000000000000000602082015250565b6000614a0f602c83613f20565b9150614a1a826149b3565b604082019050919050565b60006020820190508181036000830152614a3e81614a02565b9050919050565b7f46756e6374696f6e206d7573742062652063616c6c6564207468726f7567682060008201527f6163746976652070726f78790000000000000000000000000000000000000000602082015250565b6000614aa1602c83613f20565b9150614aac82614a45565b604082019050919050565b60006020820190508181036000830152614ad081614a94565b9050919050565b7f4552433732314275726e61626c653a2063616c6c6572206973206e6f74206f7760008201527f6e6572206e6f7220617070726f76656400000000000000000000000000000000602082015250565b6000614b33603083613f20565b9150614b3e82614ad7565b604082019050919050565b60006020820190508181036000830152614b6281614b26565b9050919050565b7f4552433732313a206f776e657220717565727920666f72206e6f6e657869737460008201527f656e7420746f6b656e0000000000000000000000000000000000000000000000602082015250565b6000614bc5602983613f20565b9150614bd082614b69565b604082019050919050565b60006020820190508181036000830152614bf481614bb8565b9050919050565b7f4552433732313a2062616c616e636520717565727920666f7220746865207a6560008201527f726f206164647265737300000000000000000000000000000000000000000000602082015250565b6000614c57602a83613f20565b9150614c6282614bfb565b604082019050919050565b60006020820190508181036000830152614c8681614c4a565b9050919050565b7f496e697469616c697a61626c653a20636f6e747261637420697320616c72656160008201527f647920696e697469616c697a6564000000000000000000000000000000000000602082015250565b6000614ce9602e83613f20565b9150614cf482614c8d565b604082019050919050565b60006020820190508181036000830152614d1881614cdc565b9050919050565b7f4e487b7100000000000000000000000000000000000000000000000000000000600052601160045260246000fd5b6000614d5982613fd0565b9150614d6483613fd0565b9250827fffffffffffffffffffffffffffffffffffffffffffffffffffffffffffffffff03821115614d9957614d98614d1f565b5b828201905092915050565b7f4552433732313a206f70657261746f7220717565727920666f72206e6f6e657860008201527f697374656e7420746f6b656e0000000000000000000000000000000000000000602082015250565b6000614e00602c83613f20565b9150614e0b82614da4565b604082019050919050565b60006020820190508181036000830152614e2f81614df3565b9050919050565b7f4552433732313a207472616e73666572206f6620746f6b656e2074686174206960008201527f73206e6f74206f776e0000000000000000000000000000000000000000000000602082015250565b6000614e92602983613f20565b9150614e9d82614e36565b604082019050919050565b60006020820190508181036000830152614ec181614e85565b9050919050565b7f4552433732313a207472616e7366657220746f20746865207a65726f2061646460008201527f7265737300000000000000000000000000000000000000000000000000000000602082015250565b6000614f24602483613f20565b9150614f2f82614ec8565b604082019050919050565b60006020820190508181036000830152614f5381614f17565b9050919050565b6000614f6582613fd0565b9150614f7083613fd0565b925082821015614f8357614f82614d1f565b5b828203905092915050565b600081905092915050565b7f416363657373436f6e74726f6c3a206163636f756e7420000000000000000000600082015250565b6000614fcf601783614f8e565b9150614fda82614f99565b601782019050919050565b6000614ff082613f15565b614ffa8185614f8e565b935061500a818560208601613f31565b80840191505092915050565b7f206973206d697373696e6720726f6c6520000000000000000000000000000000600082015250565b600061504c601183614f8e565b915061505782615016565b601182019050919050565b600061506d82614fc2565b91506150798285614fe5565b91506150848261503f565b91506150908284614fe5565b91508190509392505050565b7f45524331393637557067726164653a207570677261646520627265616b73206660008201527f7572746865722075706772616465730000000000000000000000000000000000602082015250565b60006150f8602f83613f20565b91506151038261509c565b604082019050919050565b60006020820190508181036000830152615127816150eb565b9050919050565b7f4552433732313a20617070726f766520746f2063616c6c657200000000000000600082015250565b6000615164601983613f20565b915061516f8261512e565b602082019050919050565b6000602082019050818103600083015261519381615157565b9050919050565b7f4552433732313a207472616e7366657220746f206e6f6e20455243373231526560008201527f63656976657220696d706c656d656e7465720000000000000000000000000000602082015250565b60006151f6603283613f20565b91506152018261519a565b604082019050919050565b60006020820190508181036000830152615225816151e9565b9050919050565b7f45524337323155524953746f726167653a2055524920736574206f66206e6f6e60008201527f6578697374656e7420746f6b656e000000000000000000000000000000000000602082015250565b6000615288602e83613f20565b91506152938261522c565b604082019050919050565b600060208201905081810360008301526152b78161527b565b9050919050565b60006152c982613fd0565b91506152d483613fd0565b9250817fffffffffffffffffffffffffffffffffffffffffffffffffffffffffffffffff048311821515161561530d5761530c614d1f565b5b828202905092915050565b7f4e487b7100000000000000000000000000000000000000000000000000000000600052603260045260246000fd5b600061535282613fd0565b9150600082141561536657615365614d1f565b5b600182039050919050565b7f537472696e67733a20686578206c656e67746820696e73756666696369656e74600082015250565b60006153a7602083613f20565b91506153b282615371565b602082019050919050565b600060208201905081810360008301526153d68161539a565b9050919050565b7f455243313936373a206e657720696d706c656d656e746174696f6e206973206e60008201527f6f74206120636f6e747261637400000000000000000000000000000000000000602082015250565b6000615439602d83613f20565b9150615444826153dd565b604082019050919050565b600060208201905081810360008301526154688161542c565b9050919050565b7f416464726573733a2064656c65676174652063616c6c20746f206e6f6e2d636f60008201527f6e74726163740000000000000000000000000000000000000000000000000000602082015250565b60006154cb602683613f20565b91506154d68261546f565b604082019050919050565b600060208201905081810360008301526154fa816154be565b9050919050565b600081519050919050565b600081905092915050565b600061552282615501565b61552c818561550c565b935061553c818560208601613f31565b80840191505092915050565b60006155548284615517565b915081905092915050565b600082825260208201905092915050565b600061557b82615501565b615585818561555f565b9350615595818560208601613f31565b61559e81613f64565b840191505092915050565b60006080820190506155be6000830187614065565b6155cb6020830186614065565b6155d860408301856144c3565b81810360608301526155ea8184615570565b905095945050505050565b60008151905061560481613e86565b92915050565b6000602082840312156156205761561f613e50565b5b600061562e848285016155f5565b91505092915050565b7f45524337323155524953746f726167653a2055524920717565727920666f722060008201527f6e6f6e6578697374656e7420746f6b656e000000000000000000000000000000602082015250565b6000615693603183613f20565b915061569e82615637565b604082019050919050565b600060208201905081810360008301526156c281615686565b9050919050565b60006156d58285614fe5565b91506156e18284614fe5565b91508190509392505050565b7f4552433732313a206d696e7420746f20746865207a65726f2061646472657373600082015250565b6000615723602083613f20565b915061572e826156ed565b602082019050919050565b6000602082019050818103600083015261575281615716565b9050919050565b7f4552433732313a20746f6b656e20616c7265616479206d696e74656400000000600082015250565b600061578f601c83613f20565b915061579a82615759565b602082019050919050565b600060208201905081810360008301526157be81615782565b9050919050565b7f4552433732314d657461646174613a2055524920717565727920666f72206e6f60008201527f6e6578697374656e7420746f6b656e0000000000000000000000000000000000602082015250565b6000615821602f83613f20565b915061582c826157c5565b604082019050919050565b6000602082019050818103600083015261585081615814565b9050919050565b600061586282613fd0565b91507fffffffffffffffffffffffffffffffffffffffffffffffffffffffffffffffff82141561589557615894614d1f565b5b600182019050919050565b7f4e487b7100000000000000000000000000000000000000000000000000000000600052601260045260246000fd5b60006158da82613fd0565b91506158e583613fd0565b9250826158f5576158f46158a0565b5b828204905092915050565b600061590b82613fd0565b915061591683613fd0565b925082615926576159256158a0565b5b82820690509291505056fe68747470733a2f2f61727469636c652e63756c6c656e2e6d6c2f626c6f636b636861696e2f617274616c61786965735f64656661756c742e6a736f6e416464726573733a206c6f772d6c6576656c2064656c65676174652063616c6c206661696c6564a2646970667358221220304ca7b9263b9c776227382bd3b6f2806ec91b0799958e82c1817f50d4535b3f64736f6c63430008090033",
  "immutableReferences": {
    "897": [
      {
        "length": 32,
        "start": 2824
      },
      {
        "length": 32,
        "start": 2967
      },
      {
        "length": 32,
        "start": 3432
      },
      {
        "length": 32,
        "start": 3575
      }
    ]
  },
  "source": "// SPDX-License-Identifier: MIT\r\npragma solidity ^0.8.9;\r\n\r\nimport \"./ArtalaxiesMarketV1.sol\";\r\nimport \"@openzeppelin/contracts-upgradeable/token/ERC721/ERC721Upgradeable.sol\";\r\nimport \"@openzeppelin/contracts-upgradeable/token/ERC721/extensions/ERC721URIStorageUpgradeable.sol\";\r\n\r\ncontract ArtalaxiesMarketV2 is ArtalaxiesMarketV1{\r\n\r\n    // For defalut URI.\r\n    string private _defalutURI;\r\n\r\n    // Useless, cus unable to initialize again in the network.\r\n    function initialize()  public override initializer {\r\n        __ERC721_init(\"Artalaxies Testing Market\", \"TARTX\");\r\n        __ERC721URIStorage_init();\r\n        __ERC721Burnable_init();\r\n        __AccessControl_init();\r\n        __UUPSUpgradeable_init();\r\n\r\n        _grantRole(DEFAULT_ADMIN_ROLE, msg.sender);\r\n        _grantRole(MINTER_ROLE, msg.sender);\r\n        _grantRole(UPGRADER_ROLE, msg.sender);\r\n        setDefaultURI(\"https://article.cullen.ml/blockchain/artalaxies_default.json\");\r\n    }\r\n\r\n\r\n    // Setting Default URI for BaseURI\r\n    function setDefaultURI(string memory uri_) public onlyRole(DEFAULT_ADMIN_ROLE) {\r\n        _defalutURI = uri_;\r\n    }\r\n\r\n    // Version of the Smart Contract.\r\n    function version() public pure virtual override returns (string memory){\r\n        return \"v2\";\r\n    }\r\n\r\n    // Get a URI form a token\r\n    function tokenURI(uint256 tokenId)\r\n        public\r\n        view\r\n        virtual\r\n        override\r\n        returns (string memory)\r\n    {\r\n        string memory _tokenURI = super.tokenURI(tokenId);\r\n\r\n        if (bytes(_tokenURI).length > 0) {\r\n            return _tokenURI;\r\n        }else{\r\n            return _defalutURI;\r\n        }\r\n    }\r\n\r\n}",
  "sourcePath": "E:\\Currentworkspace\\work\\Artalaxies_contract\\contracts\\testnet\\ArtalaxiesMarketV2.sol",
  "compiler": {
    "name": "solc",
    "version": "0.8.9+commit.e5eed63a.Emscripten.clang"
  },
  "schemaVersion": "3.4.3",
  "updatedAt": "2021-12-12T07:42:21.570Z",
  "devdoc": {
    "kind": "dev",
    "methods": {
      "approve(address,uint256)": {
        "details": "See {IERC721-approve}."
      },
      "balanceOf(address)": {
        "details": "See {IERC721-balanceOf}."
      },
      "burn(uint256)": {
        "details": "Burns `tokenId`. See {ERC721-_burn}. Requirements: - The caller must own `tokenId` or be an approved operator."
      },
      "getApproved(uint256)": {
        "details": "See {IERC721-getApproved}."
      },
      "getRoleAdmin(bytes32)": {
        "details": "Returns the admin role that controls `role`. See {grantRole} and {revokeRole}. To change a role's admin, use {_setRoleAdmin}."
      },
      "grantRole(bytes32,address)": {
        "details": "Grants `role` to `account`. If `account` had not been already granted `role`, emits a {RoleGranted} event. Requirements: - the caller must have ``role``'s admin role."
      },
      "hasRole(bytes32,address)": {
        "details": "Returns `true` if `account` has been granted `role`."
      },
      "isApprovedForAll(address,address)": {
        "details": "See {IERC721-isApprovedForAll}."
      },
      "name()": {
        "details": "See {IERC721Metadata-name}."
      },
      "ownerOf(uint256)": {
        "details": "See {IERC721-ownerOf}."
      },
      "renounceRole(bytes32,address)": {
        "details": "Revokes `role` from the calling account. Roles are often managed via {grantRole} and {revokeRole}: this function's purpose is to provide a mechanism for accounts to lose their privileges if they are compromised (such as when a trusted device is misplaced). If the calling account had been revoked `role`, emits a {RoleRevoked} event. Requirements: - the caller must be `account`."
      },
      "revokeRole(bytes32,address)": {
        "details": "Revokes `role` from `account`. If `account` had been granted `role`, emits a {RoleRevoked} event. Requirements: - the caller must have ``role``'s admin role."
      },
      "safeTransferFrom(address,address,uint256)": {
        "details": "See {IERC721-safeTransferFrom}."
      },
      "safeTransferFrom(address,address,uint256,bytes)": {
        "details": "See {IERC721-safeTransferFrom}."
      },
      "setApprovalForAll(address,bool)": {
        "details": "See {IERC721-setApprovalForAll}."
      },
      "symbol()": {
        "details": "See {IERC721Metadata-symbol}."
      },
      "transferFrom(address,address,uint256)": {
        "details": "See {IERC721-transferFrom}."
      },
      "upgradeTo(address)": {
        "details": "Upgrade the implementation of the proxy to `newImplementation`. Calls {_authorizeUpgrade}. Emits an {Upgraded} event."
      },
      "upgradeToAndCall(address,bytes)": {
        "details": "Upgrade the implementation of the proxy to `newImplementation`, and subsequently execute the function call encoded in `data`. Calls {_authorizeUpgrade}. Emits an {Upgraded} event."
      }
    },
    "version": 1
  },
  "userdoc": {
    "kind": "user",
    "methods": {},
    "version": 1
  }
}