{
  "contractName": "TestnetDerivativeTokenV2",
  "abi": [
    {
      "inputs": [],
      "stateMutability": "nonpayable",
      "type": "constructor"
    },
    {
      "anonymous": false,
      "inputs": [
        {
          "indexed": false,
          "internalType": "address",
          "name": "previousAdmin",
          "type": "address"
        },
        {
          "indexed": false,
          "internalType": "address",
          "name": "newAdmin",
          "type": "address"
        }
      ],
      "name": "AdminChanged",
      "type": "event"
    },
    {
      "anonymous": false,
      "inputs": [
        {
          "indexed": true,
          "internalType": "address",
          "name": "account",
          "type": "address"
        },
        {
          "indexed": true,
          "internalType": "address",
          "name": "operator",
          "type": "address"
        },
        {
          "indexed": false,
          "internalType": "bool",
          "name": "approved",
          "type": "bool"
        }
      ],
      "name": "ApprovalForAll",
      "type": "event"
    },
    {
      "anonymous": false,
      "inputs": [
        {
          "indexed": true,
          "internalType": "address",
          "name": "beacon",
          "type": "address"
        }
      ],
      "name": "BeaconUpgraded",
      "type": "event"
    },
    {
      "anonymous": false,
      "inputs": [
        {
          "indexed": true,
          "internalType": "address",
          "name": "previousOwner",
          "type": "address"
        },
        {
          "indexed": true,
          "internalType": "address",
          "name": "newOwner",
          "type": "address"
        }
      ],
      "name": "OwnershipTransferred",
      "type": "event"
    },
    {
      "anonymous": false,
      "inputs": [
        {
          "indexed": false,
          "internalType": "address",
          "name": "account",
          "type": "address"
        }
      ],
      "name": "Paused",
      "type": "event"
    },
    {
      "anonymous": false,
      "inputs": [
        {
          "indexed": true,
          "internalType": "address",
          "name": "operator",
          "type": "address"
        },
        {
          "indexed": true,
          "internalType": "address",
          "name": "from",
          "type": "address"
        },
        {
          "indexed": true,
          "internalType": "address",
          "name": "to",
          "type": "address"
        },
        {
          "indexed": false,
          "internalType": "uint256[]",
          "name": "ids",
          "type": "uint256[]"
        },
        {
          "indexed": false,
          "internalType": "uint256[]",
          "name": "values",
          "type": "uint256[]"
        }
      ],
      "name": "TransferBatch",
      "type": "event"
    },
    {
      "anonymous": false,
      "inputs": [
        {
          "indexed": true,
          "internalType": "address",
          "name": "operator",
          "type": "address"
        },
        {
          "indexed": true,
          "internalType": "address",
          "name": "from",
          "type": "address"
        },
        {
          "indexed": true,
          "internalType": "address",
          "name": "to",
          "type": "address"
        },
        {
          "indexed": false,
          "internalType": "uint256",
          "name": "id",
          "type": "uint256"
        },
        {
          "indexed": false,
          "internalType": "uint256",
          "name": "value",
          "type": "uint256"
        }
      ],
      "name": "TransferSingle",
      "type": "event"
    },
    {
      "anonymous": false,
      "inputs": [
        {
          "indexed": false,
          "internalType": "string",
          "name": "value",
          "type": "string"
        },
        {
          "indexed": true,
          "internalType": "uint256",
          "name": "id",
          "type": "uint256"
        }
      ],
      "name": "URI",
      "type": "event"
    },
    {
      "anonymous": false,
      "inputs": [
        {
          "indexed": false,
          "internalType": "address",
          "name": "account",
          "type": "address"
        }
      ],
      "name": "Unpaused",
      "type": "event"
    },
    {
      "anonymous": false,
      "inputs": [
        {
          "indexed": true,
          "internalType": "address",
          "name": "implementation",
          "type": "address"
        }
      ],
      "name": "Upgraded",
      "type": "event"
    },
    {
      "inputs": [],
      "name": "owner",
      "outputs": [
        {
          "internalType": "address",
          "name": "",
          "type": "address"
        }
      ],
      "stateMutability": "view",
      "type": "function",
      "constant": true
    },
    {
      "inputs": [],
      "name": "paused",
      "outputs": [
        {
          "internalType": "bool",
          "name": "",
          "type": "bool"
        }
      ],
      "stateMutability": "view",
      "type": "function",
      "constant": true
    },
    {
      "inputs": [],
      "name": "renounceOwnership",
      "outputs": [],
      "stateMutability": "nonpayable",
      "type": "function"
    },
    {
      "inputs": [
        {
          "internalType": "address",
          "name": "newOwner",
          "type": "address"
        }
      ],
      "name": "transferOwnership",
      "outputs": [],
      "stateMutability": "nonpayable",
      "type": "function"
    },
    {
      "inputs": [
        {
          "internalType": "address",
          "name": "newImplementation",
          "type": "address"
        }
      ],
      "name": "upgradeTo",
      "outputs": [],
      "stateMutability": "nonpayable",
      "type": "function"
    },
    {
      "inputs": [
        {
          "internalType": "address",
          "name": "newImplementation",
          "type": "address"
        },
        {
          "internalType": "bytes",
          "name": "data",
          "type": "bytes"
        }
      ],
      "name": "upgradeToAndCall",
      "outputs": [],
      "stateMutability": "payable",
      "type": "function",
      "payable": true
    },
    {
      "inputs": [],
      "name": "initialize",
      "outputs": [],
      "stateMutability": "nonpayable",
      "type": "function"
    },
    {
      "inputs": [
        {
          "internalType": "contract IERC721MetadataUpgradeable",
          "name": "originContract",
          "type": "address"
        },
        {
          "internalType": "uint256",
          "name": "originTokenId",
          "type": "uint256"
        }
      ],
      "name": "getTokenId",
      "outputs": [
        {
          "internalType": "uint256",
          "name": "",
          "type": "uint256"
        }
      ],
      "stateMutability": "view",
      "type": "function",
      "constant": true
    },
    {
      "inputs": [
        {
          "internalType": "contract IERC721MetadataUpgradeable",
          "name": "originContract",
          "type": "address"
        },
        {
          "internalType": "uint256",
          "name": "originTokenId",
          "type": "uint256"
        }
      ],
      "name": "getAmount",
      "outputs": [
        {
          "internalType": "uint256",
          "name": "",
          "type": "uint256"
        }
      ],
      "stateMutability": "view",
      "type": "function",
      "constant": true
    },
    {
      "inputs": [
        {
          "internalType": "address",
          "name": "to",
          "type": "address"
        },
        {
          "internalType": "uint256",
          "name": "amount",
          "type": "uint256"
        },
        {
          "internalType": "contract IERC721MetadataUpgradeable",
          "name": "originContract",
          "type": "address"
        },
        {
          "internalType": "uint256",
          "name": "originTokenId",
          "type": "uint256"
        }
      ],
      "name": "safeMint",
      "outputs": [],
      "stateMutability": "payable",
      "type": "function",
      "payable": true
    },
    {
      "inputs": [
        {
          "internalType": "address",
          "name": "to",
          "type": "address"
        },
        {
          "internalType": "uint256[]",
          "name": "amounts",
          "type": "uint256[]"
        },
        {
          "internalType": "contract IERC721MetadataUpgradeable[]",
          "name": "originContracts",
          "type": "address[]"
        },
        {
          "internalType": "uint256[]",
          "name": "originTokenIds",
          "type": "uint256[]"
        }
      ],
      "name": "safeMintBatch",
      "outputs": [],
      "stateMutability": "payable",
      "type": "function",
      "payable": true
    },
    {
      "inputs": [
        {
          "internalType": "address",
          "name": "from",
          "type": "address"
        },
        {
          "internalType": "contract IERC721MetadataUpgradeable",
          "name": "originContract",
          "type": "address"
        },
        {
          "internalType": "uint256",
          "name": "originTokenId",
          "type": "uint256"
        },
        {
          "internalType": "uint256",
          "name": "amount",
          "type": "uint256"
        }
      ],
      "name": "burn",
      "outputs": [],
      "stateMutability": "nonpayable",
      "type": "function"
    },
    {
      "inputs": [
        {
          "internalType": "bytes4",
          "name": "interfaceId",
          "type": "bytes4"
        }
      ],
      "name": "supportsInterface",
      "outputs": [
        {
          "internalType": "bool",
          "name": "",
          "type": "bool"
        }
      ],
      "stateMutability": "view",
      "type": "function",
      "constant": true
    },
    {
      "inputs": [
        {
          "internalType": "string",
          "name": "uri_",
          "type": "string"
        }
      ],
      "name": "setDefaultURI",
      "outputs": [],
      "stateMutability": "nonpayable",
      "type": "function"
    },
    {
      "inputs": [
        {
          "internalType": "uint256",
          "name": "id",
          "type": "uint256"
        }
      ],
      "name": "uri",
      "outputs": [
        {
          "internalType": "string",
          "name": "",
          "type": "string"
        }
      ],
      "stateMutability": "view",
      "type": "function",
      "constant": true
    },
    {
      "inputs": [
        {
          "internalType": "address",
          "name": "account",
          "type": "address"
        },
        {
          "internalType": "uint256",
          "name": "id",
          "type": "uint256"
        }
      ],
      "name": "balanceOf",
      "outputs": [
        {
          "internalType": "uint256",
          "name": "",
          "type": "uint256"
        }
      ],
      "stateMutability": "view",
      "type": "function",
      "constant": true
    },
    {
      "inputs": [
        {
          "internalType": "address[]",
          "name": "accounts",
          "type": "address[]"
        },
        {
          "internalType": "uint256[]",
          "name": "ids",
          "type": "uint256[]"
        }
      ],
      "name": "balanceOfBatch",
      "outputs": [
        {
          "internalType": "uint256[]",
          "name": "",
          "type": "uint256[]"
        }
      ],
      "stateMutability": "view",
      "type": "function",
      "constant": true
    },
    {
      "inputs": [
        {
          "internalType": "address",
          "name": "operator",
          "type": "address"
        },
        {
          "internalType": "bool",
          "name": "approved",
          "type": "bool"
        }
      ],
      "name": "setApprovalForAll",
      "outputs": [],
      "stateMutability": "nonpayable",
      "type": "function"
    },
    {
      "inputs": [
        {
          "internalType": "address",
          "name": "account",
          "type": "address"
        },
        {
          "internalType": "address",
          "name": "operator",
          "type": "address"
        }
      ],
      "name": "isApprovedForAll",
      "outputs": [
        {
          "internalType": "bool",
          "name": "",
          "type": "bool"
        }
      ],
      "stateMutability": "view",
      "type": "function",
      "constant": true
    },
    {
      "inputs": [
        {
          "internalType": "address",
          "name": "from",
          "type": "address"
        },
        {
          "internalType": "address",
          "name": "to",
          "type": "address"
        },
        {
          "internalType": "uint256",
          "name": "id",
          "type": "uint256"
        },
        {
          "internalType": "uint256",
          "name": "amount",
          "type": "uint256"
        },
        {
          "internalType": "bytes",
          "name": "data",
          "type": "bytes"
        }
      ],
      "name": "safeTransferFrom",
      "outputs": [],
      "stateMutability": "nonpayable",
      "type": "function"
    },
    {
      "inputs": [
        {
          "internalType": "address",
          "name": "from",
          "type": "address"
        },
        {
          "internalType": "address",
          "name": "to",
          "type": "address"
        },
        {
          "internalType": "uint256[]",
          "name": "ids",
          "type": "uint256[]"
        },
        {
          "internalType": "uint256[]",
          "name": "amounts",
          "type": "uint256[]"
        },
        {
          "internalType": "bytes",
          "name": "data",
          "type": "bytes"
        }
      ],
      "name": "safeBatchTransferFrom",
      "outputs": [],
      "stateMutability": "nonpayable",
      "type": "function"
    },
    {
      "inputs": [],
      "name": "pause",
      "outputs": [],
      "stateMutability": "nonpayable",
      "type": "function"
    },
    {
      "inputs": [],
      "name": "unpause",
      "outputs": [],
      "stateMutability": "nonpayable",
      "type": "function"
    }
  ],
  "bytecode": "0x60a06040523073ffffffffffffffffffffffffffffffffffffffff1660809073ffffffffffffffffffffffffffffffffffffffff168152503480156200004457600080fd5b50600060019054906101000a900460ff166200006f5760008054906101000a900460ff161562000080565b6200007f6200013c60201b60201c565b5b620000c2576040517f08c379a0000000000000000000000000000000000000000000000000000000008152600401620000b990620001f4565b60405180910390fd5b60008060019054906101000a900460ff16159050801562000113576001600060016101000a81548160ff02191690831515021790555060016000806101000a81548160ff0219169083151502179055505b8015620001355760008060016101000a81548160ff0219169083151502179055505b5062000216565b600062000154306200015a60201b6200193b1760201c565b15905090565b600080823b905060008111915050919050565b600082825260208201905092915050565b7f496e697469616c697a61626c653a20636f6e747261637420697320616c72656160008201527f647920696e697469616c697a6564000000000000000000000000000000000000602082015250565b6000620001dc602e836200016d565b9150620001e9826200017e565b604082019050919050565b600060208201905081810360008301526200020f81620001cd565b9050919050565b60805161590c62000247600039600081816108af0152818161093e01528181610bd70152610c66015261590c6000f3fe60806040526004361061013f5760003560e01c80638129fc1c116100b6578063d7020d0a1161006f578063d7020d0a146103f6578063da1b9e081461041f578063e0b999a114610448578063e985e9c514610485578063f242432a146104c2578063f2fde38b146104eb5761013f565b80638129fc1c1461033c5780638456cb59146103535780638da5cb5b1461036a5780639559939c14610395578063a22cb465146103b1578063b569e547146103da5761013f565b80633659cfe6116101085780633659cfe6146102615780633f4ba83a1461028a5780634e1273f4146102a15780634f1ef286146102de5780635c975abb146102fa578063715018a6146103255761013f565b8062fdd58e1461014457806301ffc9a7146101815780630e89341c146101be57806329f99b9f146101fb5780632eb2c2d614610238575b600080fd5b34801561015057600080fd5b5061016b6004803603810190610166919061367c565b610514565b60405161017891906136cb565b60405180910390f35b34801561018d57600080fd5b506101a860048036038101906101a3919061373e565b6105de565b6040516101b59190613786565b60405180910390f35b3480156101ca57600080fd5b506101e560048036038101906101e091906137a1565b610780565b6040516101f29190613867565b60405180910390f35b34801561020757600080fd5b50610222600480360381019061021d91906138c7565b6107ac565b60405161022f91906136cb565b60405180910390f35b34801561024457600080fd5b5061025f600480360381019061025a9190613b04565b61080c565b005b34801561026d57600080fd5b5061028860048036038101906102839190613bd3565b6108ad565b005b34801561029657600080fd5b5061029f610a36565b005b3480156102ad57600080fd5b506102c860048036038101906102c39190613cc3565b610abc565b6040516102d59190613df9565b60405180910390f35b6102f860048036038101906102f39190613e1b565b610bd5565b005b34801561030657600080fd5b5061030f610d12565b60405161031c9190613786565b60405180910390f35b34801561033157600080fd5b5061033a610d29565b005b34801561034857600080fd5b50610351610db1565b005b34801561035f57600080fd5b50610368610edc565b005b34801561037657600080fd5b5061037f610f62565b60405161038c9190613e86565b60405180910390f35b6103af60048036038101906103aa9190613f64565b610f8c565b005b3480156103bd57600080fd5b506103d860048036038101906103d3919061404b565b611307565b005b6103f460048036038101906103ef919061408b565b61131d565b005b34801561040257600080fd5b5061041d600480360381019061041891906140f2565b611587565b005b34801561042b57600080fd5b50610446600480360381019061044191906141fa565b61161d565b005b34801561045457600080fd5b5061046f600480360381019061046a91906138c7565b6116b3565b60405161047c91906136cb565b60405180910390f35b34801561049157600080fd5b506104ac60048036038101906104a79190614243565b61170e565b6040516104b99190613786565b60405180910390f35b3480156104ce57600080fd5b506104e960048036038101906104e49190614283565b6117a2565b005b3480156104f757600080fd5b50610512600480360381019061050d9190613bd3565b611843565b005b60008073ffffffffffffffffffffffffffffffffffffffff168373ffffffffffffffffffffffffffffffffffffffff161415610585576040517f08c379a000000000000000000000000000000000000000000000000000000000815260040161057c9061438c565b60405180910390fd5b60fb600083815260200190815260200160002060008473ffffffffffffffffffffffffffffffffffffffff1673ffffffffffffffffffffffffffffffffffffffff16815260200190815260200160002054905092915050565b60007fd9b67a26000000000000000000000000000000000000000000000000000000007bffffffffffffffffffffffffffffffffffffffffffffffffffffffff1916827bffffffffffffffffffffffffffffffffffffffffffffffffffffffff191614806106a957507f0e89341c000000000000000000000000000000000000000000000000000000007bffffffffffffffffffffffffffffffffffffffffffffffffffffffff1916827bffffffffffffffffffffffffffffffffffffffffffffffffffffffff1916145b8061071157507f01ffc9a7000000000000000000000000000000000000000000000000000000007bffffffffffffffffffffffffffffffffffffffffffffffffffffffff1916827bffffffffffffffffffffffffffffffffffffffffffffffffffffffff1916145b8061077957507f0e89341c000000000000000000000000000000000000000000000000000000007bffffffffffffffffffffffffffffffffffffffffffffffffffffffff1916827bffffffffffffffffffffffffffffffffffffffffffffffffffffffff1916145b9050919050565b606060fe826040516020016107969291906144cd565b6040516020818303038152906040529050919050565b6000806107b984846116b3565b11156107f25782826040516020016107d29291906145d9565b6040516020818303038152906040528051906020012060001c9050610806565b600061080157610800614610565b5b600090505b92915050565b61081461194e565b73ffffffffffffffffffffffffffffffffffffffff168573ffffffffffffffffffffffffffffffffffffffff16148061085a57506108598561085461194e565b61170e565b5b610899576040517f08c379a0000000000000000000000000000000000000000000000000000000008152600401610890906146b1565b60405180910390fd5b6108a68585858585611956565b5050505050565b7f000000000000000000000000000000000000000000000000000000000000000073ffffffffffffffffffffffffffffffffffffffff163073ffffffffffffffffffffffffffffffffffffffff16141561093c576040517f08c379a000000000000000000000000000000000000000000000000000000000815260040161093390614743565b60405180910390fd5b7f000000000000000000000000000000000000000000000000000000000000000073ffffffffffffffffffffffffffffffffffffffff1661097b611c6d565b73ffffffffffffffffffffffffffffffffffffffff16146109d1576040517f08c379a00000000000000000000000000000000000000000000000000000000081526004016109c8906147d5565b60405180910390fd5b6109da81611cc4565b610a3381600067ffffffffffffffff8111156109f9576109f861390c565b5b6040519080825280601f01601f191660200182016040528015610a2b5781602001600182028036833780820191505090505b506000611d43565b50565b610a3e61194e565b73ffffffffffffffffffffffffffffffffffffffff16610a5c610f62565b73ffffffffffffffffffffffffffffffffffffffff1614610ab2576040517f08c379a0000000000000000000000000000000000000000000000000000000008152600401610aa990614841565b60405180910390fd5b610aba611f14565b565b60608151835114610b02576040517f08c379a0000000000000000000000000000000000000000000000000000000008152600401610af9906148d3565b60405180910390fd5b6000835167ffffffffffffffff811115610b1f57610b1e61390c565b5b604051908082528060200260200182016040528015610b4d5781602001602082028036833780820191505090505b50905060005b8451811015610bca57610b9a858281518110610b7257610b716148f3565b5b6020026020010151858381518110610b8d57610b8c6148f3565b5b6020026020010151610514565b828281518110610bad57610bac6148f3565b5b60200260200101818152505080610bc390614951565b9050610b53565b508091505092915050565b7f000000000000000000000000000000000000000000000000000000000000000073ffffffffffffffffffffffffffffffffffffffff163073ffffffffffffffffffffffffffffffffffffffff161415610c64576040517f08c379a0000000000000000000000000000000000000000000000000000000008152600401610c5b90614743565b60405180910390fd5b7f000000000000000000000000000000000000000000000000000000000000000073ffffffffffffffffffffffffffffffffffffffff16610ca3611c6d565b73ffffffffffffffffffffffffffffffffffffffff1614610cf9576040517f08c379a0000000000000000000000000000000000000000000000000000000008152600401610cf0906147d5565b60405180910390fd5b610d0282611cc4565b610d0e82826001611d43565b5050565b6000603360009054906101000a900460ff16905090565b610d3161194e565b73ffffffffffffffffffffffffffffffffffffffff16610d4f610f62565b73ffffffffffffffffffffffffffffffffffffffff1614610da5576040517f08c379a0000000000000000000000000000000000000000000000000000000008152600401610d9c90614841565b60405180910390fd5b610daf6000611fb6565b565b600060019054906101000a900460ff16610dd95760008054906101000a900460ff1615610de2565b610de161207c565b5b610e21576040517f08c379a0000000000000000000000000000000000000000000000000000000008152600401610e1890614a0c565b60405180910390fd5b60008060019054906101000a900460ff161590508015610e71576001600060016101000a81548160ff02191690831515021790555060016000806101000a81548160ff0219169083151502179055505b6040518060600160405280602481526020016158b36024913960fe9080519060200190610e9f929190613531565b50610ea861208d565b610eb06120de565b610eb861213f565b8015610ed95760008060016101000a81548160ff0219169083151502179055505b50565b610ee461194e565b73ffffffffffffffffffffffffffffffffffffffff16610f02610f62565b73ffffffffffffffffffffffffffffffffffffffff1614610f58576040517f08c379a0000000000000000000000000000000000000000000000000000000008152600401610f4f90614841565b60405180910390fd5b610f606121a0565b565b6000606560009054906101000a900473ffffffffffffffffffffffffffffffffffffffff16905090565b6000825167ffffffffffffffff811115610fa957610fa861390c565b5b604051908082528060200260200182016040528015610fd75781602001602082028036833780820191505090505b50905060005b83518110156112a457838181518110610ff957610ff86148f3565b5b602002602001015173ffffffffffffffffffffffffffffffffffffffff166301ffc9a77f5b5e139f000000000000000000000000000000000000000000000000000000006040518263ffffffff1660e01b81526004016110599190614a3b565b60206040518083038186803b15801561107157600080fd5b505afa158015611085573d6000803e3d6000fd5b505050506040513d601f19601f820116820180604052508101906110a99190614a6b565b6110e8576040517f08c379a00000000000000000000000000000000000000000000000000000000081526004016110df90614b0a565b60405180910390fd5b8381815181106110fb576110fa6148f3565b5b602002602001015173ffffffffffffffffffffffffffffffffffffffff16636352211e848381518110611131576111306148f3565b5b60200260200101516040518263ffffffff1660e01b815260040161115591906136cb565b60206040518083038186803b15801561116d57600080fd5b505afa158015611181573d6000803e3d6000fd5b505050506040513d601f19601f820116820180604052508101906111a59190614b3f565b73ffffffffffffffffffffffffffffffffffffffff163373ffffffffffffffffffffffffffffffffffffffff1614611212576040517f08c379a000000000000000000000000000000000000000000000000000000000815260040161120990614bde565b60405180910390fd5b838181518110611225576112246148f3565b5b60200260200101518382815181106112405761123f6148f3565b5b60200260200101516040516020016112599291906145d9565b6040516020818303038152906040528051906020012060001c828281518110611285576112846148f3565b5b602002602001018181525050808061129c90614951565b915050610fdd565b506112b28582868686612243565b6112ba610f62565b73ffffffffffffffffffffffffffffffffffffffff166108fc349081150290604051600060405180830381858888f193505050501580156112ff573d6000803e3d6000fd5b505050505050565b61131961131261194e565b8383612388565b5050565b8173ffffffffffffffffffffffffffffffffffffffff166301ffc9a77f5b5e139f000000000000000000000000000000000000000000000000000000006040518263ffffffff1660e01b81526004016113769190614a3b565b60206040518083038186803b15801561138e57600080fd5b505afa1580156113a2573d6000803e3d6000fd5b505050506040513d601f19601f820116820180604052508101906113c69190614a6b565b611405576040517f08c379a00000000000000000000000000000000000000000000000000000000081526004016113fc90614b0a565b60405180910390fd5b8173ffffffffffffffffffffffffffffffffffffffff16636352211e826040518263ffffffff1660e01b815260040161143e91906136cb565b60206040518083038186803b15801561145657600080fd5b505afa15801561146a573d6000803e3d6000fd5b505050506040513d601f19601f8201168201806040525081019061148e9190614b3f565b73ffffffffffffffffffffffffffffffffffffffff163373ffffffffffffffffffffffffffffffffffffffff16146114fb576040517f08c379a00000000000000000000000000000000000000000000000000000000081526004016114f290614bde565b60405180910390fd5b6115338483836040516020016115129291906145d9565b6040516020818303038152906040528051906020012060001c8585856124f5565b61153b610f62565b73ffffffffffffffffffffffffffffffffffffffff166108fc349081150290604051600060405180830381858888f19350505050158015611580573d6000803e3d6000fd5b5050505050565b61158f61194e565b73ffffffffffffffffffffffffffffffffffffffff166115ad610f62565b73ffffffffffffffffffffffffffffffffffffffff1614611603576040517f08c379a00000000000000000000000000000000000000000000000000000000081526004016115fa90614841565b60405180910390fd5b6116178461161185856107ac565b8361257e565b50505050565b61162561194e565b73ffffffffffffffffffffffffffffffffffffffff16611643610f62565b73ffffffffffffffffffffffffffffffffffffffff1614611699576040517f08c379a000000000000000000000000000000000000000000000000000000000815260040161169090614841565b60405180910390fd5b8060fe90805190602001906116af929190613531565b5050565b600060fd60008473ffffffffffffffffffffffffffffffffffffffff1673ffffffffffffffffffffffffffffffffffffffff168152602001908152602001600020600083815260200190815260200160002054905092915050565b600060fc60008473ffffffffffffffffffffffffffffffffffffffff1673ffffffffffffffffffffffffffffffffffffffff16815260200190815260200160002060008373ffffffffffffffffffffffffffffffffffffffff1673ffffffffffffffffffffffffffffffffffffffff16815260200190815260200160002060009054906101000a900460ff16905092915050565b6117aa61194e565b73ffffffffffffffffffffffffffffffffffffffff168573ffffffffffffffffffffffffffffffffffffffff1614806117f057506117ef856117ea61194e565b61170e565b5b61182f576040517f08c379a000000000000000000000000000000000000000000000000000000000815260040161182690614c70565b60405180910390fd5b61183c858585858561279d565b5050505050565b61184b61194e565b73ffffffffffffffffffffffffffffffffffffffff16611869610f62565b73ffffffffffffffffffffffffffffffffffffffff16146118bf576040517f08c379a00000000000000000000000000000000000000000000000000000000081526004016118b690614841565b60405180910390fd5b600073ffffffffffffffffffffffffffffffffffffffff168173ffffffffffffffffffffffffffffffffffffffff16141561192f576040517f08c379a000000000000000000000000000000000000000000000000000000000815260040161192690614d02565b60405180910390fd5b61193881611fb6565b50565b600080823b905060008111915050919050565b600033905090565b815183511461199a576040517f08c379a000000000000000000000000000000000000000000000000000000000815260040161199190614d94565b60405180910390fd5b600073ffffffffffffffffffffffffffffffffffffffff168473ffffffffffffffffffffffffffffffffffffffff161415611a0a576040517f08c379a0000000000000000000000000000000000000000000000000000000008152600401611a0190614e26565b60405180910390fd5b6000611a1461194e565b9050611a24818787878787612a22565b60005b8451811015611bd8576000858281518110611a4557611a446148f3565b5b602002602001015190506000858381518110611a6457611a636148f3565b5b60200260200101519050600060fb600084815260200190815260200160002060008b73ffffffffffffffffffffffffffffffffffffffff1673ffffffffffffffffffffffffffffffffffffffff16815260200190815260200160002054905081811015611b06576040517f08c379a0000000000000000000000000000000000000000000000000000000008152600401611afd90614eb8565b60405180910390fd5b81810360fb600085815260200190815260200160002060008c73ffffffffffffffffffffffffffffffffffffffff1673ffffffffffffffffffffffffffffffffffffffff168152602001908152602001600020819055508160fb600085815260200190815260200160002060008b73ffffffffffffffffffffffffffffffffffffffff1673ffffffffffffffffffffffffffffffffffffffff1681526020019081526020016000206000828254611bbd9190614ed8565b9250508190555050505080611bd190614951565b9050611a27565b508473ffffffffffffffffffffffffffffffffffffffff168673ffffffffffffffffffffffffffffffffffffffff168273ffffffffffffffffffffffffffffffffffffffff167f4a39dc06d4c0dbc64b70af90fd698a233a518aa5d07e595d983b8c0526c8f7fb8787604051611c4f929190614f2e565b60405180910390a4611c65818787878787612a2a565b505050505050565b6000611c9b7f360894a13ba1a3210667c828492db98dca3e2076cc3735a920a3ca505d382bbc60001b612c11565b60000160009054906101000a900473ffffffffffffffffffffffffffffffffffffffff16905090565b611ccc61194e565b73ffffffffffffffffffffffffffffffffffffffff16611cea610f62565b73ffffffffffffffffffffffffffffffffffffffff1614611d40576040517f08c379a0000000000000000000000000000000000000000000000000000000008152600401611d3790614841565b60405180910390fd5b50565b6000611d4d611c6d565b9050611d5884612c1b565b600083511180611d655750815b15611d7657611d748484612cd4565b505b6000611da47f4910fdfa16fed3260ed0e7147f7cc6da11a60208b5b9406d12a635614ffd914360001b612db8565b90508060000160009054906101000a900460ff16611f0d5760018160000160006101000a81548160ff021916908315150217905550611e708583604051602401611dee9190613e86565b6040516020818303038152906040527f3659cfe6000000000000000000000000000000000000000000000000000000007bffffffffffffffffffffffffffffffffffffffffffffffffffffffff19166020820180517bffffffffffffffffffffffffffffffffffffffffffffffffffffffff8381831617835250505050612cd4565b5060008160000160006101000a81548160ff021916908315150217905550611e96611c6d565b73ffffffffffffffffffffffffffffffffffffffff168273ffffffffffffffffffffffffffffffffffffffff1614611f03576040517f08c379a0000000000000000000000000000000000000000000000000000000008152600401611efa90614fd7565b60405180910390fd5b611f0c85612dc2565b5b5050505050565b611f1c610d12565b611f5b576040517f08c379a0000000000000000000000000000000000000000000000000000000008152600401611f5290615043565b60405180910390fd5b6000603360006101000a81548160ff0219169083151502179055507f5db9ee0a495bf2e6ff9c91a7834c1ba4fdd244a5e8aa4e537bd38aeae4b073aa611f9f61194e565b604051611fac9190613e86565b60405180910390a1565b6000606560009054906101000a900473ffffffffffffffffffffffffffffffffffffffff16905081606560006101000a81548173ffffffffffffffffffffffffffffffffffffffff021916908373ffffffffffffffffffffffffffffffffffffffff1602179055508173ffffffffffffffffffffffffffffffffffffffff168173ffffffffffffffffffffffffffffffffffffffff167f8be0079c531659141344cd1fd0a4f28419497f9722a3daafe3b4186f6b6457e060405160405180910390a35050565b60006120873061193b565b15905090565b600060019054906101000a900460ff166120dc576040517f08c379a00000000000000000000000000000000000000000000000000000000081526004016120d3906150d5565b60405180910390fd5b565b600060019054906101000a900460ff1661212d576040517f08c379a0000000000000000000000000000000000000000000000000000000008152600401612124906150d5565b60405180910390fd5b61213d61213861194e565b611fb6565b565b600060019054906101000a900460ff1661218e576040517f08c379a0000000000000000000000000000000000000000000000000000000008152600401612185906150d5565b60405180910390fd5b612196612e11565b61219e612e62565b565b6121a8610d12565b156121e8576040517f08c379a00000000000000000000000000000000000000000000000000000000081526004016121df90615141565b60405180910390fd5b6001603360006101000a81548160ff0219169083151502179055507f62e78cea01bee320cd4e420270b5ea74000d11b0c9f74754ebdbfc544b05a25861222c61194e565b6040516122399190613e86565b60405180910390a1565b61225e85858560405180602001604052806000815250612eb3565b60005b84518110156123325783818151811061227d5761227c6148f3565b5b602002602001015160fd600085848151811061229c5761229b6148f3565b5b602002602001015173ffffffffffffffffffffffffffffffffffffffff1673ffffffffffffffffffffffffffffffffffffffff16815260200190815260200160002060008484815181106122f3576122f26148f3565b5b6020026020010151815260200190815260200160002060008282546123189190614ed8565b92505081905550808061232a90614951565b915050612261565b5061233b610f62565b73ffffffffffffffffffffffffffffffffffffffff166108fc349081150290604051600060405180830381858888f19350505050158015612380573d6000803e3d6000fd5b505050505050565b8173ffffffffffffffffffffffffffffffffffffffff168373ffffffffffffffffffffffffffffffffffffffff1614156123f7576040517f08c379a00000000000000000000000000000000000000000000000000000000081526004016123ee906151d3565b60405180910390fd5b8060fc60008573ffffffffffffffffffffffffffffffffffffffff1673ffffffffffffffffffffffffffffffffffffffff16815260200190815260200160002060008473ffffffffffffffffffffffffffffffffffffffff1673ffffffffffffffffffffffffffffffffffffffff16815260200190815260200160002060006101000a81548160ff0219169083151502179055508173ffffffffffffffffffffffffffffffffffffffff168373ffffffffffffffffffffffffffffffffffffffff167f17307eab39ab6107e8899845ad3d59bd9653f200f220920489ca2b5937696c31836040516124e89190613786565b60405180910390a3505050565b612510858585604051806020016040528060008152506130d2565b8260fd60008473ffffffffffffffffffffffffffffffffffffffff1673ffffffffffffffffffffffffffffffffffffffff168152602001908152602001600020600083815260200190815260200160002060008282546125709190614ed8565b925050819055505050505050565b600073ffffffffffffffffffffffffffffffffffffffff168373ffffffffffffffffffffffffffffffffffffffff1614156125ee576040517f08c379a00000000000000000000000000000000000000000000000000000000081526004016125e590615265565b60405180910390fd5b60006125f861194e565b90506126288185600061260a87613269565b61261387613269565b60405180602001604052806000815250612a22565b600060fb600085815260200190815260200160002060008673ffffffffffffffffffffffffffffffffffffffff1673ffffffffffffffffffffffffffffffffffffffff168152602001908152602001600020549050828110156126c0576040517f08c379a00000000000000000000000000000000000000000000000000000000081526004016126b7906152f7565b60405180910390fd5b82810360fb600086815260200190815260200160002060008773ffffffffffffffffffffffffffffffffffffffff1673ffffffffffffffffffffffffffffffffffffffff16815260200190815260200160002081905550600073ffffffffffffffffffffffffffffffffffffffff168573ffffffffffffffffffffffffffffffffffffffff168373ffffffffffffffffffffffffffffffffffffffff167fc3d58168c5ae7397731d063d5bbf3d657854427343f4c083240f7aacaa2d0f62878760405161278e929190615317565b60405180910390a45050505050565b600073ffffffffffffffffffffffffffffffffffffffff168473ffffffffffffffffffffffffffffffffffffffff16141561280d576040517f08c379a000000000000000000000000000000000000000000000000000000000815260040161280490614e26565b60405180910390fd5b600061281761194e565b905061283781878761282888613269565b61283188613269565b87612a22565b600060fb600086815260200190815260200160002060008873ffffffffffffffffffffffffffffffffffffffff1673ffffffffffffffffffffffffffffffffffffffff168152602001908152602001600020549050838110156128cf576040517f08c379a00000000000000000000000000000000000000000000000000000000081526004016128c690614eb8565b60405180910390fd5b83810360fb600087815260200190815260200160002060008973ffffffffffffffffffffffffffffffffffffffff1673ffffffffffffffffffffffffffffffffffffffff168152602001908152602001600020819055508360fb600087815260200190815260200160002060008873ffffffffffffffffffffffffffffffffffffffff1673ffffffffffffffffffffffffffffffffffffffff16815260200190815260200160002060008282546129869190614ed8565b925050819055508573ffffffffffffffffffffffffffffffffffffffff168773ffffffffffffffffffffffffffffffffffffffff168373ffffffffffffffffffffffffffffffffffffffff167fc3d58168c5ae7397731d063d5bbf3d657854427343f4c083240f7aacaa2d0f628888604051612a03929190615317565b60405180910390a4612a198288888888886132e3565b50505050505050565b505050505050565b612a498473ffffffffffffffffffffffffffffffffffffffff1661193b565b15612c09578373ffffffffffffffffffffffffffffffffffffffff1663bc197c8187878686866040518663ffffffff1660e01b8152600401612a8f959493929190615395565b602060405180830381600087803b158015612aa957600080fd5b505af1925050508015612ada57506040513d601f19601f82011682018060405250810190612ad79190615412565b60015b612b8057612ae661544c565b806308c379a01415612b435750612afb61546e565b80612b065750612b45565b806040517f08c379a0000000000000000000000000000000000000000000000000000000008152600401612b3a9190613867565b60405180910390fd5b505b6040517f08c379a0000000000000000000000000000000000000000000000000000000008152600401612b7790615576565b60405180910390fd5b63bc197c8160e01b7bffffffffffffffffffffffffffffffffffffffffffffffffffffffff1916817bffffffffffffffffffffffffffffffffffffffffffffffffffffffff191614612c07576040517f08c379a0000000000000000000000000000000000000000000000000000000008152600401612bfe90615608565b60405180910390fd5b505b505050505050565b6000819050919050565b612c248161193b565b612c63576040517f08c379a0000000000000000000000000000000000000000000000000000000008152600401612c5a9061569a565b60405180910390fd5b80612c907f360894a13ba1a3210667c828492db98dca3e2076cc3735a920a3ca505d382bbc60001b612c11565b60000160006101000a81548173ffffffffffffffffffffffffffffffffffffffff021916908373ffffffffffffffffffffffffffffffffffffffff16021790555050565b6060612cdf8361193b565b612d1e576040517f08c379a0000000000000000000000000000000000000000000000000000000008152600401612d159061572c565b60405180910390fd5b6000808473ffffffffffffffffffffffffffffffffffffffff1684604051612d469190615788565b600060405180830381855af49150503d8060008114612d81576040519150601f19603f3d011682016040523d82523d6000602084013e612d86565b606091505b5091509150612dae828260405180606001604052806027815260200161588c602791396134ca565b9250505092915050565b6000819050919050565b612dcb81612c1b565b8073ffffffffffffffffffffffffffffffffffffffff167fbc7cd75a20ee27fd9adebab32041f755214dbc6bffa90cc0225b39da2e5c2d3b60405160405180910390a250565b600060019054906101000a900460ff16612e60576040517f08c379a0000000000000000000000000000000000000000000000000000000008152600401612e57906150d5565b60405180910390fd5b565b600060019054906101000a900460ff16612eb1576040517f08c379a0000000000000000000000000000000000000000000000000000000008152600401612ea8906150d5565b60405180910390fd5b565b600073ffffffffffffffffffffffffffffffffffffffff168473ffffffffffffffffffffffffffffffffffffffff161415612f23576040517f08c379a0000000000000000000000000000000000000000000000000000000008152600401612f1a90615811565b60405180910390fd5b8151835114612f67576040517f08c379a0000000000000000000000000000000000000000000000000000000008152600401612f5e90614d94565b60405180910390fd5b6000612f7161194e565b9050612f8281600087878787612a22565b60005b845181101561303c57838181518110612fa157612fa06148f3565b5b602002602001015160fb6000878481518110612fc057612fbf6148f3565b5b6020026020010151815260200190815260200160002060008873ffffffffffffffffffffffffffffffffffffffff1673ffffffffffffffffffffffffffffffffffffffff16815260200190815260200160002060008282546130229190614ed8565b92505081905550808061303490614951565b915050612f85565b508473ffffffffffffffffffffffffffffffffffffffff16600073ffffffffffffffffffffffffffffffffffffffff168273ffffffffffffffffffffffffffffffffffffffff167f4a39dc06d4c0dbc64b70af90fd698a233a518aa5d07e595d983b8c0526c8f7fb87876040516130b4929190614f2e565b60405180910390a46130cb81600087878787612a2a565b5050505050565b600073ffffffffffffffffffffffffffffffffffffffff168473ffffffffffffffffffffffffffffffffffffffff161415613142576040517f08c379a000000000000000000000000000000000000000000000000000000000815260040161313990615811565b60405180910390fd5b600061314c61194e565b905061316d8160008761315e88613269565b61316788613269565b87612a22565b8260fb600086815260200190815260200160002060008773ffffffffffffffffffffffffffffffffffffffff1673ffffffffffffffffffffffffffffffffffffffff16815260200190815260200160002060008282546131cd9190614ed8565b925050819055508473ffffffffffffffffffffffffffffffffffffffff16600073ffffffffffffffffffffffffffffffffffffffff168273ffffffffffffffffffffffffffffffffffffffff167fc3d58168c5ae7397731d063d5bbf3d657854427343f4c083240f7aacaa2d0f62878760405161324b929190615317565b60405180910390a4613262816000878787876132e3565b5050505050565b60606000600167ffffffffffffffff8111156132885761328761390c565b5b6040519080825280602002602001820160405280156132b65781602001602082028036833780820191505090505b50905082816000815181106132ce576132cd6148f3565b5b60200260200101818152505080915050919050565b6133028473ffffffffffffffffffffffffffffffffffffffff1661193b565b156134c2578373ffffffffffffffffffffffffffffffffffffffff1663f23a6e6187878686866040518663ffffffff1660e01b8152600401613348959493929190615831565b602060405180830381600087803b15801561336257600080fd5b505af192505050801561339357506040513d601f19601f820116820180604052508101906133909190615412565b60015b6134395761339f61544c565b806308c379a014156133fc57506133b461546e565b806133bf57506133fe565b806040517f08c379a00000000000000000000000000000000000000000000000000000000081526004016133f39190613867565b60405180910390fd5b505b6040517f08c379a000000000000000000000000000000000000000000000000000000000815260040161343090615576565b60405180910390fd5b63f23a6e6160e01b7bffffffffffffffffffffffffffffffffffffffffffffffffffffffff1916817bffffffffffffffffffffffffffffffffffffffffffffffffffffffff1916146134c0576040517f08c379a00000000000000000000000000000000000000000000000000000000081526004016134b790615608565b60405180910390fd5b505b505050505050565b606083156134da5782905061352a565b6000835111156134ed5782518084602001fd5b816040517f08c379a00000000000000000000000000000000000000000000000000000000081526004016135219190613867565b60405180910390fd5b9392505050565b82805461353d906143db565b90600052602060002090601f01602090048101928261355f57600085556135a6565b82601f1061357857805160ff19168380011785556135a6565b828001600101855582156135a6579182015b828111156135a557825182559160200191906001019061358a565b5b5090506135b391906135b7565b5090565b5b808211156135d05760008160009055506001016135b8565b5090565b6000604051905090565b600080fd5b600080fd5b600073ffffffffffffffffffffffffffffffffffffffff82169050919050565b6000613613826135e8565b9050919050565b61362381613608565b811461362e57600080fd5b50565b6000813590506136408161361a565b92915050565b6000819050919050565b61365981613646565b811461366457600080fd5b50565b60008135905061367681613650565b92915050565b60008060408385031215613693576136926135de565b5b60006136a185828601613631565b92505060206136b285828601613667565b9150509250929050565b6136c581613646565b82525050565b60006020820190506136e060008301846136bc565b92915050565b60007fffffffff0000000000000000000000000000000000000000000000000000000082169050919050565b61371b816136e6565b811461372657600080fd5b50565b60008135905061373881613712565b92915050565b600060208284031215613754576137536135de565b5b600061376284828501613729565b91505092915050565b60008115159050919050565b6137808161376b565b82525050565b600060208201905061379b6000830184613777565b92915050565b6000602082840312156137b7576137b66135de565b5b60006137c584828501613667565b91505092915050565b600081519050919050565b600082825260208201905092915050565b60005b838110156138085780820151818401526020810190506137ed565b83811115613817576000848401525b50505050565b6000601f19601f8301169050919050565b6000613839826137ce565b61384381856137d9565b93506138538185602086016137ea565b61385c8161381d565b840191505092915050565b60006020820190508181036000830152613881818461382e565b905092915050565b600061389482613608565b9050919050565b6138a481613889565b81146138af57600080fd5b50565b6000813590506138c18161389b565b92915050565b600080604083850312156138de576138dd6135de565b5b60006138ec858286016138b2565b92505060206138fd85828601613667565b9150509250929050565b600080fd5b7f4e487b7100000000000000000000000000000000000000000000000000000000600052604160045260246000fd5b6139448261381d565b810181811067ffffffffffffffff821117156139635761396261390c565b5b80604052505050565b60006139766135d4565b9050613982828261393b565b919050565b600067ffffffffffffffff8211156139a2576139a161390c565b5b602082029050602081019050919050565b600080fd5b60006139cb6139c684613987565b61396c565b905080838252602082019050602084028301858111156139ee576139ed6139b3565b5b835b81811015613a175780613a038882613667565b8452602084019350506020810190506139f0565b5050509392505050565b600082601f830112613a3657613a35613907565b5b8135613a468482602086016139b8565b91505092915050565b600080fd5b600067ffffffffffffffff821115613a6f57613a6e61390c565b5b613a788261381d565b9050602081019050919050565b82818337600083830152505050565b6000613aa7613aa284613a54565b61396c565b905082815260208101848484011115613ac357613ac2613a4f565b5b613ace848285613a85565b509392505050565b600082601f830112613aeb57613aea613907565b5b8135613afb848260208601613a94565b91505092915050565b600080600080600060a08688031215613b2057613b1f6135de565b5b6000613b2e88828901613631565b9550506020613b3f88828901613631565b945050604086013567ffffffffffffffff811115613b6057613b5f6135e3565b5b613b6c88828901613a21565b935050606086013567ffffffffffffffff811115613b8d57613b8c6135e3565b5b613b9988828901613a21565b925050608086013567ffffffffffffffff811115613bba57613bb96135e3565b5b613bc688828901613ad6565b9150509295509295909350565b600060208284031215613be957613be86135de565b5b6000613bf784828501613631565b91505092915050565b600067ffffffffffffffff821115613c1b57613c1a61390c565b5b602082029050602081019050919050565b6000613c3f613c3a84613c00565b61396c565b90508083825260208201905060208402830185811115613c6257613c616139b3565b5b835b81811015613c8b5780613c778882613631565b845260208401935050602081019050613c64565b5050509392505050565b600082601f830112613caa57613ca9613907565b5b8135613cba848260208601613c2c565b91505092915050565b60008060408385031215613cda57613cd96135de565b5b600083013567ffffffffffffffff811115613cf857613cf76135e3565b5b613d0485828601613c95565b925050602083013567ffffffffffffffff811115613d2557613d246135e3565b5b613d3185828601613a21565b9150509250929050565b600081519050919050565b600082825260208201905092915050565b6000819050602082019050919050565b613d7081613646565b82525050565b6000613d828383613d67565b60208301905092915050565b6000602082019050919050565b6000613da682613d3b565b613db08185613d46565b9350613dbb83613d57565b8060005b83811015613dec578151613dd38882613d76565b9750613dde83613d8e565b925050600181019050613dbf565b5085935050505092915050565b60006020820190508181036000830152613e138184613d9b565b905092915050565b60008060408385031215613e3257613e316135de565b5b6000613e4085828601613631565b925050602083013567ffffffffffffffff811115613e6157613e606135e3565b5b613e6d85828601613ad6565b9150509250929050565b613e8081613608565b82525050565b6000602082019050613e9b6000830184613e77565b92915050565b600067ffffffffffffffff821115613ebc57613ebb61390c565b5b602082029050602081019050919050565b6000613ee0613edb84613ea1565b61396c565b90508083825260208201905060208402830185811115613f0357613f026139b3565b5b835b81811015613f2c5780613f1888826138b2565b845260208401935050602081019050613f05565b5050509392505050565b600082601f830112613f4b57613f4a613907565b5b8135613f5b848260208601613ecd565b91505092915050565b60008060008060808587031215613f7e57613f7d6135de565b5b6000613f8c87828801613631565b945050602085013567ffffffffffffffff811115613fad57613fac6135e3565b5b613fb987828801613a21565b935050604085013567ffffffffffffffff811115613fda57613fd96135e3565b5b613fe687828801613f36565b925050606085013567ffffffffffffffff811115614007576140066135e3565b5b61401387828801613a21565b91505092959194509250565b6140288161376b565b811461403357600080fd5b50565b6000813590506140458161401f565b92915050565b60008060408385031215614062576140616135de565b5b600061407085828601613631565b925050602061408185828601614036565b9150509250929050565b600080600080608085870312156140a5576140a46135de565b5b60006140b387828801613631565b94505060206140c487828801613667565b93505060406140d5878288016138b2565b92505060606140e687828801613667565b91505092959194509250565b6000806000806080858703121561410c5761410b6135de565b5b600061411a87828801613631565b945050602061412b878288016138b2565b935050604061413c87828801613667565b925050606061414d87828801613667565b91505092959194509250565b600067ffffffffffffffff8211156141745761417361390c565b5b61417d8261381d565b9050602081019050919050565b600061419d61419884614159565b61396c565b9050828152602081018484840111156141b9576141b8613a4f565b5b6141c4848285613a85565b509392505050565b600082601f8301126141e1576141e0613907565b5b81356141f184826020860161418a565b91505092915050565b6000602082840312156142105761420f6135de565b5b600082013567ffffffffffffffff81111561422e5761422d6135e3565b5b61423a848285016141cc565b91505092915050565b6000806040838503121561425a576142596135de565b5b600061426885828601613631565b925050602061427985828601613631565b9150509250929050565b600080600080600060a0868803121561429f5761429e6135de565b5b60006142ad88828901613631565b95505060206142be88828901613631565b94505060406142cf88828901613667565b93505060606142e088828901613667565b925050608086013567ffffffffffffffff811115614301576143006135e3565b5b61430d88828901613ad6565b9150509295509295909350565b7f455243313135353a2062616c616e636520717565727920666f7220746865207a60008201527f65726f2061646472657373000000000000000000000000000000000000000000602082015250565b6000614376602b836137d9565b91506143818261431a565b604082019050919050565b600060208201905081810360008301526143a581614369565b9050919050565b7f4e487b7100000000000000000000000000000000000000000000000000000000600052602260045260246000fd5b600060028204905060018216806143f357607f821691505b60208210811415614407576144066143ac565b5b50919050565b600081905092915050565b60008190508160005260206000209050919050565b6000815461443a816143db565b614444818661440d565b9450600182166000811461445f5760018114614470576144a3565b60ff198316865281860193506144a3565b61447985614418565b60005b8381101561449b5781548189015260018201915060208101905061447c565b838801955050505b50505092915050565b6000819050919050565b6144c76144c282613646565b6144ac565b82525050565b60006144d9828561442d565b91506144e582846144b6565b6020820191508190509392505050565b6000819050919050565b600061451a614515614510846135e8565b6144f5565b6135e8565b9050919050565b600061452c826144ff565b9050919050565b600061453e82614521565b9050919050565b60008160601b9050919050565b600061455d82614545565b9050919050565b600061456f82614552565b9050919050565b61458761458282614533565b614564565b82525050565b7f2f00000000000000000000000000000000000000000000000000000000000000600082015250565b60006145c360018361440d565b91506145ce8261458d565b600182019050919050565b60006145e58285614576565b6014820191506145f4826145b6565b915061460082846144b6565b6020820191508190509392505050565b7f4e487b7100000000000000000000000000000000000000000000000000000000600052600160045260246000fd5b7f455243313135353a207472616e736665722063616c6c6572206973206e6f742060008201527f6f776e6572206e6f7220617070726f7665640000000000000000000000000000602082015250565b600061469b6032836137d9565b91506146a68261463f565b604082019050919050565b600060208201905081810360008301526146ca8161468e565b9050919050565b7f46756e6374696f6e206d7573742062652063616c6c6564207468726f7567682060008201527f64656c656761746563616c6c0000000000000000000000000000000000000000602082015250565b600061472d602c836137d9565b9150614738826146d1565b604082019050919050565b6000602082019050818103600083015261475c81614720565b9050919050565b7f46756e6374696f6e206d7573742062652063616c6c6564207468726f7567682060008201527f6163746976652070726f78790000000000000000000000000000000000000000602082015250565b60006147bf602c836137d9565b91506147ca82614763565b604082019050919050565b600060208201905081810360008301526147ee816147b2565b9050919050565b7f4f776e61626c653a2063616c6c6572206973206e6f7420746865206f776e6572600082015250565b600061482b6020836137d9565b9150614836826147f5565b602082019050919050565b6000602082019050818103600083015261485a8161481e565b9050919050565b7f455243313135353a206163636f756e747320616e6420696473206c656e67746860008201527f206d69736d617463680000000000000000000000000000000000000000000000602082015250565b60006148bd6029836137d9565b91506148c882614861565b604082019050919050565b600060208201905081810360008301526148ec816148b0565b9050919050565b7f4e487b7100000000000000000000000000000000000000000000000000000000600052603260045260246000fd5b7f4e487b7100000000000000000000000000000000000000000000000000000000600052601160045260246000fd5b600061495c82613646565b91507fffffffffffffffffffffffffffffffffffffffffffffffffffffffffffffffff82141561498f5761498e614922565b5b600182019050919050565b7f496e697469616c697a61626c653a20636f6e747261637420697320616c72656160008201527f647920696e697469616c697a6564000000000000000000000000000000000000602082015250565b60006149f6602e836137d9565b9150614a018261499a565b604082019050919050565b60006020820190508181036000830152614a25816149e9565b9050919050565b614a35816136e6565b82525050565b6000602082019050614a506000830184614a2c565b92915050565b600081519050614a658161401f565b92915050565b600060208284031215614a8157614a806135de565b5b6000614a8f84828501614a56565b91505092915050565b7f44657269766174697665546f656b6e3a205468697320636f6e7472616374206460008201527f6f6573206e6f7420737570706f727420455243373231204d6574616461746100602082015250565b6000614af4603f836137d9565b9150614aff82614a98565b604082019050919050565b60006020820190508181036000830152614b2381614ae7565b9050919050565b600081519050614b398161361a565b92915050565b600060208284031215614b5557614b546135de565b5b6000614b6384828501614b2a565b91505092915050565b7f44657269766174697665546f656b6e3a2063616c6c6572206973206e6f74207460008201527f686520746f6b656e206f776e6572000000000000000000000000000000000000602082015250565b6000614bc8602e836137d9565b9150614bd382614b6c565b604082019050919050565b60006020820190508181036000830152614bf781614bbb565b9050919050565b7f455243313135353a2063616c6c6572206973206e6f74206f776e6572206e6f7260008201527f20617070726f7665640000000000000000000000000000000000000000000000602082015250565b6000614c5a6029836137d9565b9150614c6582614bfe565b604082019050919050565b60006020820190508181036000830152614c8981614c4d565b9050919050565b7f4f776e61626c653a206e6577206f776e657220697320746865207a65726f206160008201527f6464726573730000000000000000000000000000000000000000000000000000602082015250565b6000614cec6026836137d9565b9150614cf782614c90565b604082019050919050565b60006020820190508181036000830152614d1b81614cdf565b9050919050565b7f455243313135353a2069647320616e6420616d6f756e7473206c656e6774682060008201527f6d69736d61746368000000000000000000000000000000000000000000000000602082015250565b6000614d7e6028836137d9565b9150614d8982614d22565b604082019050919050565b60006020820190508181036000830152614dad81614d71565b9050919050565b7f455243313135353a207472616e7366657220746f20746865207a65726f20616460008201527f6472657373000000000000000000000000000000000000000000000000000000602082015250565b6000614e106025836137d9565b9150614e1b82614db4565b604082019050919050565b60006020820190508181036000830152614e3f81614e03565b9050919050565b7f455243313135353a20696e73756666696369656e742062616c616e636520666f60008201527f72207472616e7366657200000000000000000000000000000000000000000000602082015250565b6000614ea2602a836137d9565b9150614ead82614e46565b604082019050919050565b60006020820190508181036000830152614ed181614e95565b9050919050565b6000614ee382613646565b9150614eee83613646565b9250827fffffffffffffffffffffffffffffffffffffffffffffffffffffffffffffffff03821115614f2357614f22614922565b5b828201905092915050565b60006040820190508181036000830152614f488185613d9b565b90508181036020830152614f5c8184613d9b565b90509392505050565b7f45524331393637557067726164653a207570677261646520627265616b73206660008201527f7572746865722075706772616465730000000000000000000000000000000000602082015250565b6000614fc1602f836137d9565b9150614fcc82614f65565b604082019050919050565b60006020820190508181036000830152614ff081614fb4565b9050919050565b7f5061757361626c653a206e6f7420706175736564000000000000000000000000600082015250565b600061502d6014836137d9565b915061503882614ff7565b602082019050919050565b6000602082019050818103600083015261505c81615020565b9050919050565b7f496e697469616c697a61626c653a20636f6e7472616374206973206e6f74206960008201527f6e697469616c697a696e67000000000000000000000000000000000000000000602082015250565b60006150bf602b836137d9565b91506150ca82615063565b604082019050919050565b600060208201905081810360008301526150ee816150b2565b9050919050565b7f5061757361626c653a2070617573656400000000000000000000000000000000600082015250565b600061512b6010836137d9565b9150615136826150f5565b602082019050919050565b6000602082019050818103600083015261515a8161511e565b9050919050565b7f455243313135353a2073657474696e6720617070726f76616c2073746174757360008201527f20666f722073656c660000000000000000000000000000000000000000000000602082015250565b60006151bd6029836137d9565b91506151c882615161565b604082019050919050565b600060208201905081810360008301526151ec816151b0565b9050919050565b7f455243313135353a206275726e2066726f6d20746865207a65726f206164647260008201527f6573730000000000000000000000000000000000000000000000000000000000602082015250565b600061524f6023836137d9565b915061525a826151f3565b604082019050919050565b6000602082019050818103600083015261527e81615242565b9050919050565b7f455243313135353a206275726e20616d6f756e7420657863656564732062616c60008201527f616e636500000000000000000000000000000000000000000000000000000000602082015250565b60006152e16024836137d9565b91506152ec82615285565b604082019050919050565b60006020820190508181036000830152615310816152d4565b9050919050565b600060408201905061532c60008301856136bc565b61533960208301846136bc565b9392505050565b600081519050919050565b600082825260208201905092915050565b600061536782615340565b615371818561534b565b93506153818185602086016137ea565b61538a8161381d565b840191505092915050565b600060a0820190506153aa6000830188613e77565b6153b76020830187613e77565b81810360408301526153c98186613d9b565b905081810360608301526153dd8185613d9b565b905081810360808301526153f1818461535c565b90509695505050505050565b60008151905061540c81613712565b92915050565b600060208284031215615428576154276135de565b5b6000615436848285016153fd565b91505092915050565b60008160e01c9050919050565b600060033d111561546b5760046000803e61546860005161543f565b90505b90565b600060443d101561547e57615501565b6154866135d4565b60043d036004823e80513d602482011167ffffffffffffffff821117156154ae575050615501565b808201805167ffffffffffffffff8111156154cc5750505050615501565b80602083010160043d0385018111156154e9575050505050615501565b6154f88260200185018661393b565b82955050505050505b90565b7f455243313135353a207472616e7366657220746f206e6f6e204552433131353560008201527f526563656976657220696d706c656d656e746572000000000000000000000000602082015250565b60006155606034836137d9565b915061556b82615504565b604082019050919050565b6000602082019050818103600083015261558f81615553565b9050919050565b7f455243313135353a204552433131353552656365697665722072656a6563746560008201527f6420746f6b656e73000000000000000000000000000000000000000000000000602082015250565b60006155f26028836137d9565b91506155fd82615596565b604082019050919050565b60006020820190508181036000830152615621816155e5565b9050919050565b7f455243313936373a206e657720696d706c656d656e746174696f6e206973206e60008201527f6f74206120636f6e747261637400000000000000000000000000000000000000602082015250565b6000615684602d836137d9565b915061568f82615628565b604082019050919050565b600060208201905081810360008301526156b381615677565b9050919050565b7f416464726573733a2064656c65676174652063616c6c20746f206e6f6e2d636f60008201527f6e74726163740000000000000000000000000000000000000000000000000000602082015250565b60006157166026836137d9565b9150615721826156ba565b604082019050919050565b6000602082019050818103600083015261574581615709565b9050919050565b600081905092915050565b600061576282615340565b61576c818561574c565b935061577c8185602086016137ea565b80840191505092915050565b60006157948284615757565b915081905092915050565b7f455243313135353a206d696e7420746f20746865207a65726f2061646472657360008201527f7300000000000000000000000000000000000000000000000000000000000000602082015250565b60006157fb6021836137d9565b91506158068261579f565b604082019050919050565b6000602082019050818103600083015261582a816157ee565b9050919050565b600060a0820190506158466000830188613e77565b6158536020830187613e77565b61586060408301866136bc565b61586d60608301856136bc565b818103608083015261587f818461535c565b9050969550505050505056fe416464726573733a206c6f772d6c6576656c2064656c65676174652063616c6c206661696c656468747470733a2f2f746f6b656e2e617274616c617869652e6d6c2f7b69647d2e6a736f6ea26469706673582212207dba1f59656ee15eb12ee0fd46333a23815bbbd98141da037bc8dc62834aa2e964736f6c63430008090033",
  "immutableReferences": {
    "1051": [
      {
        "length": 32,
        "start": 2223
      },
      {
        "length": 32,
        "start": 2366
      },
      {
        "length": 32,
        "start": 3031
      },
      {
        "length": 32,
        "start": 3174
      }
    ]
  },
  "source": "// SPDX-License-Identifier: MIT\r\npragma solidity ^0.8.9;\r\n\r\nimport \"@openzeppelin/contracts-upgradeable/access/OwnableUpgradeable.sol\";\r\nimport \"@openzeppelin/contracts-upgradeable/proxy/utils/Initializable.sol\";\r\nimport \"@openzeppelin/contracts-upgradeable/proxy/utils/UUPSUpgradeable.sol\";\r\nimport \"@openzeppelin/contracts-upgradeable/token/ERC721/extensions/IERC721MetadataUpgradeable.sol\";\r\nimport \"@openzeppelin/contracts-upgradeable/token/ERC1155/IERC1155Upgradeable.sol\";\r\nimport \"@openzeppelin/contracts-upgradeable/token/ERC1155/extensions/IERC1155MetadataURIUpgradeable.sol\";\r\nimport \"@openzeppelin/contracts-upgradeable/token/ERC1155/IERC1155ReceiverUpgradeable.sol\";\r\nimport \"@openzeppelin/contracts-upgradeable/access/OwnableUpgradeable.sol\";\r\nimport \"@openzeppelin/contracts-upgradeable/security/PausableUpgradeable.sol\";\r\nimport \"@openzeppelin/contracts-upgradeable/utils/StringsUpgradeable.sol\";\r\n\r\ncontract TestnetDerivativeTokenV2 is\r\n    Initializable,\r\n    IERC1155Upgradeable,\r\n    IERC1155MetadataURIUpgradeable,\r\n    PausableUpgradeable,\r\n    OwnableUpgradeable,\r\n    UUPSUpgradeable\r\n{\r\n    using AddressUpgradeable for address;\r\n\r\n    // Mapping from token ID to account balances\r\n    mapping(uint256 => mapping(address => uint256)) private _balances;\r\n\r\n    // Mapping from account to operator approvals\r\n    mapping(address => mapping(address => bool)) private _operatorApprovals;\r\n\r\n    // Mapping from ERC721 contract address to origin token ID to total supply amount\r\n    mapping(IERC721MetadataUpgradeable => mapping(uint256 => uint256))\r\n        private _tokenAmounts;\r\n\r\n    // For defalut URI.\r\n    string private _defalutURI;\r\n\r\n    /// @custom:oz-upgrades-unsafe-allow constructor\r\n    constructor() initializer {}\r\n\r\n    function initialize() public initializer {\r\n        _defalutURI=\"https://token.artalaxie.ml/{id}.json\";\r\n        __Context_init_unchained();\r\n        __Ownable_init_unchained();\r\n        __UUPSUpgradeable_init();\r\n    }\r\n\r\n    // Get a derivative token id from ERC721 token\r\n    function getTokenId(\r\n        IERC721MetadataUpgradeable originContract,\r\n        uint256 originTokenId\r\n    ) public view returns (uint256) {\r\n        if (getAmount(originContract, originTokenId) > 0) {\r\n            return\r\n                uint256(\r\n                    keccak256(\r\n                        abi.encodePacked(originContract, \"/\", originTokenId)\r\n                    )\r\n                );\r\n        } else {\r\n            assert(false);\r\n            return 0;\r\n        }\r\n    }\r\n\r\n    \r\n    // Get amount for a token\r\n    function getAmount(\r\n        IERC721MetadataUpgradeable originContract,\r\n        uint256 originTokenId\r\n    ) public view returns (uint256) {\r\n        return _tokenAmounts[originContract][originTokenId];\r\n    }\r\n\r\n    // Mint a derivative token with amount for a ERC721 token\r\n    function safeMint(\r\n        address to,\r\n        uint256 amount,\r\n        IERC721MetadataUpgradeable originContract,\r\n        uint256 originTokenId\r\n    ) public payable {\r\n        require(\r\n            originContract.supportsInterface(\r\n                type(IERC721MetadataUpgradeable).interfaceId\r\n            ),\r\n            \"DerivativeToekn: This contract does not support ERC721 Metadata\"\r\n        );\r\n\r\n        require(\r\n            msg.sender == originContract.ownerOf(originTokenId),\r\n            \"DerivativeToekn: caller is not the token owner\"\r\n        );\r\n        _safeMint(\r\n            to,\r\n            uint256(\r\n                    keccak256(\r\n                        abi.encodePacked(originContract, \"/\", originTokenId)\r\n                    )\r\n                ),\r\n            amount,\r\n            originContract,\r\n            originTokenId\r\n        );\r\n        payable(owner()).transfer(msg.value);\r\n    }\r\n\r\n    // Mint a batch of derivative tokens with amount for a batch of ERC721 tokens\r\n    function safeMintBatch(\r\n        address to,\r\n        uint256[] memory amounts,\r\n        IERC721MetadataUpgradeable[] memory originContracts,\r\n        uint256[] memory originTokenIds\r\n    ) public payable {\r\n        uint256[] memory ids = new uint256[](originContracts.length);\r\n\r\n        for (uint256 i = 0; i < originContracts.length; i++) {\r\n            require(\r\n                originContracts[i].supportsInterface(\r\n                    type(IERC721MetadataUpgradeable).interfaceId\r\n                ),\r\n                \"DerivativeToekn: This contract does not support ERC721 Metadata\"\r\n            );\r\n            require(\r\n                msg.sender == originContracts[i].ownerOf(originTokenIds[i]),\r\n                \"DerivativeToekn: caller is not the token owner\"\r\n            );\r\n            ids[i] = uint256(\r\n                    keccak256(\r\n                        abi.encodePacked(originContracts[i], \"/\", originTokenIds[i])\r\n                    )\r\n                );\r\n        }\r\n\r\n        _safeMintBatch(to, ids, amounts, originContracts, originTokenIds);\r\n        payable(owner()).transfer(msg.value);\r\n    }\r\n\r\n    // Burn a ERC721's derivative token amount\r\n    function burn(\r\n        address from,\r\n        IERC721MetadataUpgradeable originContract,\r\n        uint256 originTokenId,\r\n        uint256 amount\r\n    ) public virtual onlyOwner {\r\n        _burn(from, getTokenId(originContract, originTokenId), amount);\r\n    }\r\n\r\n    // Mint a derivative token\r\n    function _safeMint(\r\n        address to,\r\n        uint256 id,\r\n        uint256 amount,\r\n        IERC721MetadataUpgradeable originContract,\r\n        uint256 originTokenId\r\n    ) internal virtual {\r\n        _mint(to, id, amount, \"\");\r\n\r\n        _tokenAmounts[originContract][originTokenId] += amount;\r\n        // _originTokens[id] = originToken;\r\n    }\r\n\r\n    function _safeMintBatch(\r\n        address to,\r\n        uint256[] memory ids,\r\n        uint256[] memory amounts,\r\n        IERC721MetadataUpgradeable[] memory originContracts,\r\n        uint256[] memory originTokenIds\r\n    ) internal virtual {\r\n        _mintBatch(to, ids, amounts, \"\");\r\n        for (uint256 i = 0; i < ids.length; i++) {\r\n            _tokenAmounts[originContracts[i]][originTokenIds[i]] += amounts[i];\r\n            // _originTokens[ids[i]] = originTokens[i];\r\n        }\r\n        payable(owner()).transfer(msg.value);\r\n    }\r\n\r\n    /**\r\n     * @dev See {IERC165-supportsInterface}.\r\n     */\r\n    function supportsInterface(bytes4 interfaceId)\r\n        public\r\n        view\r\n        virtual\r\n        override\r\n        returns (bool)\r\n    {\r\n        return\r\n            interfaceId == type(IERC1155Upgradeable).interfaceId ||\r\n            interfaceId == type(IERC1155MetadataURIUpgradeable).interfaceId ||\r\n            interfaceId == type(IERC165Upgradeable).interfaceId ||\r\n            interfaceId == type(IERC1155MetadataURIUpgradeable).interfaceId;\r\n    }\r\n\r\n    // Setting Default URI for BaseURI\r\n    function setDefaultURI(string memory uri_) public virtual onlyOwner {\r\n        _defalutURI = uri_;\r\n    }\r\n\r\n    /**\r\n     * @dev See {IERC1155MetadataURI-uri}.\r\n     *\r\n     * This implementation returns the same URI for *all* token types. It relies\r\n     * on the token type ID substitution mechanism\r\n     * https://eips.ethereum.org/EIPS/eip-1155#metadata[defined in the EIP].\r\n     *\r\n     * Clients calling this function must replace the `\\{id\\}` substring with the\r\n     * actual token type ID.\r\n     */\r\n    function uri(uint256 id)\r\n        public\r\n        view\r\n        virtual\r\n        override\r\n        returns (string memory)\r\n    {\r\n        return string(abi.encodePacked(_defalutURI,id));\r\n    }\r\n\r\n\r\n\r\n\r\n\r\n\r\n    /**\r\n     * @dev See {IERC1155-balanceOf}.\r\n     *\r\n     * Requirements:\r\n     *\r\n     * - `account` cannot be the zero address.\r\n     */\r\n    function balanceOf(address account, uint256 id)\r\n        public\r\n        view\r\n        virtual\r\n        override\r\n        returns (uint256)\r\n    {\r\n        require(\r\n            account != address(0),\r\n            \"ERC1155: balance query for the zero address\"\r\n        );\r\n        return _balances[id][account];\r\n    }\r\n\r\n    /**\r\n     * @dev See {IERC1155-balanceOfBatch}.\r\n     *\r\n     * Requirements:\r\n     *\r\n     * - `accounts` and `ids` must have the same length.\r\n     */\r\n    function balanceOfBatch(address[] memory accounts, uint256[] memory ids)\r\n        public\r\n        view\r\n        virtual\r\n        override\r\n        returns (uint256[] memory)\r\n    {\r\n        require(\r\n            accounts.length == ids.length,\r\n            \"ERC1155: accounts and ids length mismatch\"\r\n        );\r\n\r\n        uint256[] memory batchBalances = new uint256[](accounts.length);\r\n\r\n        for (uint256 i = 0; i < accounts.length; ++i) {\r\n            batchBalances[i] = balanceOf(accounts[i], ids[i]);\r\n        }\r\n\r\n        return batchBalances;\r\n    }\r\n\r\n    /**\r\n     * @dev See {IERC1155-setApprovalForAll}.\r\n     */\r\n    function setApprovalForAll(address operator, bool approved)\r\n        public\r\n        virtual\r\n        override\r\n    {\r\n        _setApprovalForAll(_msgSender(), operator, approved);\r\n    }\r\n\r\n    /**\r\n     * @dev See {IERC1155-isApprovedForAll}.\r\n     */\r\n    function isApprovedForAll(address account, address operator)\r\n        public\r\n        view\r\n        virtual\r\n        override\r\n        returns (bool)\r\n    {\r\n        return _operatorApprovals[account][operator];\r\n    }\r\n\r\n    /**\r\n     * @dev See {IERC1155-safeTransferFrom}.\r\n     */\r\n    function safeTransferFrom(\r\n        address from,\r\n        address to,\r\n        uint256 id,\r\n        uint256 amount,\r\n        bytes memory data\r\n    ) public virtual override {\r\n        require(\r\n            from == _msgSender() || isApprovedForAll(from, _msgSender()),\r\n            \"ERC1155: caller is not owner nor approved\"\r\n        );\r\n        _safeTransferFrom(from, to, id, amount, data);\r\n    }\r\n\r\n    /**\r\n     * @dev See {IERC1155-safeBatchTransferFrom}.\r\n     */\r\n    function safeBatchTransferFrom(\r\n        address from,\r\n        address to,\r\n        uint256[] memory ids,\r\n        uint256[] memory amounts,\r\n        bytes memory data\r\n    ) public virtual override {\r\n        require(\r\n            from == _msgSender() || isApprovedForAll(from, _msgSender()),\r\n            \"ERC1155: transfer caller is not owner nor approved\"\r\n        );\r\n        _safeBatchTransferFrom(from, to, ids, amounts, data);\r\n    }\r\n\r\n    /**\r\n     * @dev Transfers `amount` tokens of token type `id` from `from` to `to`.\r\n     *\r\n     * Emits a {TransferSingle} event.\r\n     *\r\n     * Requirements:\r\n     *\r\n     * - `to` cannot be the zero address.\r\n     * - `from` must have a balance of tokens of type `id` of at least `amount`.\r\n     * - If `to` refers to a smart contract, it must implement {IERC1155Receiver-onERC1155Received} and return the\r\n     * acceptance magic value.\r\n     */\r\n    function _safeTransferFrom(\r\n        address from,\r\n        address to,\r\n        uint256 id,\r\n        uint256 amount,\r\n        bytes memory data\r\n    ) internal virtual {\r\n        require(to != address(0), \"ERC1155: transfer to the zero address\");\r\n\r\n        address operator = _msgSender();\r\n\r\n        _beforeTokenTransfer(\r\n            operator,\r\n            from,\r\n            to,\r\n            _asSingletonArray(id),\r\n            _asSingletonArray(amount),\r\n            data\r\n        );\r\n\r\n        uint256 fromBalance = _balances[id][from];\r\n        require(\r\n            fromBalance >= amount,\r\n            \"ERC1155: insufficient balance for transfer\"\r\n        );\r\n        unchecked {\r\n            _balances[id][from] = fromBalance - amount;\r\n        }\r\n        _balances[id][to] += amount;\r\n\r\n        emit TransferSingle(operator, from, to, id, amount);\r\n\r\n        _doSafeTransferAcceptanceCheck(operator, from, to, id, amount, data);\r\n    }\r\n\r\n    /**\r\n     * @dev xref:ROOT:erc1155.adoc#batch-operations[Batched] version of {_safeTransferFrom}.\r\n     *\r\n     * Emits a {TransferBatch} event.\r\n     *\r\n     * Requirements:\r\n     *\r\n     * - If `to` refers to a smart contract, it must implement {IERC1155Receiver-onERC1155BatchReceived} and return the\r\n     * acceptance magic value.\r\n     */\r\n    function _safeBatchTransferFrom(\r\n        address from,\r\n        address to,\r\n        uint256[] memory ids,\r\n        uint256[] memory amounts,\r\n        bytes memory data\r\n    ) internal virtual {\r\n        require(\r\n            ids.length == amounts.length,\r\n            \"ERC1155: ids and amounts length mismatch\"\r\n        );\r\n        require(to != address(0), \"ERC1155: transfer to the zero address\");\r\n\r\n        address operator = _msgSender();\r\n\r\n        _beforeTokenTransfer(operator, from, to, ids, amounts, data);\r\n\r\n        for (uint256 i = 0; i < ids.length; ++i) {\r\n            uint256 id = ids[i];\r\n            uint256 amount = amounts[i];\r\n\r\n            uint256 fromBalance = _balances[id][from];\r\n            require(\r\n                fromBalance >= amount,\r\n                \"ERC1155: insufficient balance for transfer\"\r\n            );\r\n            unchecked {\r\n                _balances[id][from] = fromBalance - amount;\r\n            }\r\n            _balances[id][to] += amount;\r\n        }\r\n\r\n        emit TransferBatch(operator, from, to, ids, amounts);\r\n\r\n        _doSafeBatchTransferAcceptanceCheck(\r\n            operator,\r\n            from,\r\n            to,\r\n            ids,\r\n            amounts,\r\n            data\r\n        );\r\n    }\r\n\r\n    /**\r\n     * @dev Creates `amount` tokens of token type `id`, and assigns them to `to`.\r\n     *\r\n     * Emits a {TransferSingle} event.\r\n     *\r\n     * Requirements:\r\n     *\r\n     * - `to` cannot be the zero address.\r\n     * - If `to` refers to a smart contract, it must implement {IERC1155Receiver-onERC1155Received} and return the\r\n     * acceptance magic value.\r\n     */\r\n    function _mint(\r\n        address to,\r\n        uint256 id,\r\n        uint256 amount,\r\n        bytes memory data\r\n    ) internal virtual {\r\n        require(to != address(0), \"ERC1155: mint to the zero address\");\r\n\r\n        address operator = _msgSender();\r\n\r\n        _beforeTokenTransfer(\r\n            operator,\r\n            address(0),\r\n            to,\r\n            _asSingletonArray(id),\r\n            _asSingletonArray(amount),\r\n            data\r\n        );\r\n\r\n        _balances[id][to] += amount;\r\n        emit TransferSingle(operator, address(0), to, id, amount);\r\n\r\n        _doSafeTransferAcceptanceCheck(\r\n            operator,\r\n            address(0),\r\n            to,\r\n            id,\r\n            amount,\r\n            data\r\n        );\r\n    }\r\n\r\n    /**\r\n     * @dev xref:ROOT:erc1155.adoc#batch-operations[Batched] version of {_mint}.\r\n     *\r\n     * Requirements:\r\n     *\r\n     * - `ids` and `amounts` must have the same length.\r\n     * - If `to` refers to a smart contract, it must implement {IERC1155Receiver-onERC1155BatchReceived} and return the\r\n     * acceptance magic value.\r\n     */\r\n    function _mintBatch(\r\n        address to,\r\n        uint256[] memory ids,\r\n        uint256[] memory amounts,\r\n        bytes memory data\r\n    ) internal virtual {\r\n        require(to != address(0), \"ERC1155: mint to the zero address\");\r\n        require(\r\n            ids.length == amounts.length,\r\n            \"ERC1155: ids and amounts length mismatch\"\r\n        );\r\n\r\n        address operator = _msgSender();\r\n\r\n        _beforeTokenTransfer(operator, address(0), to, ids, amounts, data);\r\n\r\n        for (uint256 i = 0; i < ids.length; i++) {\r\n            _balances[ids[i]][to] += amounts[i];\r\n        }\r\n\r\n        emit TransferBatch(operator, address(0), to, ids, amounts);\r\n\r\n        _doSafeBatchTransferAcceptanceCheck(\r\n            operator,\r\n            address(0),\r\n            to,\r\n            ids,\r\n            amounts,\r\n            data\r\n        );\r\n    }\r\n\r\n    /**\r\n     * @dev Destroys `amount` tokens of token type `id` from `from`\r\n     *\r\n     * Requirements:\r\n     *\r\n     * - `from` cannot be the zero address.\r\n     * - `from` must have at least `amount` tokens of token type `id`.\r\n     */\r\n    function _burn(\r\n        address from,\r\n        uint256 id,\r\n        uint256 amount\r\n    ) internal virtual {\r\n        require(from != address(0), \"ERC1155: burn from the zero address\");\r\n\r\n        address operator = _msgSender();\r\n\r\n        _beforeTokenTransfer(\r\n            operator,\r\n            from,\r\n            address(0),\r\n            _asSingletonArray(id),\r\n            _asSingletonArray(amount),\r\n            \"\"\r\n        );\r\n\r\n        uint256 fromBalance = _balances[id][from];\r\n        require(fromBalance >= amount, \"ERC1155: burn amount exceeds balance\");\r\n        unchecked {\r\n            _balances[id][from] = fromBalance - amount;\r\n        }\r\n\r\n        emit TransferSingle(operator, from, address(0), id, amount);\r\n    }\r\n\r\n    /**\r\n     * @dev xref:ROOT:erc1155.adoc#batch-operations[Batched] version of {_burn}.\r\n     *\r\n     * Requirements:\r\n     *\r\n     * - `ids` and `amounts` must have the same length.\r\n     */\r\n    function _burnBatch(\r\n        address from,\r\n        uint256[] memory ids,\r\n        uint256[] memory amounts\r\n    ) internal virtual {\r\n        require(from != address(0), \"ERC1155: burn from the zero address\");\r\n        require(\r\n            ids.length == amounts.length,\r\n            \"ERC1155: ids and amounts length mismatch\"\r\n        );\r\n\r\n        address operator = _msgSender();\r\n\r\n        _beforeTokenTransfer(operator, from, address(0), ids, amounts, \"\");\r\n\r\n        for (uint256 i = 0; i < ids.length; i++) {\r\n            uint256 id = ids[i];\r\n            uint256 amount = amounts[i];\r\n\r\n            uint256 fromBalance = _balances[id][from];\r\n            require(\r\n                fromBalance >= amount,\r\n                \"ERC1155: burn amount exceeds balance\"\r\n            );\r\n            unchecked {\r\n                _balances[id][from] = fromBalance - amount;\r\n            }\r\n        }\r\n\r\n        emit TransferBatch(operator, from, address(0), ids, amounts);\r\n    }\r\n\r\n    /**\r\n     * @dev Approve `operator` to operate on all of `owner` tokens\r\n     *\r\n     * Emits a {ApprovalForAll} event.\r\n     */\r\n    function _setApprovalForAll(\r\n        address owner,\r\n        address operator,\r\n        bool approved\r\n    ) internal virtual {\r\n        require(owner != operator, \"ERC1155: setting approval status for self\");\r\n        _operatorApprovals[owner][operator] = approved;\r\n        emit ApprovalForAll(owner, operator, approved);\r\n    }\r\n\r\n    /**\r\n     * @dev Hook that is called before any token transfer. This includes minting\r\n     * and burning, as well as batched variants.\r\n     *\r\n     * The same hook is called on both single and batched variants. For single\r\n     * transfers, the length of the `id` and `amount` arrays will be 1.\r\n     *\r\n     * Calling conditions (for each `id` and `amount` pair):\r\n     *\r\n     * - When `from` and `to` are both non-zero, `amount` of ``from``'s tokens\r\n     * of token type `id` will be  transferred to `to`.\r\n     * - When `from` is zero, `amount` tokens of token type `id` will be minted\r\n     * for `to`.\r\n     * - when `to` is zero, `amount` of ``from``'s tokens of token type `id`\r\n     * will be burned.\r\n     * - `from` and `to` are never both zero.\r\n     * - `ids` and `amounts` have the same, non-zero length.\r\n     *\r\n     * To learn more about hooks, head to xref:ROOT:extending-contracts.adoc#using-hooks[Using Hooks].\r\n     */\r\n    function _beforeTokenTransfer(\r\n        address operator,\r\n        address from,\r\n        address to,\r\n        uint256[] memory ids,\r\n        uint256[] memory amounts,\r\n        bytes memory data\r\n    ) internal virtual {}\r\n\r\n    function _doSafeTransferAcceptanceCheck(\r\n        address operator,\r\n        address from,\r\n        address to,\r\n        uint256 id,\r\n        uint256 amount,\r\n        bytes memory data\r\n    ) private {\r\n        if (to.isContract()) {\r\n            try\r\n                IERC1155ReceiverUpgradeable(to).onERC1155Received(\r\n                    operator,\r\n                    from,\r\n                    id,\r\n                    amount,\r\n                    data\r\n                )\r\n            returns (bytes4 response) {\r\n                if (\r\n                    response !=\r\n                    IERC1155ReceiverUpgradeable.onERC1155Received.selector\r\n                ) {\r\n                    revert(\"ERC1155: ERC1155Receiver rejected tokens\");\r\n                }\r\n            } catch Error(string memory reason) {\r\n                revert(reason);\r\n            } catch {\r\n                revert(\"ERC1155: transfer to non ERC1155Receiver implementer\");\r\n            }\r\n        }\r\n    }\r\n\r\n    function _doSafeBatchTransferAcceptanceCheck(\r\n        address operator,\r\n        address from,\r\n        address to,\r\n        uint256[] memory ids,\r\n        uint256[] memory amounts,\r\n        bytes memory data\r\n    ) private {\r\n        if (to.isContract()) {\r\n            try\r\n                IERC1155ReceiverUpgradeable(to).onERC1155BatchReceived(\r\n                    operator,\r\n                    from,\r\n                    ids,\r\n                    amounts,\r\n                    data\r\n                )\r\n            returns (bytes4 response) {\r\n                if (\r\n                    response !=\r\n                    IERC1155ReceiverUpgradeable.onERC1155BatchReceived.selector\r\n                ) {\r\n                    revert(\"ERC1155: ERC1155Receiver rejected tokens\");\r\n                }\r\n            } catch Error(string memory reason) {\r\n                revert(reason);\r\n            } catch {\r\n                revert(\"ERC1155: transfer to non ERC1155Receiver implementer\");\r\n            }\r\n        }\r\n    }\r\n\r\n    /**\r\n     -----------------------------\r\n     * @dev PausableUpgradeable functions\r\n     */\r\n    function pause() public onlyOwner {\r\n        _pause();\r\n    }\r\n\r\n    function unpause() public onlyOwner {\r\n        _unpause();\r\n    }\r\n\r\n    /**\r\n     * @dev PausableUpgradeable functions\r\n     -----------------------------\r\n     */\r\n\r\n    function _asSingletonArray(uint256 element)\r\n        private\r\n        pure\r\n        returns (uint256[] memory)\r\n    {\r\n        uint256[] memory array = new uint256[](1);\r\n        array[0] = element;\r\n\r\n        return array;\r\n    }\r\n\r\n    function _authorizeUpgrade(address newImplementation)\r\n        internal\r\n        override\r\n        onlyOwner\r\n    {}\r\n}\r\n",
  "sourcePath": "E:\\Currentworkspace\\work\\Artalaxies_contract\\contracts\\testnet\\TestnetDerivativeTokenV2.sol",
  "compiler": {
    "name": "solc",
    "version": "0.8.9+commit.e5eed63a.Emscripten.clang"
  },
  "schemaVersion": "3.4.3",
  "updatedAt": "2021-12-29T08:17:39.121Z",
  "networkType": "ethereum",
  "devdoc": {
    "kind": "dev",
    "methods": {
      "balanceOf(address,uint256)": {
        "details": "See {IERC1155-balanceOf}. Requirements: - `account` cannot be the zero address."
      },
      "balanceOfBatch(address[],uint256[])": {
        "details": "See {IERC1155-balanceOfBatch}. Requirements: - `accounts` and `ids` must have the same length."
      },
      "constructor": {
        "custom:oz-upgrades-unsafe-allow": "constructor"
      },
      "isApprovedForAll(address,address)": {
        "details": "See {IERC1155-isApprovedForAll}."
      },
      "owner()": {
        "details": "Returns the address of the current owner."
      },
      "pause()": {
        "details": "PausableUpgradeable functions"
      },
      "paused()": {
        "details": "Returns true if the contract is paused, and false otherwise."
      },
      "renounceOwnership()": {
        "details": "Leaves the contract without owner. It will not be possible to call `onlyOwner` functions anymore. Can only be called by the current owner. NOTE: Renouncing ownership will leave the contract without an owner, thereby removing any functionality that is only available to the owner."
      },
      "safeBatchTransferFrom(address,address,uint256[],uint256[],bytes)": {
        "details": "See {IERC1155-safeBatchTransferFrom}."
      },
      "safeTransferFrom(address,address,uint256,uint256,bytes)": {
        "details": "See {IERC1155-safeTransferFrom}."
      },
      "setApprovalForAll(address,bool)": {
        "details": "See {IERC1155-setApprovalForAll}."
      },
      "supportsInterface(bytes4)": {
        "details": "See {IERC165-supportsInterface}."
      },
      "transferOwnership(address)": {
        "details": "Transfers ownership of the contract to a new account (`newOwner`). Can only be called by the current owner."
      },
      "upgradeTo(address)": {
        "details": "Upgrade the implementation of the proxy to `newImplementation`. Calls {_authorizeUpgrade}. Emits an {Upgraded} event."
      },
      "upgradeToAndCall(address,bytes)": {
        "details": "Upgrade the implementation of the proxy to `newImplementation`, and subsequently execute the function call encoded in `data`. Calls {_authorizeUpgrade}. Emits an {Upgraded} event."
      },
      "uri(uint256)": {
        "details": "See {IERC1155MetadataURI-uri}. This implementation returns the same URI for *all* token types. It relies on the token type ID substitution mechanism https://eips.ethereum.org/EIPS/eip-1155#metadata[defined in the EIP]. Clients calling this function must replace the `\\{id\\}` substring with the actual token type ID."
      }
    },
    "version": 1
  },
  "userdoc": {
    "kind": "user",
    "methods": {
      "pause()": {
        "notice": "-----------------------------"
      }
    },
    "version": 1
  }
}