{
  "contractName": "TestnetDerivativeToken",
  "abi": [
    {
      "inputs": [],
      "stateMutability": "nonpayable",
      "type": "constructor"
    },
    {
      "anonymous": false,
      "inputs": [
        {
          "indexed": false,
          "internalType": "address",
          "name": "previousAdmin",
          "type": "address"
        },
        {
          "indexed": false,
          "internalType": "address",
          "name": "newAdmin",
          "type": "address"
        }
      ],
      "name": "AdminChanged",
      "type": "event"
    },
    {
      "anonymous": false,
      "inputs": [
        {
          "indexed": true,
          "internalType": "address",
          "name": "account",
          "type": "address"
        },
        {
          "indexed": true,
          "internalType": "address",
          "name": "operator",
          "type": "address"
        },
        {
          "indexed": false,
          "internalType": "bool",
          "name": "approved",
          "type": "bool"
        }
      ],
      "name": "ApprovalForAll",
      "type": "event"
    },
    {
      "anonymous": false,
      "inputs": [
        {
          "indexed": true,
          "internalType": "address",
          "name": "beacon",
          "type": "address"
        }
      ],
      "name": "BeaconUpgraded",
      "type": "event"
    },
    {
      "anonymous": false,
      "inputs": [
        {
          "indexed": true,
          "internalType": "address",
          "name": "previousOwner",
          "type": "address"
        },
        {
          "indexed": true,
          "internalType": "address",
          "name": "newOwner",
          "type": "address"
        }
      ],
      "name": "OwnershipTransferred",
      "type": "event"
    },
    {
      "anonymous": false,
      "inputs": [
        {
          "indexed": false,
          "internalType": "address",
          "name": "account",
          "type": "address"
        }
      ],
      "name": "Paused",
      "type": "event"
    },
    {
      "anonymous": false,
      "inputs": [
        {
          "indexed": true,
          "internalType": "address",
          "name": "operator",
          "type": "address"
        },
        {
          "indexed": true,
          "internalType": "address",
          "name": "from",
          "type": "address"
        },
        {
          "indexed": true,
          "internalType": "address",
          "name": "to",
          "type": "address"
        },
        {
          "indexed": false,
          "internalType": "uint256[]",
          "name": "ids",
          "type": "uint256[]"
        },
        {
          "indexed": false,
          "internalType": "uint256[]",
          "name": "values",
          "type": "uint256[]"
        }
      ],
      "name": "TransferBatch",
      "type": "event"
    },
    {
      "anonymous": false,
      "inputs": [
        {
          "indexed": true,
          "internalType": "address",
          "name": "operator",
          "type": "address"
        },
        {
          "indexed": true,
          "internalType": "address",
          "name": "from",
          "type": "address"
        },
        {
          "indexed": true,
          "internalType": "address",
          "name": "to",
          "type": "address"
        },
        {
          "indexed": false,
          "internalType": "uint256",
          "name": "id",
          "type": "uint256"
        },
        {
          "indexed": false,
          "internalType": "uint256",
          "name": "value",
          "type": "uint256"
        }
      ],
      "name": "TransferSingle",
      "type": "event"
    },
    {
      "anonymous": false,
      "inputs": [
        {
          "indexed": false,
          "internalType": "string",
          "name": "value",
          "type": "string"
        },
        {
          "indexed": true,
          "internalType": "uint256",
          "name": "id",
          "type": "uint256"
        }
      ],
      "name": "URI",
      "type": "event"
    },
    {
      "anonymous": false,
      "inputs": [
        {
          "indexed": false,
          "internalType": "address",
          "name": "account",
          "type": "address"
        }
      ],
      "name": "Unpaused",
      "type": "event"
    },
    {
      "anonymous": false,
      "inputs": [
        {
          "indexed": true,
          "internalType": "address",
          "name": "implementation",
          "type": "address"
        }
      ],
      "name": "Upgraded",
      "type": "event"
    },
    {
      "inputs": [],
      "name": "owner",
      "outputs": [
        {
          "internalType": "address",
          "name": "",
          "type": "address"
        }
      ],
      "stateMutability": "view",
      "type": "function",
      "constant": true
    },
    {
      "inputs": [],
      "name": "paused",
      "outputs": [
        {
          "internalType": "bool",
          "name": "",
          "type": "bool"
        }
      ],
      "stateMutability": "view",
      "type": "function",
      "constant": true
    },
    {
      "inputs": [],
      "name": "renounceOwnership",
      "outputs": [],
      "stateMutability": "nonpayable",
      "type": "function"
    },
    {
      "inputs": [
        {
          "internalType": "address",
          "name": "newOwner",
          "type": "address"
        }
      ],
      "name": "transferOwnership",
      "outputs": [],
      "stateMutability": "nonpayable",
      "type": "function"
    },
    {
      "inputs": [
        {
          "internalType": "address",
          "name": "newImplementation",
          "type": "address"
        }
      ],
      "name": "upgradeTo",
      "outputs": [],
      "stateMutability": "nonpayable",
      "type": "function"
    },
    {
      "inputs": [
        {
          "internalType": "address",
          "name": "newImplementation",
          "type": "address"
        },
        {
          "internalType": "bytes",
          "name": "data",
          "type": "bytes"
        }
      ],
      "name": "upgradeToAndCall",
      "outputs": [],
      "stateMutability": "payable",
      "type": "function",
      "payable": true
    },
    {
      "inputs": [],
      "name": "initialize",
      "outputs": [],
      "stateMutability": "nonpayable",
      "type": "function"
    },
    {
      "inputs": [
        {
          "internalType": "contract IERC721MetadataUpgradeable",
          "name": "originContract",
          "type": "address"
        },
        {
          "internalType": "uint256",
          "name": "originTokenId",
          "type": "uint256"
        }
      ],
      "name": "getTokenId",
      "outputs": [
        {
          "internalType": "uint256",
          "name": "",
          "type": "uint256"
        }
      ],
      "stateMutability": "view",
      "type": "function",
      "constant": true
    },
    {
      "inputs": [
        {
          "internalType": "contract IERC721MetadataUpgradeable",
          "name": "originContract",
          "type": "address"
        },
        {
          "internalType": "uint256",
          "name": "originTokenId",
          "type": "uint256"
        }
      ],
      "name": "getAmount",
      "outputs": [
        {
          "internalType": "uint256",
          "name": "",
          "type": "uint256"
        }
      ],
      "stateMutability": "view",
      "type": "function",
      "constant": true
    },
    {
      "inputs": [
        {
          "internalType": "address",
          "name": "to",
          "type": "address"
        },
        {
          "internalType": "uint256",
          "name": "amount",
          "type": "uint256"
        },
        {
          "internalType": "contract IERC721MetadataUpgradeable",
          "name": "originContract",
          "type": "address"
        },
        {
          "internalType": "uint256",
          "name": "originTokenId",
          "type": "uint256"
        }
      ],
      "name": "safeMint",
      "outputs": [],
      "stateMutability": "payable",
      "type": "function",
      "payable": true
    },
    {
      "inputs": [
        {
          "internalType": "address",
          "name": "to",
          "type": "address"
        },
        {
          "internalType": "uint256[]",
          "name": "amounts",
          "type": "uint256[]"
        },
        {
          "internalType": "contract IERC721MetadataUpgradeable[]",
          "name": "originContracts",
          "type": "address[]"
        },
        {
          "internalType": "uint256[]",
          "name": "originTokenIds",
          "type": "uint256[]"
        }
      ],
      "name": "safeMintBatch",
      "outputs": [],
      "stateMutability": "payable",
      "type": "function",
      "payable": true
    },
    {
      "inputs": [
        {
          "internalType": "address",
          "name": "from",
          "type": "address"
        },
        {
          "internalType": "contract IERC721MetadataUpgradeable",
          "name": "originContract",
          "type": "address"
        },
        {
          "internalType": "uint256",
          "name": "originTokenId",
          "type": "uint256"
        },
        {
          "internalType": "uint256",
          "name": "amount",
          "type": "uint256"
        }
      ],
      "name": "burn",
      "outputs": [],
      "stateMutability": "nonpayable",
      "type": "function"
    },
    {
      "inputs": [
        {
          "internalType": "bytes4",
          "name": "interfaceId",
          "type": "bytes4"
        }
      ],
      "name": "supportsInterface",
      "outputs": [
        {
          "internalType": "bool",
          "name": "",
          "type": "bool"
        }
      ],
      "stateMutability": "view",
      "type": "function",
      "constant": true
    },
    {
      "inputs": [
        {
          "internalType": "string",
          "name": "uri_",
          "type": "string"
        }
      ],
      "name": "setDefaultURI",
      "outputs": [],
      "stateMutability": "nonpayable",
      "type": "function"
    },
    {
      "inputs": [
        {
          "internalType": "uint256",
          "name": "id",
          "type": "uint256"
        }
      ],
      "name": "uri",
      "outputs": [
        {
          "internalType": "string",
          "name": "",
          "type": "string"
        }
      ],
      "stateMutability": "view",
      "type": "function",
      "constant": true
    },
    {
      "inputs": [
        {
          "internalType": "address",
          "name": "account",
          "type": "address"
        },
        {
          "internalType": "uint256",
          "name": "id",
          "type": "uint256"
        }
      ],
      "name": "balanceOf",
      "outputs": [
        {
          "internalType": "uint256",
          "name": "",
          "type": "uint256"
        }
      ],
      "stateMutability": "view",
      "type": "function",
      "constant": true
    },
    {
      "inputs": [
        {
          "internalType": "address[]",
          "name": "accounts",
          "type": "address[]"
        },
        {
          "internalType": "uint256[]",
          "name": "ids",
          "type": "uint256[]"
        }
      ],
      "name": "balanceOfBatch",
      "outputs": [
        {
          "internalType": "uint256[]",
          "name": "",
          "type": "uint256[]"
        }
      ],
      "stateMutability": "view",
      "type": "function",
      "constant": true
    },
    {
      "inputs": [
        {
          "internalType": "address",
          "name": "operator",
          "type": "address"
        },
        {
          "internalType": "bool",
          "name": "approved",
          "type": "bool"
        }
      ],
      "name": "setApprovalForAll",
      "outputs": [],
      "stateMutability": "nonpayable",
      "type": "function"
    },
    {
      "inputs": [
        {
          "internalType": "address",
          "name": "account",
          "type": "address"
        },
        {
          "internalType": "address",
          "name": "operator",
          "type": "address"
        }
      ],
      "name": "isApprovedForAll",
      "outputs": [
        {
          "internalType": "bool",
          "name": "",
          "type": "bool"
        }
      ],
      "stateMutability": "view",
      "type": "function",
      "constant": true
    },
    {
      "inputs": [
        {
          "internalType": "address",
          "name": "from",
          "type": "address"
        },
        {
          "internalType": "address",
          "name": "to",
          "type": "address"
        },
        {
          "internalType": "uint256",
          "name": "id",
          "type": "uint256"
        },
        {
          "internalType": "uint256",
          "name": "amount",
          "type": "uint256"
        },
        {
          "internalType": "bytes",
          "name": "data",
          "type": "bytes"
        }
      ],
      "name": "safeTransferFrom",
      "outputs": [],
      "stateMutability": "nonpayable",
      "type": "function"
    },
    {
      "inputs": [
        {
          "internalType": "address",
          "name": "from",
          "type": "address"
        },
        {
          "internalType": "address",
          "name": "to",
          "type": "address"
        },
        {
          "internalType": "uint256[]",
          "name": "ids",
          "type": "uint256[]"
        },
        {
          "internalType": "uint256[]",
          "name": "amounts",
          "type": "uint256[]"
        },
        {
          "internalType": "bytes",
          "name": "data",
          "type": "bytes"
        }
      ],
      "name": "safeBatchTransferFrom",
      "outputs": [],
      "stateMutability": "nonpayable",
      "type": "function"
    },
    {
      "inputs": [],
      "name": "pause",
      "outputs": [],
      "stateMutability": "nonpayable",
      "type": "function"
    },
    {
      "inputs": [],
      "name": "unpause",
      "outputs": [],
      "stateMutability": "nonpayable",
      "type": "function"
    }
  ],
  "bytecode": "0x60a06040523073ffffffffffffffffffffffffffffffffffffffff1660809073ffffffffffffffffffffffffffffffffffffffff168152503480156200004457600080fd5b50600060019054906101000a900460ff166200006f5760008054906101000a900460ff161562000080565b6200007f6200013c60201b60201c565b5b620000c2576040517f08c379a0000000000000000000000000000000000000000000000000000000008152600401620000b990620001f4565b60405180910390fd5b60008060019054906101000a900460ff16159050801562000113576001600060016101000a81548160ff02191690831515021790555060016000806101000a81548160ff0219169083151502179055505b8015620001355760008060016101000a81548160ff0219169083151502179055505b5062000216565b600062000154306200015a60201b620018f71760201c565b15905090565b600080823b905060008111915050919050565b600082825260208201905092915050565b7f496e697469616c697a61626c653a20636f6e747261637420697320616c72656160008201527f647920696e697469616c697a6564000000000000000000000000000000000000602082015250565b6000620001dc602e836200016d565b9150620001e9826200017e565b604082019050919050565b600060208201905081810360008301526200020f81620001cd565b9050919050565b6080516158c862000247600039600081816108af0152818161093e01528181610bd70152610c6601526158c86000f3fe60806040526004361061013f5760003560e01c80638129fc1c116100b6578063d7020d0a1161006f578063d7020d0a146103f6578063da1b9e081461041f578063e0b999a114610448578063e985e9c514610485578063f242432a146104c2578063f2fde38b146104eb5761013f565b80638129fc1c1461033c5780638456cb59146103535780638da5cb5b1461036a5780639559939c14610395578063a22cb465146103b1578063b569e547146103da5761013f565b80633659cfe6116101085780633659cfe6146102615780633f4ba83a1461028a5780634e1273f4146102a15780634f1ef286146102de5780635c975abb146102fa578063715018a6146103255761013f565b8062fdd58e1461014457806301ffc9a7146101815780630e89341c146101be57806329f99b9f146101fb5780632eb2c2d614610238575b600080fd5b34801561015057600080fd5b5061016b60048036038101906101669190613638565b610514565b6040516101789190613687565b60405180910390f35b34801561018d57600080fd5b506101a860048036038101906101a391906136fa565b6105de565b6040516101b59190613742565b60405180910390f35b3480156101ca57600080fd5b506101e560048036038101906101e0919061375d565b610780565b6040516101f29190613823565b60405180910390f35b34801561020757600080fd5b50610222600480360381019061021d9190613883565b6107ac565b60405161022f9190613687565b60405180910390f35b34801561024457600080fd5b5061025f600480360381019061025a9190613ac0565b61080c565b005b34801561026d57600080fd5b5061028860048036038101906102839190613b8f565b6108ad565b005b34801561029657600080fd5b5061029f610a36565b005b3480156102ad57600080fd5b506102c860048036038101906102c39190613c7f565b610abc565b6040516102d59190613db5565b60405180910390f35b6102f860048036038101906102f39190613dd7565b610bd5565b005b34801561030657600080fd5b5061030f610d12565b60405161031c9190613742565b60405180910390f35b34801561033157600080fd5b5061033a610d29565b005b34801561034857600080fd5b50610351610db1565b005b34801561035f57600080fd5b50610368610edc565b005b34801561037657600080fd5b5061037f610f62565b60405161038c9190613e42565b60405180910390f35b6103af60048036038101906103aa9190613f20565b610f8c565b005b3480156103bd57600080fd5b506103d860048036038101906103d39190614007565b6112e5565b005b6103f460048036038101906103ef9190614047565b6112fb565b005b34801561040257600080fd5b5061041d600480360381019061041891906140ae565b611543565b005b34801561042b57600080fd5b50610446600480360381019061044191906141b6565b6115d9565b005b34801561045457600080fd5b5061046f600480360381019061046a9190613883565b61166f565b60405161047c9190613687565b60405180910390f35b34801561049157600080fd5b506104ac60048036038101906104a791906141ff565b6116ca565b6040516104b99190613742565b60405180910390f35b3480156104ce57600080fd5b506104e960048036038101906104e4919061423f565b61175e565b005b3480156104f757600080fd5b50610512600480360381019061050d9190613b8f565b6117ff565b005b60008073ffffffffffffffffffffffffffffffffffffffff168373ffffffffffffffffffffffffffffffffffffffff161415610585576040517f08c379a000000000000000000000000000000000000000000000000000000000815260040161057c90614348565b60405180910390fd5b60fb600083815260200190815260200160002060008473ffffffffffffffffffffffffffffffffffffffff1673ffffffffffffffffffffffffffffffffffffffff16815260200190815260200160002054905092915050565b60007fd9b67a26000000000000000000000000000000000000000000000000000000007bffffffffffffffffffffffffffffffffffffffffffffffffffffffff1916827bffffffffffffffffffffffffffffffffffffffffffffffffffffffff191614806106a957507f0e89341c000000000000000000000000000000000000000000000000000000007bffffffffffffffffffffffffffffffffffffffffffffffffffffffff1916827bffffffffffffffffffffffffffffffffffffffffffffffffffffffff1916145b8061071157507f01ffc9a7000000000000000000000000000000000000000000000000000000007bffffffffffffffffffffffffffffffffffffffffffffffffffffffff1916827bffffffffffffffffffffffffffffffffffffffffffffffffffffffff1916145b8061077957507f0e89341c000000000000000000000000000000000000000000000000000000007bffffffffffffffffffffffffffffffffffffffffffffffffffffffff1916827bffffffffffffffffffffffffffffffffffffffffffffffffffffffff1916145b9050919050565b606060fe82604051602001610796929190614489565b6040516020818303038152906040529050919050565b6000806107b9848461166f565b11156107f25782826040516020016107d2929190614595565b6040516020818303038152906040528051906020012060001c9050610806565b6000610801576108006145cc565b5b600090505b92915050565b61081461190a565b73ffffffffffffffffffffffffffffffffffffffff168573ffffffffffffffffffffffffffffffffffffffff16148061085a57506108598561085461190a565b6116ca565b5b610899576040517f08c379a00000000000000000000000000000000000000000000000000000000081526004016108909061466d565b60405180910390fd5b6108a68585858585611912565b5050505050565b7f000000000000000000000000000000000000000000000000000000000000000073ffffffffffffffffffffffffffffffffffffffff163073ffffffffffffffffffffffffffffffffffffffff16141561093c576040517f08c379a0000000000000000000000000000000000000000000000000000000008152600401610933906146ff565b60405180910390fd5b7f000000000000000000000000000000000000000000000000000000000000000073ffffffffffffffffffffffffffffffffffffffff1661097b611c29565b73ffffffffffffffffffffffffffffffffffffffff16146109d1576040517f08c379a00000000000000000000000000000000000000000000000000000000081526004016109c890614791565b60405180910390fd5b6109da81611c80565b610a3381600067ffffffffffffffff8111156109f9576109f86138c8565b5b6040519080825280601f01601f191660200182016040528015610a2b5781602001600182028036833780820191505090505b506000611cff565b50565b610a3e61190a565b73ffffffffffffffffffffffffffffffffffffffff16610a5c610f62565b73ffffffffffffffffffffffffffffffffffffffff1614610ab2576040517f08c379a0000000000000000000000000000000000000000000000000000000008152600401610aa9906147fd565b60405180910390fd5b610aba611ed0565b565b60608151835114610b02576040517f08c379a0000000000000000000000000000000000000000000000000000000008152600401610af99061488f565b60405180910390fd5b6000835167ffffffffffffffff811115610b1f57610b1e6138c8565b5b604051908082528060200260200182016040528015610b4d5781602001602082028036833780820191505090505b50905060005b8451811015610bca57610b9a858281518110610b7257610b716148af565b5b6020026020010151858381518110610b8d57610b8c6148af565b5b6020026020010151610514565b828281518110610bad57610bac6148af565b5b60200260200101818152505080610bc39061490d565b9050610b53565b508091505092915050565b7f000000000000000000000000000000000000000000000000000000000000000073ffffffffffffffffffffffffffffffffffffffff163073ffffffffffffffffffffffffffffffffffffffff161415610c64576040517f08c379a0000000000000000000000000000000000000000000000000000000008152600401610c5b906146ff565b60405180910390fd5b7f000000000000000000000000000000000000000000000000000000000000000073ffffffffffffffffffffffffffffffffffffffff16610ca3611c29565b73ffffffffffffffffffffffffffffffffffffffff1614610cf9576040517f08c379a0000000000000000000000000000000000000000000000000000000008152600401610cf090614791565b60405180910390fd5b610d0282611c80565b610d0e82826001611cff565b5050565b6000603360009054906101000a900460ff16905090565b610d3161190a565b73ffffffffffffffffffffffffffffffffffffffff16610d4f610f62565b73ffffffffffffffffffffffffffffffffffffffff1614610da5576040517f08c379a0000000000000000000000000000000000000000000000000000000008152600401610d9c906147fd565b60405180910390fd5b610daf6000611f72565b565b600060019054906101000a900460ff16610dd95760008054906101000a900460ff1615610de2565b610de1612038565b5b610e21576040517f08c379a0000000000000000000000000000000000000000000000000000000008152600401610e18906149c8565b60405180910390fd5b60008060019054906101000a900460ff161590508015610e71576001600060016101000a81548160ff02191690831515021790555060016000806101000a81548160ff0219169083151502179055505b60405180606001604052806024815260200161586f6024913960fe9080519060200190610e9f9291906134ed565b50610ea8612049565b610eb061209a565b610eb86120fb565b8015610ed95760008060016101000a81548160ff0219169083151502179055505b50565b610ee461190a565b73ffffffffffffffffffffffffffffffffffffffff16610f02610f62565b73ffffffffffffffffffffffffffffffffffffffff1614610f58576040517f08c379a0000000000000000000000000000000000000000000000000000000008152600401610f4f906147fd565b60405180910390fd5b610f6061215c565b565b6000606560009054906101000a900473ffffffffffffffffffffffffffffffffffffffff16905090565b6000825167ffffffffffffffff811115610fa957610fa86138c8565b5b604051908082528060200260200182016040528015610fd75781602001602082028036833780820191505090505b50905060005b835181101561128257838181518110610ff957610ff86148af565b5b602002602001015173ffffffffffffffffffffffffffffffffffffffff166301ffc9a77f5b5e139f000000000000000000000000000000000000000000000000000000006040518263ffffffff1660e01b815260040161105991906149f7565b60206040518083038186803b15801561107157600080fd5b505afa158015611085573d6000803e3d6000fd5b505050506040513d601f19601f820116820180604052508101906110a99190614a27565b6110e8576040517f08c379a00000000000000000000000000000000000000000000000000000000081526004016110df90614ac6565b60405180910390fd5b8381815181106110fb576110fa6148af565b5b602002602001015173ffffffffffffffffffffffffffffffffffffffff16636352211e848381518110611131576111306148af565b5b60200260200101516040518263ffffffff1660e01b81526004016111559190613687565b60206040518083038186803b15801561116d57600080fd5b505afa158015611181573d6000803e3d6000fd5b505050506040513d601f19601f820116820180604052508101906111a59190614afb565b73ffffffffffffffffffffffffffffffffffffffff163373ffffffffffffffffffffffffffffffffffffffff1614611212576040517f08c379a000000000000000000000000000000000000000000000000000000000815260040161120990614b9a565b60405180910390fd5b611250848281518110611228576112276148af565b5b6020026020010151848381518110611243576112426148af565b5b60200260200101516107ac565b828281518110611263576112626148af565b5b602002602001018181525050808061127a9061490d565b915050610fdd565b5061129085828686866121ff565b611298610f62565b73ffffffffffffffffffffffffffffffffffffffff166108fc349081150290604051600060405180830381858888f193505050501580156112dd573d6000803e3d6000fd5b505050505050565b6112f76112f061190a565b8383612344565b5050565b8173ffffffffffffffffffffffffffffffffffffffff166301ffc9a77f5b5e139f000000000000000000000000000000000000000000000000000000006040518263ffffffff1660e01b815260040161135491906149f7565b60206040518083038186803b15801561136c57600080fd5b505afa158015611380573d6000803e3d6000fd5b505050506040513d601f19601f820116820180604052508101906113a49190614a27565b6113e3576040517f08c379a00000000000000000000000000000000000000000000000000000000081526004016113da90614ac6565b60405180910390fd5b8173ffffffffffffffffffffffffffffffffffffffff16636352211e826040518263ffffffff1660e01b815260040161141c9190613687565b60206040518083038186803b15801561143457600080fd5b505afa158015611448573d6000803e3d6000fd5b505050506040513d601f19601f8201168201806040525081019061146c9190614afb565b73ffffffffffffffffffffffffffffffffffffffff163373ffffffffffffffffffffffffffffffffffffffff16146114d9576040517f08c379a00000000000000000000000000000000000000000000000000000000081526004016114d090614b9a565b60405180910390fd5b6114ef846114e784846107ac565b8585856124b1565b6114f7610f62565b73ffffffffffffffffffffffffffffffffffffffff166108fc349081150290604051600060405180830381858888f1935050505015801561153c573d6000803e3d6000fd5b5050505050565b61154b61190a565b73ffffffffffffffffffffffffffffffffffffffff16611569610f62565b73ffffffffffffffffffffffffffffffffffffffff16146115bf576040517f08c379a00000000000000000000000000000000000000000000000000000000081526004016115b6906147fd565b60405180910390fd5b6115d3846115cd85856107ac565b8361253a565b50505050565b6115e161190a565b73ffffffffffffffffffffffffffffffffffffffff166115ff610f62565b73ffffffffffffffffffffffffffffffffffffffff1614611655576040517f08c379a000000000000000000000000000000000000000000000000000000000815260040161164c906147fd565b60405180910390fd5b8060fe908051906020019061166b9291906134ed565b5050565b600060fd60008473ffffffffffffffffffffffffffffffffffffffff1673ffffffffffffffffffffffffffffffffffffffff168152602001908152602001600020600083815260200190815260200160002054905092915050565b600060fc60008473ffffffffffffffffffffffffffffffffffffffff1673ffffffffffffffffffffffffffffffffffffffff16815260200190815260200160002060008373ffffffffffffffffffffffffffffffffffffffff1673ffffffffffffffffffffffffffffffffffffffff16815260200190815260200160002060009054906101000a900460ff16905092915050565b61176661190a565b73ffffffffffffffffffffffffffffffffffffffff168573ffffffffffffffffffffffffffffffffffffffff1614806117ac57506117ab856117a661190a565b6116ca565b5b6117eb576040517f08c379a00000000000000000000000000000000000000000000000000000000081526004016117e290614c2c565b60405180910390fd5b6117f88585858585612759565b5050505050565b61180761190a565b73ffffffffffffffffffffffffffffffffffffffff16611825610f62565b73ffffffffffffffffffffffffffffffffffffffff161461187b576040517f08c379a0000000000000000000000000000000000000000000000000000000008152600401611872906147fd565b60405180910390fd5b600073ffffffffffffffffffffffffffffffffffffffff168173ffffffffffffffffffffffffffffffffffffffff1614156118eb576040517f08c379a00000000000000000000000000000000000000000000000000000000081526004016118e290614cbe565b60405180910390fd5b6118f481611f72565b50565b600080823b905060008111915050919050565b600033905090565b8151835114611956576040517f08c379a000000000000000000000000000000000000000000000000000000000815260040161194d90614d50565b60405180910390fd5b600073ffffffffffffffffffffffffffffffffffffffff168473ffffffffffffffffffffffffffffffffffffffff1614156119c6576040517f08c379a00000000000000000000000000000000000000000000000000000000081526004016119bd90614de2565b60405180910390fd5b60006119d061190a565b90506119e08187878787876129de565b60005b8451811015611b94576000858281518110611a0157611a006148af565b5b602002602001015190506000858381518110611a2057611a1f6148af565b5b60200260200101519050600060fb600084815260200190815260200160002060008b73ffffffffffffffffffffffffffffffffffffffff1673ffffffffffffffffffffffffffffffffffffffff16815260200190815260200160002054905081811015611ac2576040517f08c379a0000000000000000000000000000000000000000000000000000000008152600401611ab990614e74565b60405180910390fd5b81810360fb600085815260200190815260200160002060008c73ffffffffffffffffffffffffffffffffffffffff1673ffffffffffffffffffffffffffffffffffffffff168152602001908152602001600020819055508160fb600085815260200190815260200160002060008b73ffffffffffffffffffffffffffffffffffffffff1673ffffffffffffffffffffffffffffffffffffffff1681526020019081526020016000206000828254611b799190614e94565b9250508190555050505080611b8d9061490d565b90506119e3565b508473ffffffffffffffffffffffffffffffffffffffff168673ffffffffffffffffffffffffffffffffffffffff168273ffffffffffffffffffffffffffffffffffffffff167f4a39dc06d4c0dbc64b70af90fd698a233a518aa5d07e595d983b8c0526c8f7fb8787604051611c0b929190614eea565b60405180910390a4611c218187878787876129e6565b505050505050565b6000611c577f360894a13ba1a3210667c828492db98dca3e2076cc3735a920a3ca505d382bbc60001b612bcd565b60000160009054906101000a900473ffffffffffffffffffffffffffffffffffffffff16905090565b611c8861190a565b73ffffffffffffffffffffffffffffffffffffffff16611ca6610f62565b73ffffffffffffffffffffffffffffffffffffffff1614611cfc576040517f08c379a0000000000000000000000000000000000000000000000000000000008152600401611cf3906147fd565b60405180910390fd5b50565b6000611d09611c29565b9050611d1484612bd7565b600083511180611d215750815b15611d3257611d308484612c90565b505b6000611d607f4910fdfa16fed3260ed0e7147f7cc6da11a60208b5b9406d12a635614ffd914360001b612d74565b90508060000160009054906101000a900460ff16611ec95760018160000160006101000a81548160ff021916908315150217905550611e2c8583604051602401611daa9190613e42565b6040516020818303038152906040527f3659cfe6000000000000000000000000000000000000000000000000000000007bffffffffffffffffffffffffffffffffffffffffffffffffffffffff19166020820180517bffffffffffffffffffffffffffffffffffffffffffffffffffffffff8381831617835250505050612c90565b5060008160000160006101000a81548160ff021916908315150217905550611e52611c29565b73ffffffffffffffffffffffffffffffffffffffff168273ffffffffffffffffffffffffffffffffffffffff1614611ebf576040517f08c379a0000000000000000000000000000000000000000000000000000000008152600401611eb690614f93565b60405180910390fd5b611ec885612d7e565b5b5050505050565b611ed8610d12565b611f17576040517f08c379a0000000000000000000000000000000000000000000000000000000008152600401611f0e90614fff565b60405180910390fd5b6000603360006101000a81548160ff0219169083151502179055507f5db9ee0a495bf2e6ff9c91a7834c1ba4fdd244a5e8aa4e537bd38aeae4b073aa611f5b61190a565b604051611f689190613e42565b60405180910390a1565b6000606560009054906101000a900473ffffffffffffffffffffffffffffffffffffffff16905081606560006101000a81548173ffffffffffffffffffffffffffffffffffffffff021916908373ffffffffffffffffffffffffffffffffffffffff1602179055508173ffffffffffffffffffffffffffffffffffffffff168173ffffffffffffffffffffffffffffffffffffffff167f8be0079c531659141344cd1fd0a4f28419497f9722a3daafe3b4186f6b6457e060405160405180910390a35050565b6000612043306118f7565b15905090565b600060019054906101000a900460ff16612098576040517f08c379a000000000000000000000000000000000000000000000000000000000815260040161208f90615091565b60405180910390fd5b565b600060019054906101000a900460ff166120e9576040517f08c379a00000000000000000000000000000000000000000000000000000000081526004016120e090615091565b60405180910390fd5b6120f96120f461190a565b611f72565b565b600060019054906101000a900460ff1661214a576040517f08c379a000000000000000000000000000000000000000000000000000000000815260040161214190615091565b60405180910390fd5b612152612dcd565b61215a612e1e565b565b612164610d12565b156121a4576040517f08c379a000000000000000000000000000000000000000000000000000000000815260040161219b906150fd565b60405180910390fd5b6001603360006101000a81548160ff0219169083151502179055507f62e78cea01bee320cd4e420270b5ea74000d11b0c9f74754ebdbfc544b05a2586121e861190a565b6040516121f59190613e42565b60405180910390a1565b61221a85858560405180602001604052806000815250612e6f565b60005b84518110156122ee57838181518110612239576122386148af565b5b602002602001015160fd6000858481518110612258576122576148af565b5b602002602001015173ffffffffffffffffffffffffffffffffffffffff1673ffffffffffffffffffffffffffffffffffffffff16815260200190815260200160002060008484815181106122af576122ae6148af565b5b6020026020010151815260200190815260200160002060008282546122d49190614e94565b9250508190555080806122e69061490d565b91505061221d565b506122f7610f62565b73ffffffffffffffffffffffffffffffffffffffff166108fc349081150290604051600060405180830381858888f1935050505015801561233c573d6000803e3d6000fd5b505050505050565b8173ffffffffffffffffffffffffffffffffffffffff168373ffffffffffffffffffffffffffffffffffffffff1614156123b3576040517f08c379a00000000000000000000000000000000000000000000000000000000081526004016123aa9061518f565b60405180910390fd5b8060fc60008573ffffffffffffffffffffffffffffffffffffffff1673ffffffffffffffffffffffffffffffffffffffff16815260200190815260200160002060008473ffffffffffffffffffffffffffffffffffffffff1673ffffffffffffffffffffffffffffffffffffffff16815260200190815260200160002060006101000a81548160ff0219169083151502179055508173ffffffffffffffffffffffffffffffffffffffff168373ffffffffffffffffffffffffffffffffffffffff167f17307eab39ab6107e8899845ad3d59bd9653f200f220920489ca2b5937696c31836040516124a49190613742565b60405180910390a3505050565b6124cc8585856040518060200160405280600081525061308e565b8260fd60008473ffffffffffffffffffffffffffffffffffffffff1673ffffffffffffffffffffffffffffffffffffffff1681526020019081526020016000206000838152602001908152602001600020600082825461252c9190614e94565b925050819055505050505050565b600073ffffffffffffffffffffffffffffffffffffffff168373ffffffffffffffffffffffffffffffffffffffff1614156125aa576040517f08c379a00000000000000000000000000000000000000000000000000000000081526004016125a190615221565b60405180910390fd5b60006125b461190a565b90506125e4818560006125c687613225565b6125cf87613225565b604051806020016040528060008152506129de565b600060fb600085815260200190815260200160002060008673ffffffffffffffffffffffffffffffffffffffff1673ffffffffffffffffffffffffffffffffffffffff1681526020019081526020016000205490508281101561267c576040517f08c379a0000000000000000000000000000000000000000000000000000000008152600401612673906152b3565b60405180910390fd5b82810360fb600086815260200190815260200160002060008773ffffffffffffffffffffffffffffffffffffffff1673ffffffffffffffffffffffffffffffffffffffff16815260200190815260200160002081905550600073ffffffffffffffffffffffffffffffffffffffff168573ffffffffffffffffffffffffffffffffffffffff168373ffffffffffffffffffffffffffffffffffffffff167fc3d58168c5ae7397731d063d5bbf3d657854427343f4c083240f7aacaa2d0f62878760405161274a9291906152d3565b60405180910390a45050505050565b600073ffffffffffffffffffffffffffffffffffffffff168473ffffffffffffffffffffffffffffffffffffffff1614156127c9576040517f08c379a00000000000000000000000000000000000000000000000000000000081526004016127c090614de2565b60405180910390fd5b60006127d361190a565b90506127f38187876127e488613225565b6127ed88613225565b876129de565b600060fb600086815260200190815260200160002060008873ffffffffffffffffffffffffffffffffffffffff1673ffffffffffffffffffffffffffffffffffffffff1681526020019081526020016000205490508381101561288b576040517f08c379a000000000000000000000000000000000000000000000000000000000815260040161288290614e74565b60405180910390fd5b83810360fb600087815260200190815260200160002060008973ffffffffffffffffffffffffffffffffffffffff1673ffffffffffffffffffffffffffffffffffffffff168152602001908152602001600020819055508360fb600087815260200190815260200160002060008873ffffffffffffffffffffffffffffffffffffffff1673ffffffffffffffffffffffffffffffffffffffff16815260200190815260200160002060008282546129429190614e94565b925050819055508573ffffffffffffffffffffffffffffffffffffffff168773ffffffffffffffffffffffffffffffffffffffff168373ffffffffffffffffffffffffffffffffffffffff167fc3d58168c5ae7397731d063d5bbf3d657854427343f4c083240f7aacaa2d0f6288886040516129bf9291906152d3565b60405180910390a46129d582888888888861329f565b50505050505050565b505050505050565b612a058473ffffffffffffffffffffffffffffffffffffffff166118f7565b15612bc5578373ffffffffffffffffffffffffffffffffffffffff1663bc197c8187878686866040518663ffffffff1660e01b8152600401612a4b959493929190615351565b602060405180830381600087803b158015612a6557600080fd5b505af1925050508015612a9657506040513d601f19601f82011682018060405250810190612a9391906153ce565b60015b612b3c57612aa2615408565b806308c379a01415612aff5750612ab761542a565b80612ac25750612b01565b806040517f08c379a0000000000000000000000000000000000000000000000000000000008152600401612af69190613823565b60405180910390fd5b505b6040517f08c379a0000000000000000000000000000000000000000000000000000000008152600401612b3390615532565b60405180910390fd5b63bc197c8160e01b7bffffffffffffffffffffffffffffffffffffffffffffffffffffffff1916817bffffffffffffffffffffffffffffffffffffffffffffffffffffffff191614612bc3576040517f08c379a0000000000000000000000000000000000000000000000000000000008152600401612bba906155c4565b60405180910390fd5b505b505050505050565b6000819050919050565b612be0816118f7565b612c1f576040517f08c379a0000000000000000000000000000000000000000000000000000000008152600401612c1690615656565b60405180910390fd5b80612c4c7f360894a13ba1a3210667c828492db98dca3e2076cc3735a920a3ca505d382bbc60001b612bcd565b60000160006101000a81548173ffffffffffffffffffffffffffffffffffffffff021916908373ffffffffffffffffffffffffffffffffffffffff16021790555050565b6060612c9b836118f7565b612cda576040517f08c379a0000000000000000000000000000000000000000000000000000000008152600401612cd1906156e8565b60405180910390fd5b6000808473ffffffffffffffffffffffffffffffffffffffff1684604051612d029190615744565b600060405180830381855af49150503d8060008114612d3d576040519150601f19603f3d011682016040523d82523d6000602084013e612d42565b606091505b5091509150612d6a828260405180606001604052806027815260200161584860279139613486565b9250505092915050565b6000819050919050565b612d8781612bd7565b8073ffffffffffffffffffffffffffffffffffffffff167fbc7cd75a20ee27fd9adebab32041f755214dbc6bffa90cc0225b39da2e5c2d3b60405160405180910390a250565b600060019054906101000a900460ff16612e1c576040517f08c379a0000000000000000000000000000000000000000000000000000000008152600401612e1390615091565b60405180910390fd5b565b600060019054906101000a900460ff16612e6d576040517f08c379a0000000000000000000000000000000000000000000000000000000008152600401612e6490615091565b60405180910390fd5b565b600073ffffffffffffffffffffffffffffffffffffffff168473ffffffffffffffffffffffffffffffffffffffff161415612edf576040517f08c379a0000000000000000000000000000000000000000000000000000000008152600401612ed6906157cd565b60405180910390fd5b8151835114612f23576040517f08c379a0000000000000000000000000000000000000000000000000000000008152600401612f1a90614d50565b60405180910390fd5b6000612f2d61190a565b9050612f3e816000878787876129de565b60005b8451811015612ff857838181518110612f5d57612f5c6148af565b5b602002602001015160fb6000878481518110612f7c57612f7b6148af565b5b6020026020010151815260200190815260200160002060008873ffffffffffffffffffffffffffffffffffffffff1673ffffffffffffffffffffffffffffffffffffffff1681526020019081526020016000206000828254612fde9190614e94565b925050819055508080612ff09061490d565b915050612f41565b508473ffffffffffffffffffffffffffffffffffffffff16600073ffffffffffffffffffffffffffffffffffffffff168273ffffffffffffffffffffffffffffffffffffffff167f4a39dc06d4c0dbc64b70af90fd698a233a518aa5d07e595d983b8c0526c8f7fb8787604051613070929190614eea565b60405180910390a4613087816000878787876129e6565b5050505050565b600073ffffffffffffffffffffffffffffffffffffffff168473ffffffffffffffffffffffffffffffffffffffff1614156130fe576040517f08c379a00000000000000000000000000000000000000000000000000000000081526004016130f5906157cd565b60405180910390fd5b600061310861190a565b90506131298160008761311a88613225565b61312388613225565b876129de565b8260fb600086815260200190815260200160002060008773ffffffffffffffffffffffffffffffffffffffff1673ffffffffffffffffffffffffffffffffffffffff16815260200190815260200160002060008282546131899190614e94565b925050819055508473ffffffffffffffffffffffffffffffffffffffff16600073ffffffffffffffffffffffffffffffffffffffff168273ffffffffffffffffffffffffffffffffffffffff167fc3d58168c5ae7397731d063d5bbf3d657854427343f4c083240f7aacaa2d0f6287876040516132079291906152d3565b60405180910390a461321e8160008787878761329f565b5050505050565b60606000600167ffffffffffffffff811115613244576132436138c8565b5b6040519080825280602002602001820160405280156132725781602001602082028036833780820191505090505b509050828160008151811061328a576132896148af565b5b60200260200101818152505080915050919050565b6132be8473ffffffffffffffffffffffffffffffffffffffff166118f7565b1561347e578373ffffffffffffffffffffffffffffffffffffffff1663f23a6e6187878686866040518663ffffffff1660e01b81526004016133049594939291906157ed565b602060405180830381600087803b15801561331e57600080fd5b505af192505050801561334f57506040513d601f19601f8201168201806040525081019061334c91906153ce565b60015b6133f55761335b615408565b806308c379a014156133b8575061337061542a565b8061337b57506133ba565b806040517f08c379a00000000000000000000000000000000000000000000000000000000081526004016133af9190613823565b60405180910390fd5b505b6040517f08c379a00000000000000000000000000000000000000000000000000000000081526004016133ec90615532565b60405180910390fd5b63f23a6e6160e01b7bffffffffffffffffffffffffffffffffffffffffffffffffffffffff1916817bffffffffffffffffffffffffffffffffffffffffffffffffffffffff19161461347c576040517f08c379a0000000000000000000000000000000000000000000000000000000008152600401613473906155c4565b60405180910390fd5b505b505050505050565b60608315613496578290506134e6565b6000835111156134a95782518084602001fd5b816040517f08c379a00000000000000000000000000000000000000000000000000000000081526004016134dd9190613823565b60405180910390fd5b9392505050565b8280546134f990614397565b90600052602060002090601f01602090048101928261351b5760008555613562565b82601f1061353457805160ff1916838001178555613562565b82800160010185558215613562579182015b82811115613561578251825591602001919060010190613546565b5b50905061356f9190613573565b5090565b5b8082111561358c576000816000905550600101613574565b5090565b6000604051905090565b600080fd5b600080fd5b600073ffffffffffffffffffffffffffffffffffffffff82169050919050565b60006135cf826135a4565b9050919050565b6135df816135c4565b81146135ea57600080fd5b50565b6000813590506135fc816135d6565b92915050565b6000819050919050565b61361581613602565b811461362057600080fd5b50565b6000813590506136328161360c565b92915050565b6000806040838503121561364f5761364e61359a565b5b600061365d858286016135ed565b925050602061366e85828601613623565b9150509250929050565b61368181613602565b82525050565b600060208201905061369c6000830184613678565b92915050565b60007fffffffff0000000000000000000000000000000000000000000000000000000082169050919050565b6136d7816136a2565b81146136e257600080fd5b50565b6000813590506136f4816136ce565b92915050565b6000602082840312156137105761370f61359a565b5b600061371e848285016136e5565b91505092915050565b60008115159050919050565b61373c81613727565b82525050565b60006020820190506137576000830184613733565b92915050565b6000602082840312156137735761377261359a565b5b600061378184828501613623565b91505092915050565b600081519050919050565b600082825260208201905092915050565b60005b838110156137c45780820151818401526020810190506137a9565b838111156137d3576000848401525b50505050565b6000601f19601f8301169050919050565b60006137f58261378a565b6137ff8185613795565b935061380f8185602086016137a6565b613818816137d9565b840191505092915050565b6000602082019050818103600083015261383d81846137ea565b905092915050565b6000613850826135c4565b9050919050565b61386081613845565b811461386b57600080fd5b50565b60008135905061387d81613857565b92915050565b6000806040838503121561389a5761389961359a565b5b60006138a88582860161386e565b92505060206138b985828601613623565b9150509250929050565b600080fd5b7f4e487b7100000000000000000000000000000000000000000000000000000000600052604160045260246000fd5b613900826137d9565b810181811067ffffffffffffffff8211171561391f5761391e6138c8565b5b80604052505050565b6000613932613590565b905061393e82826138f7565b919050565b600067ffffffffffffffff82111561395e5761395d6138c8565b5b602082029050602081019050919050565b600080fd5b600061398761398284613943565b613928565b905080838252602082019050602084028301858111156139aa576139a961396f565b5b835b818110156139d357806139bf8882613623565b8452602084019350506020810190506139ac565b5050509392505050565b600082601f8301126139f2576139f16138c3565b5b8135613a02848260208601613974565b91505092915050565b600080fd5b600067ffffffffffffffff821115613a2b57613a2a6138c8565b5b613a34826137d9565b9050602081019050919050565b82818337600083830152505050565b6000613a63613a5e84613a10565b613928565b905082815260208101848484011115613a7f57613a7e613a0b565b5b613a8a848285613a41565b509392505050565b600082601f830112613aa757613aa66138c3565b5b8135613ab7848260208601613a50565b91505092915050565b600080600080600060a08688031215613adc57613adb61359a565b5b6000613aea888289016135ed565b9550506020613afb888289016135ed565b945050604086013567ffffffffffffffff811115613b1c57613b1b61359f565b5b613b28888289016139dd565b935050606086013567ffffffffffffffff811115613b4957613b4861359f565b5b613b55888289016139dd565b925050608086013567ffffffffffffffff811115613b7657613b7561359f565b5b613b8288828901613a92565b9150509295509295909350565b600060208284031215613ba557613ba461359a565b5b6000613bb3848285016135ed565b91505092915050565b600067ffffffffffffffff821115613bd757613bd66138c8565b5b602082029050602081019050919050565b6000613bfb613bf684613bbc565b613928565b90508083825260208201905060208402830185811115613c1e57613c1d61396f565b5b835b81811015613c475780613c3388826135ed565b845260208401935050602081019050613c20565b5050509392505050565b600082601f830112613c6657613c656138c3565b5b8135613c76848260208601613be8565b91505092915050565b60008060408385031215613c9657613c9561359a565b5b600083013567ffffffffffffffff811115613cb457613cb361359f565b5b613cc085828601613c51565b925050602083013567ffffffffffffffff811115613ce157613ce061359f565b5b613ced858286016139dd565b9150509250929050565b600081519050919050565b600082825260208201905092915050565b6000819050602082019050919050565b613d2c81613602565b82525050565b6000613d3e8383613d23565b60208301905092915050565b6000602082019050919050565b6000613d6282613cf7565b613d6c8185613d02565b9350613d7783613d13565b8060005b83811015613da8578151613d8f8882613d32565b9750613d9a83613d4a565b925050600181019050613d7b565b5085935050505092915050565b60006020820190508181036000830152613dcf8184613d57565b905092915050565b60008060408385031215613dee57613ded61359a565b5b6000613dfc858286016135ed565b925050602083013567ffffffffffffffff811115613e1d57613e1c61359f565b5b613e2985828601613a92565b9150509250929050565b613e3c816135c4565b82525050565b6000602082019050613e576000830184613e33565b92915050565b600067ffffffffffffffff821115613e7857613e776138c8565b5b602082029050602081019050919050565b6000613e9c613e9784613e5d565b613928565b90508083825260208201905060208402830185811115613ebf57613ebe61396f565b5b835b81811015613ee85780613ed4888261386e565b845260208401935050602081019050613ec1565b5050509392505050565b600082601f830112613f0757613f066138c3565b5b8135613f17848260208601613e89565b91505092915050565b60008060008060808587031215613f3a57613f3961359a565b5b6000613f48878288016135ed565b945050602085013567ffffffffffffffff811115613f6957613f6861359f565b5b613f75878288016139dd565b935050604085013567ffffffffffffffff811115613f9657613f9561359f565b5b613fa287828801613ef2565b925050606085013567ffffffffffffffff811115613fc357613fc261359f565b5b613fcf878288016139dd565b91505092959194509250565b613fe481613727565b8114613fef57600080fd5b50565b60008135905061400181613fdb565b92915050565b6000806040838503121561401e5761401d61359a565b5b600061402c858286016135ed565b925050602061403d85828601613ff2565b9150509250929050565b600080600080608085870312156140615761406061359a565b5b600061406f878288016135ed565b945050602061408087828801613623565b93505060406140918782880161386e565b92505060606140a287828801613623565b91505092959194509250565b600080600080608085870312156140c8576140c761359a565b5b60006140d6878288016135ed565b94505060206140e78782880161386e565b93505060406140f887828801613623565b925050606061410987828801613623565b91505092959194509250565b600067ffffffffffffffff8211156141305761412f6138c8565b5b614139826137d9565b9050602081019050919050565b600061415961415484614115565b613928565b90508281526020810184848401111561417557614174613a0b565b5b614180848285613a41565b509392505050565b600082601f83011261419d5761419c6138c3565b5b81356141ad848260208601614146565b91505092915050565b6000602082840312156141cc576141cb61359a565b5b600082013567ffffffffffffffff8111156141ea576141e961359f565b5b6141f684828501614188565b91505092915050565b600080604083850312156142165761421561359a565b5b6000614224858286016135ed565b9250506020614235858286016135ed565b9150509250929050565b600080600080600060a0868803121561425b5761425a61359a565b5b6000614269888289016135ed565b955050602061427a888289016135ed565b945050604061428b88828901613623565b935050606061429c88828901613623565b925050608086013567ffffffffffffffff8111156142bd576142bc61359f565b5b6142c988828901613a92565b9150509295509295909350565b7f455243313135353a2062616c616e636520717565727920666f7220746865207a60008201527f65726f2061646472657373000000000000000000000000000000000000000000602082015250565b6000614332602b83613795565b915061433d826142d6565b604082019050919050565b6000602082019050818103600083015261436181614325565b9050919050565b7f4e487b7100000000000000000000000000000000000000000000000000000000600052602260045260246000fd5b600060028204905060018216806143af57607f821691505b602082108114156143c3576143c2614368565b5b50919050565b600081905092915050565b60008190508160005260206000209050919050565b600081546143f681614397565b61440081866143c9565b9450600182166000811461441b576001811461442c5761445f565b60ff1983168652818601935061445f565b614435856143d4565b60005b8381101561445757815481890152600182019150602081019050614438565b838801955050505b50505092915050565b6000819050919050565b61448361447e82613602565b614468565b82525050565b600061449582856143e9565b91506144a18284614472565b6020820191508190509392505050565b6000819050919050565b60006144d66144d16144cc846135a4565b6144b1565b6135a4565b9050919050565b60006144e8826144bb565b9050919050565b60006144fa826144dd565b9050919050565b60008160601b9050919050565b600061451982614501565b9050919050565b600061452b8261450e565b9050919050565b61454361453e826144ef565b614520565b82525050565b7f2f00000000000000000000000000000000000000000000000000000000000000600082015250565b600061457f6001836143c9565b915061458a82614549565b600182019050919050565b60006145a18285614532565b6014820191506145b082614572565b91506145bc8284614472565b6020820191508190509392505050565b7f4e487b7100000000000000000000000000000000000000000000000000000000600052600160045260246000fd5b7f455243313135353a207472616e736665722063616c6c6572206973206e6f742060008201527f6f776e6572206e6f7220617070726f7665640000000000000000000000000000602082015250565b6000614657603283613795565b9150614662826145fb565b604082019050919050565b600060208201905081810360008301526146868161464a565b9050919050565b7f46756e6374696f6e206d7573742062652063616c6c6564207468726f7567682060008201527f64656c656761746563616c6c0000000000000000000000000000000000000000602082015250565b60006146e9602c83613795565b91506146f48261468d565b604082019050919050565b60006020820190508181036000830152614718816146dc565b9050919050565b7f46756e6374696f6e206d7573742062652063616c6c6564207468726f7567682060008201527f6163746976652070726f78790000000000000000000000000000000000000000602082015250565b600061477b602c83613795565b91506147868261471f565b604082019050919050565b600060208201905081810360008301526147aa8161476e565b9050919050565b7f4f776e61626c653a2063616c6c6572206973206e6f7420746865206f776e6572600082015250565b60006147e7602083613795565b91506147f2826147b1565b602082019050919050565b60006020820190508181036000830152614816816147da565b9050919050565b7f455243313135353a206163636f756e747320616e6420696473206c656e67746860008201527f206d69736d617463680000000000000000000000000000000000000000000000602082015250565b6000614879602983613795565b91506148848261481d565b604082019050919050565b600060208201905081810360008301526148a88161486c565b9050919050565b7f4e487b7100000000000000000000000000000000000000000000000000000000600052603260045260246000fd5b7f4e487b7100000000000000000000000000000000000000000000000000000000600052601160045260246000fd5b600061491882613602565b91507fffffffffffffffffffffffffffffffffffffffffffffffffffffffffffffffff82141561494b5761494a6148de565b5b600182019050919050565b7f496e697469616c697a61626c653a20636f6e747261637420697320616c72656160008201527f647920696e697469616c697a6564000000000000000000000000000000000000602082015250565b60006149b2602e83613795565b91506149bd82614956565b604082019050919050565b600060208201905081810360008301526149e1816149a5565b9050919050565b6149f1816136a2565b82525050565b6000602082019050614a0c60008301846149e8565b92915050565b600081519050614a2181613fdb565b92915050565b600060208284031215614a3d57614a3c61359a565b5b6000614a4b84828501614a12565b91505092915050565b7f44657269766174697665546f656b6e3a205468697320636f6e7472616374206460008201527f6f6573206e6f7420737570706f727420455243373231204d6574616461746100602082015250565b6000614ab0603f83613795565b9150614abb82614a54565b604082019050919050565b60006020820190508181036000830152614adf81614aa3565b9050919050565b600081519050614af5816135d6565b92915050565b600060208284031215614b1157614b1061359a565b5b6000614b1f84828501614ae6565b91505092915050565b7f44657269766174697665546f656b6e3a2063616c6c6572206973206e6f74207460008201527f686520746f6b656e206f776e6572000000000000000000000000000000000000602082015250565b6000614b84602e83613795565b9150614b8f82614b28565b604082019050919050565b60006020820190508181036000830152614bb381614b77565b9050919050565b7f455243313135353a2063616c6c6572206973206e6f74206f776e6572206e6f7260008201527f20617070726f7665640000000000000000000000000000000000000000000000602082015250565b6000614c16602983613795565b9150614c2182614bba565b604082019050919050565b60006020820190508181036000830152614c4581614c09565b9050919050565b7f4f776e61626c653a206e6577206f776e657220697320746865207a65726f206160008201527f6464726573730000000000000000000000000000000000000000000000000000602082015250565b6000614ca8602683613795565b9150614cb382614c4c565b604082019050919050565b60006020820190508181036000830152614cd781614c9b565b9050919050565b7f455243313135353a2069647320616e6420616d6f756e7473206c656e6774682060008201527f6d69736d61746368000000000000000000000000000000000000000000000000602082015250565b6000614d3a602883613795565b9150614d4582614cde565b604082019050919050565b60006020820190508181036000830152614d6981614d2d565b9050919050565b7f455243313135353a207472616e7366657220746f20746865207a65726f20616460008201527f6472657373000000000000000000000000000000000000000000000000000000602082015250565b6000614dcc602583613795565b9150614dd782614d70565b604082019050919050565b60006020820190508181036000830152614dfb81614dbf565b9050919050565b7f455243313135353a20696e73756666696369656e742062616c616e636520666f60008201527f72207472616e7366657200000000000000000000000000000000000000000000602082015250565b6000614e5e602a83613795565b9150614e6982614e02565b604082019050919050565b60006020820190508181036000830152614e8d81614e51565b9050919050565b6000614e9f82613602565b9150614eaa83613602565b9250827fffffffffffffffffffffffffffffffffffffffffffffffffffffffffffffffff03821115614edf57614ede6148de565b5b828201905092915050565b60006040820190508181036000830152614f048185613d57565b90508181036020830152614f188184613d57565b90509392505050565b7f45524331393637557067726164653a207570677261646520627265616b73206660008201527f7572746865722075706772616465730000000000000000000000000000000000602082015250565b6000614f7d602f83613795565b9150614f8882614f21565b604082019050919050565b60006020820190508181036000830152614fac81614f70565b9050919050565b7f5061757361626c653a206e6f7420706175736564000000000000000000000000600082015250565b6000614fe9601483613795565b9150614ff482614fb3565b602082019050919050565b6000602082019050818103600083015261501881614fdc565b9050919050565b7f496e697469616c697a61626c653a20636f6e7472616374206973206e6f74206960008201527f6e697469616c697a696e67000000000000000000000000000000000000000000602082015250565b600061507b602b83613795565b91506150868261501f565b604082019050919050565b600060208201905081810360008301526150aa8161506e565b9050919050565b7f5061757361626c653a2070617573656400000000000000000000000000000000600082015250565b60006150e7601083613795565b91506150f2826150b1565b602082019050919050565b60006020820190508181036000830152615116816150da565b9050919050565b7f455243313135353a2073657474696e6720617070726f76616c2073746174757360008201527f20666f722073656c660000000000000000000000000000000000000000000000602082015250565b6000615179602983613795565b91506151848261511d565b604082019050919050565b600060208201905081810360008301526151a88161516c565b9050919050565b7f455243313135353a206275726e2066726f6d20746865207a65726f206164647260008201527f6573730000000000000000000000000000000000000000000000000000000000602082015250565b600061520b602383613795565b9150615216826151af565b604082019050919050565b6000602082019050818103600083015261523a816151fe565b9050919050565b7f455243313135353a206275726e20616d6f756e7420657863656564732062616c60008201527f616e636500000000000000000000000000000000000000000000000000000000602082015250565b600061529d602483613795565b91506152a882615241565b604082019050919050565b600060208201905081810360008301526152cc81615290565b9050919050565b60006040820190506152e86000830185613678565b6152f56020830184613678565b9392505050565b600081519050919050565b600082825260208201905092915050565b6000615323826152fc565b61532d8185615307565b935061533d8185602086016137a6565b615346816137d9565b840191505092915050565b600060a0820190506153666000830188613e33565b6153736020830187613e33565b81810360408301526153858186613d57565b905081810360608301526153998185613d57565b905081810360808301526153ad8184615318565b90509695505050505050565b6000815190506153c8816136ce565b92915050565b6000602082840312156153e4576153e361359a565b5b60006153f2848285016153b9565b91505092915050565b60008160e01c9050919050565b600060033d11156154275760046000803e6154246000516153fb565b90505b90565b600060443d101561543a576154bd565b615442613590565b60043d036004823e80513d602482011167ffffffffffffffff8211171561546a5750506154bd565b808201805167ffffffffffffffff81111561548857505050506154bd565b80602083010160043d0385018111156154a55750505050506154bd565b6154b4826020018501866138f7565b82955050505050505b90565b7f455243313135353a207472616e7366657220746f206e6f6e204552433131353560008201527f526563656976657220696d706c656d656e746572000000000000000000000000602082015250565b600061551c603483613795565b9150615527826154c0565b604082019050919050565b6000602082019050818103600083015261554b8161550f565b9050919050565b7f455243313135353a204552433131353552656365697665722072656a6563746560008201527f6420746f6b656e73000000000000000000000000000000000000000000000000602082015250565b60006155ae602883613795565b91506155b982615552565b604082019050919050565b600060208201905081810360008301526155dd816155a1565b9050919050565b7f455243313936373a206e657720696d706c656d656e746174696f6e206973206e60008201527f6f74206120636f6e747261637400000000000000000000000000000000000000602082015250565b6000615640602d83613795565b915061564b826155e4565b604082019050919050565b6000602082019050818103600083015261566f81615633565b9050919050565b7f416464726573733a2064656c65676174652063616c6c20746f206e6f6e2d636f60008201527f6e74726163740000000000000000000000000000000000000000000000000000602082015250565b60006156d2602683613795565b91506156dd82615676565b604082019050919050565b60006020820190508181036000830152615701816156c5565b9050919050565b600081905092915050565b600061571e826152fc565b6157288185615708565b93506157388185602086016137a6565b80840191505092915050565b60006157508284615713565b915081905092915050565b7f455243313135353a206d696e7420746f20746865207a65726f2061646472657360008201527f7300000000000000000000000000000000000000000000000000000000000000602082015250565b60006157b7602183613795565b91506157c28261575b565b604082019050919050565b600060208201905081810360008301526157e6816157aa565b9050919050565b600060a0820190506158026000830188613e33565b61580f6020830187613e33565b61581c6040830186613678565b6158296060830185613678565b818103608083015261583b8184615318565b9050969550505050505056fe416464726573733a206c6f772d6c6576656c2064656c65676174652063616c6c206661696c656468747470733a2f2f746f6b656e2e617274616c617869652e6d6c2f7b69647d2e6a736f6ea264697066735822122071926b300c5d263d5fb9d372c43d901350a7d1d1a683c229bdec90bee479a30a64736f6c63430008090033",
  "immutableReferences": {
    "1051": [
      {
        "length": 32,
        "start": 2223
      },
      {
        "length": 32,
        "start": 2366
      },
      {
        "length": 32,
        "start": 3031
      },
      {
        "length": 32,
        "start": 3174
      }
    ]
  },
  "source": "// SPDX-License-Identifier: MIT\r\npragma solidity ^0.8.9;\r\n\r\nimport \"@openzeppelin/contracts-upgradeable/access/OwnableUpgradeable.sol\";\r\nimport \"@openzeppelin/contracts-upgradeable/proxy/utils/Initializable.sol\";\r\nimport \"@openzeppelin/contracts-upgradeable/proxy/utils/UUPSUpgradeable.sol\";\r\nimport \"@openzeppelin/contracts-upgradeable/token/ERC721/extensions/IERC721MetadataUpgradeable.sol\";\r\nimport \"@openzeppelin/contracts-upgradeable/token/ERC1155/IERC1155Upgradeable.sol\";\r\nimport \"@openzeppelin/contracts-upgradeable/token/ERC1155/extensions/IERC1155MetadataURIUpgradeable.sol\";\r\nimport \"@openzeppelin/contracts-upgradeable/token/ERC1155/IERC1155ReceiverUpgradeable.sol\";\r\nimport \"@openzeppelin/contracts-upgradeable/access/OwnableUpgradeable.sol\";\r\nimport \"@openzeppelin/contracts-upgradeable/security/PausableUpgradeable.sol\";\r\nimport \"@openzeppelin/contracts-upgradeable/utils/StringsUpgradeable.sol\";\r\n\r\ncontract TestnetDerivativeToken is\r\n    Initializable,\r\n    IERC1155Upgradeable,\r\n    IERC1155MetadataURIUpgradeable,\r\n    PausableUpgradeable,\r\n    OwnableUpgradeable,\r\n    UUPSUpgradeable\r\n{\r\n    using AddressUpgradeable for address;\r\n\r\n    // Mapping from token ID to account balances\r\n    mapping(uint256 => mapping(address => uint256)) private _balances;\r\n\r\n    // Mapping from account to operator approvals\r\n    mapping(address => mapping(address => bool)) private _operatorApprovals;\r\n\r\n    // Mapping from ERC721 contract address to origin token ID to total supply amount\r\n    mapping(IERC721MetadataUpgradeable => mapping(uint256 => uint256))\r\n        private _tokenAmounts;\r\n\r\n    // For defalut URI.\r\n    string private _defalutURI;\r\n\r\n    /// @custom:oz-upgrades-unsafe-allow constructor\r\n    constructor() initializer {}\r\n\r\n    function initialize() public initializer {\r\n        _defalutURI=\"https://token.artalaxie.ml/{id}.json\";\r\n        __Context_init_unchained();\r\n        __Ownable_init_unchained();\r\n        __UUPSUpgradeable_init();\r\n    }\r\n\r\n    // Get a derivative token id from ERC721 token\r\n    function getTokenId(\r\n        IERC721MetadataUpgradeable originContract,\r\n        uint256 originTokenId\r\n    ) public view returns (uint256) {\r\n        if (getAmount(originContract, originTokenId) > 0) {\r\n            return\r\n                uint256(\r\n                    keccak256(\r\n                        abi.encodePacked(originContract, \"/\", originTokenId)\r\n                    )\r\n                );\r\n        } else {\r\n            assert(false);\r\n            return 0;\r\n        }\r\n    }\r\n\r\n    \r\n    // Get amount for a token\r\n    function getAmount(\r\n        IERC721MetadataUpgradeable originContract,\r\n        uint256 originTokenId\r\n    ) public view returns (uint256) {\r\n        return _tokenAmounts[originContract][originTokenId];\r\n    }\r\n\r\n    // Mint a derivative token with amount for a ERC721 token\r\n    function safeMint(\r\n        address to,\r\n        uint256 amount,\r\n        IERC721MetadataUpgradeable originContract,\r\n        uint256 originTokenId\r\n    ) public payable {\r\n        require(\r\n            originContract.supportsInterface(\r\n                type(IERC721MetadataUpgradeable).interfaceId\r\n            ),\r\n            \"DerivativeToekn: This contract does not support ERC721 Metadata\"\r\n        );\r\n\r\n        require(\r\n            msg.sender == originContract.ownerOf(originTokenId),\r\n            \"DerivativeToekn: caller is not the token owner\"\r\n        );\r\n        _safeMint(\r\n            to,\r\n            getTokenId(originContract, originTokenId),\r\n            amount,\r\n            originContract,\r\n            originTokenId\r\n        );\r\n        payable(owner()).transfer(msg.value);\r\n    }\r\n\r\n    // Mint a batch of derivative tokens with amount for a batch of ERC721 tokens\r\n    function safeMintBatch(\r\n        address to,\r\n        uint256[] memory amounts,\r\n        IERC721MetadataUpgradeable[] memory originContracts,\r\n        uint256[] memory originTokenIds\r\n    ) public payable {\r\n        uint256[] memory ids = new uint256[](originContracts.length);\r\n\r\n        for (uint256 i = 0; i < originContracts.length; i++) {\r\n            require(\r\n                originContracts[i].supportsInterface(\r\n                    type(IERC721MetadataUpgradeable).interfaceId\r\n                ),\r\n                \"DerivativeToekn: This contract does not support ERC721 Metadata\"\r\n            );\r\n            require(\r\n                msg.sender == originContracts[i].ownerOf(originTokenIds[i]),\r\n                \"DerivativeToekn: caller is not the token owner\"\r\n            );\r\n            ids[i] = getTokenId(originContracts[i], originTokenIds[i]);\r\n        }\r\n\r\n        _safeMintBatch(to, ids, amounts, originContracts, originTokenIds);\r\n        payable(owner()).transfer(msg.value);\r\n    }\r\n\r\n    // Burn a ERC721's derivative token amount\r\n    function burn(\r\n        address from,\r\n        IERC721MetadataUpgradeable originContract,\r\n        uint256 originTokenId,\r\n        uint256 amount\r\n    ) public virtual onlyOwner {\r\n        _burn(from, getTokenId(originContract, originTokenId), amount);\r\n    }\r\n\r\n    // Mint a derivative token\r\n    function _safeMint(\r\n        address to,\r\n        uint256 id,\r\n        uint256 amount,\r\n        IERC721MetadataUpgradeable originContract,\r\n        uint256 originTokenId\r\n    ) internal virtual {\r\n        _mint(to, id, amount, \"\");\r\n\r\n        _tokenAmounts[originContract][originTokenId] += amount;\r\n        // _originTokens[id] = originToken;\r\n    }\r\n\r\n    function _safeMintBatch(\r\n        address to,\r\n        uint256[] memory ids,\r\n        uint256[] memory amounts,\r\n        IERC721MetadataUpgradeable[] memory originContracts,\r\n        uint256[] memory originTokenIds\r\n    ) internal virtual {\r\n        _mintBatch(to, ids, amounts, \"\");\r\n        for (uint256 i = 0; i < ids.length; i++) {\r\n            _tokenAmounts[originContracts[i]][originTokenIds[i]] += amounts[i];\r\n            // _originTokens[ids[i]] = originTokens[i];\r\n        }\r\n        payable(owner()).transfer(msg.value);\r\n    }\r\n\r\n    /**\r\n     * @dev See {IERC165-supportsInterface}.\r\n     */\r\n    function supportsInterface(bytes4 interfaceId)\r\n        public\r\n        view\r\n        virtual\r\n        override\r\n        returns (bool)\r\n    {\r\n        return\r\n            interfaceId == type(IERC1155Upgradeable).interfaceId ||\r\n            interfaceId == type(IERC1155MetadataURIUpgradeable).interfaceId ||\r\n            interfaceId == type(IERC165Upgradeable).interfaceId ||\r\n            interfaceId == type(IERC1155MetadataURIUpgradeable).interfaceId;\r\n    }\r\n\r\n    // Setting Default URI for BaseURI\r\n    function setDefaultURI(string memory uri_) public virtual onlyOwner {\r\n        _defalutURI = uri_;\r\n    }\r\n\r\n    /**\r\n     * @dev See {IERC1155MetadataURI-uri}.\r\n     *\r\n     * This implementation returns the same URI for *all* token types. It relies\r\n     * on the token type ID substitution mechanism\r\n     * https://eips.ethereum.org/EIPS/eip-1155#metadata[defined in the EIP].\r\n     *\r\n     * Clients calling this function must replace the `\\{id\\}` substring with the\r\n     * actual token type ID.\r\n     */\r\n    function uri(uint256 id)\r\n        public\r\n        view\r\n        virtual\r\n        override\r\n        returns (string memory)\r\n    {\r\n        return string(abi.encodePacked(_defalutURI,id));\r\n    }\r\n\r\n\r\n\r\n\r\n\r\n\r\n    /**\r\n     * @dev See {IERC1155-balanceOf}.\r\n     *\r\n     * Requirements:\r\n     *\r\n     * - `account` cannot be the zero address.\r\n     */\r\n    function balanceOf(address account, uint256 id)\r\n        public\r\n        view\r\n        virtual\r\n        override\r\n        returns (uint256)\r\n    {\r\n        require(\r\n            account != address(0),\r\n            \"ERC1155: balance query for the zero address\"\r\n        );\r\n        return _balances[id][account];\r\n    }\r\n\r\n    /**\r\n     * @dev See {IERC1155-balanceOfBatch}.\r\n     *\r\n     * Requirements:\r\n     *\r\n     * - `accounts` and `ids` must have the same length.\r\n     */\r\n    function balanceOfBatch(address[] memory accounts, uint256[] memory ids)\r\n        public\r\n        view\r\n        virtual\r\n        override\r\n        returns (uint256[] memory)\r\n    {\r\n        require(\r\n            accounts.length == ids.length,\r\n            \"ERC1155: accounts and ids length mismatch\"\r\n        );\r\n\r\n        uint256[] memory batchBalances = new uint256[](accounts.length);\r\n\r\n        for (uint256 i = 0; i < accounts.length; ++i) {\r\n            batchBalances[i] = balanceOf(accounts[i], ids[i]);\r\n        }\r\n\r\n        return batchBalances;\r\n    }\r\n\r\n    /**\r\n     * @dev See {IERC1155-setApprovalForAll}.\r\n     */\r\n    function setApprovalForAll(address operator, bool approved)\r\n        public\r\n        virtual\r\n        override\r\n    {\r\n        _setApprovalForAll(_msgSender(), operator, approved);\r\n    }\r\n\r\n    /**\r\n     * @dev See {IERC1155-isApprovedForAll}.\r\n     */\r\n    function isApprovedForAll(address account, address operator)\r\n        public\r\n        view\r\n        virtual\r\n        override\r\n        returns (bool)\r\n    {\r\n        return _operatorApprovals[account][operator];\r\n    }\r\n\r\n    /**\r\n     * @dev See {IERC1155-safeTransferFrom}.\r\n     */\r\n    function safeTransferFrom(\r\n        address from,\r\n        address to,\r\n        uint256 id,\r\n        uint256 amount,\r\n        bytes memory data\r\n    ) public virtual override {\r\n        require(\r\n            from == _msgSender() || isApprovedForAll(from, _msgSender()),\r\n            \"ERC1155: caller is not owner nor approved\"\r\n        );\r\n        _safeTransferFrom(from, to, id, amount, data);\r\n    }\r\n\r\n    /**\r\n     * @dev See {IERC1155-safeBatchTransferFrom}.\r\n     */\r\n    function safeBatchTransferFrom(\r\n        address from,\r\n        address to,\r\n        uint256[] memory ids,\r\n        uint256[] memory amounts,\r\n        bytes memory data\r\n    ) public virtual override {\r\n        require(\r\n            from == _msgSender() || isApprovedForAll(from, _msgSender()),\r\n            \"ERC1155: transfer caller is not owner nor approved\"\r\n        );\r\n        _safeBatchTransferFrom(from, to, ids, amounts, data);\r\n    }\r\n\r\n    /**\r\n     * @dev Transfers `amount` tokens of token type `id` from `from` to `to`.\r\n     *\r\n     * Emits a {TransferSingle} event.\r\n     *\r\n     * Requirements:\r\n     *\r\n     * - `to` cannot be the zero address.\r\n     * - `from` must have a balance of tokens of type `id` of at least `amount`.\r\n     * - If `to` refers to a smart contract, it must implement {IERC1155Receiver-onERC1155Received} and return the\r\n     * acceptance magic value.\r\n     */\r\n    function _safeTransferFrom(\r\n        address from,\r\n        address to,\r\n        uint256 id,\r\n        uint256 amount,\r\n        bytes memory data\r\n    ) internal virtual {\r\n        require(to != address(0), \"ERC1155: transfer to the zero address\");\r\n\r\n        address operator = _msgSender();\r\n\r\n        _beforeTokenTransfer(\r\n            operator,\r\n            from,\r\n            to,\r\n            _asSingletonArray(id),\r\n            _asSingletonArray(amount),\r\n            data\r\n        );\r\n\r\n        uint256 fromBalance = _balances[id][from];\r\n        require(\r\n            fromBalance >= amount,\r\n            \"ERC1155: insufficient balance for transfer\"\r\n        );\r\n        unchecked {\r\n            _balances[id][from] = fromBalance - amount;\r\n        }\r\n        _balances[id][to] += amount;\r\n\r\n        emit TransferSingle(operator, from, to, id, amount);\r\n\r\n        _doSafeTransferAcceptanceCheck(operator, from, to, id, amount, data);\r\n    }\r\n\r\n    /**\r\n     * @dev xref:ROOT:erc1155.adoc#batch-operations[Batched] version of {_safeTransferFrom}.\r\n     *\r\n     * Emits a {TransferBatch} event.\r\n     *\r\n     * Requirements:\r\n     *\r\n     * - If `to` refers to a smart contract, it must implement {IERC1155Receiver-onERC1155BatchReceived} and return the\r\n     * acceptance magic value.\r\n     */\r\n    function _safeBatchTransferFrom(\r\n        address from,\r\n        address to,\r\n        uint256[] memory ids,\r\n        uint256[] memory amounts,\r\n        bytes memory data\r\n    ) internal virtual {\r\n        require(\r\n            ids.length == amounts.length,\r\n            \"ERC1155: ids and amounts length mismatch\"\r\n        );\r\n        require(to != address(0), \"ERC1155: transfer to the zero address\");\r\n\r\n        address operator = _msgSender();\r\n\r\n        _beforeTokenTransfer(operator, from, to, ids, amounts, data);\r\n\r\n        for (uint256 i = 0; i < ids.length; ++i) {\r\n            uint256 id = ids[i];\r\n            uint256 amount = amounts[i];\r\n\r\n            uint256 fromBalance = _balances[id][from];\r\n            require(\r\n                fromBalance >= amount,\r\n                \"ERC1155: insufficient balance for transfer\"\r\n            );\r\n            unchecked {\r\n                _balances[id][from] = fromBalance - amount;\r\n            }\r\n            _balances[id][to] += amount;\r\n        }\r\n\r\n        emit TransferBatch(operator, from, to, ids, amounts);\r\n\r\n        _doSafeBatchTransferAcceptanceCheck(\r\n            operator,\r\n            from,\r\n            to,\r\n            ids,\r\n            amounts,\r\n            data\r\n        );\r\n    }\r\n\r\n    /**\r\n     * @dev Creates `amount` tokens of token type `id`, and assigns them to `to`.\r\n     *\r\n     * Emits a {TransferSingle} event.\r\n     *\r\n     * Requirements:\r\n     *\r\n     * - `to` cannot be the zero address.\r\n     * - If `to` refers to a smart contract, it must implement {IERC1155Receiver-onERC1155Received} and return the\r\n     * acceptance magic value.\r\n     */\r\n    function _mint(\r\n        address to,\r\n        uint256 id,\r\n        uint256 amount,\r\n        bytes memory data\r\n    ) internal virtual {\r\n        require(to != address(0), \"ERC1155: mint to the zero address\");\r\n\r\n        address operator = _msgSender();\r\n\r\n        _beforeTokenTransfer(\r\n            operator,\r\n            address(0),\r\n            to,\r\n            _asSingletonArray(id),\r\n            _asSingletonArray(amount),\r\n            data\r\n        );\r\n\r\n        _balances[id][to] += amount;\r\n        emit TransferSingle(operator, address(0), to, id, amount);\r\n\r\n        _doSafeTransferAcceptanceCheck(\r\n            operator,\r\n            address(0),\r\n            to,\r\n            id,\r\n            amount,\r\n            data\r\n        );\r\n    }\r\n\r\n    /**\r\n     * @dev xref:ROOT:erc1155.adoc#batch-operations[Batched] version of {_mint}.\r\n     *\r\n     * Requirements:\r\n     *\r\n     * - `ids` and `amounts` must have the same length.\r\n     * - If `to` refers to a smart contract, it must implement {IERC1155Receiver-onERC1155BatchReceived} and return the\r\n     * acceptance magic value.\r\n     */\r\n    function _mintBatch(\r\n        address to,\r\n        uint256[] memory ids,\r\n        uint256[] memory amounts,\r\n        bytes memory data\r\n    ) internal virtual {\r\n        require(to != address(0), \"ERC1155: mint to the zero address\");\r\n        require(\r\n            ids.length == amounts.length,\r\n            \"ERC1155: ids and amounts length mismatch\"\r\n        );\r\n\r\n        address operator = _msgSender();\r\n\r\n        _beforeTokenTransfer(operator, address(0), to, ids, amounts, data);\r\n\r\n        for (uint256 i = 0; i < ids.length; i++) {\r\n            _balances[ids[i]][to] += amounts[i];\r\n        }\r\n\r\n        emit TransferBatch(operator, address(0), to, ids, amounts);\r\n\r\n        _doSafeBatchTransferAcceptanceCheck(\r\n            operator,\r\n            address(0),\r\n            to,\r\n            ids,\r\n            amounts,\r\n            data\r\n        );\r\n    }\r\n\r\n    /**\r\n     * @dev Destroys `amount` tokens of token type `id` from `from`\r\n     *\r\n     * Requirements:\r\n     *\r\n     * - `from` cannot be the zero address.\r\n     * - `from` must have at least `amount` tokens of token type `id`.\r\n     */\r\n    function _burn(\r\n        address from,\r\n        uint256 id,\r\n        uint256 amount\r\n    ) internal virtual {\r\n        require(from != address(0), \"ERC1155: burn from the zero address\");\r\n\r\n        address operator = _msgSender();\r\n\r\n        _beforeTokenTransfer(\r\n            operator,\r\n            from,\r\n            address(0),\r\n            _asSingletonArray(id),\r\n            _asSingletonArray(amount),\r\n            \"\"\r\n        );\r\n\r\n        uint256 fromBalance = _balances[id][from];\r\n        require(fromBalance >= amount, \"ERC1155: burn amount exceeds balance\");\r\n        unchecked {\r\n            _balances[id][from] = fromBalance - amount;\r\n        }\r\n\r\n        emit TransferSingle(operator, from, address(0), id, amount);\r\n    }\r\n\r\n    /**\r\n     * @dev xref:ROOT:erc1155.adoc#batch-operations[Batched] version of {_burn}.\r\n     *\r\n     * Requirements:\r\n     *\r\n     * - `ids` and `amounts` must have the same length.\r\n     */\r\n    function _burnBatch(\r\n        address from,\r\n        uint256[] memory ids,\r\n        uint256[] memory amounts\r\n    ) internal virtual {\r\n        require(from != address(0), \"ERC1155: burn from the zero address\");\r\n        require(\r\n            ids.length == amounts.length,\r\n            \"ERC1155: ids and amounts length mismatch\"\r\n        );\r\n\r\n        address operator = _msgSender();\r\n\r\n        _beforeTokenTransfer(operator, from, address(0), ids, amounts, \"\");\r\n\r\n        for (uint256 i = 0; i < ids.length; i++) {\r\n            uint256 id = ids[i];\r\n            uint256 amount = amounts[i];\r\n\r\n            uint256 fromBalance = _balances[id][from];\r\n            require(\r\n                fromBalance >= amount,\r\n                \"ERC1155: burn amount exceeds balance\"\r\n            );\r\n            unchecked {\r\n                _balances[id][from] = fromBalance - amount;\r\n            }\r\n        }\r\n\r\n        emit TransferBatch(operator, from, address(0), ids, amounts);\r\n    }\r\n\r\n    /**\r\n     * @dev Approve `operator` to operate on all of `owner` tokens\r\n     *\r\n     * Emits a {ApprovalForAll} event.\r\n     */\r\n    function _setApprovalForAll(\r\n        address owner,\r\n        address operator,\r\n        bool approved\r\n    ) internal virtual {\r\n        require(owner != operator, \"ERC1155: setting approval status for self\");\r\n        _operatorApprovals[owner][operator] = approved;\r\n        emit ApprovalForAll(owner, operator, approved);\r\n    }\r\n\r\n    /**\r\n     * @dev Hook that is called before any token transfer. This includes minting\r\n     * and burning, as well as batched variants.\r\n     *\r\n     * The same hook is called on both single and batched variants. For single\r\n     * transfers, the length of the `id` and `amount` arrays will be 1.\r\n     *\r\n     * Calling conditions (for each `id` and `amount` pair):\r\n     *\r\n     * - When `from` and `to` are both non-zero, `amount` of ``from``'s tokens\r\n     * of token type `id` will be  transferred to `to`.\r\n     * - When `from` is zero, `amount` tokens of token type `id` will be minted\r\n     * for `to`.\r\n     * - when `to` is zero, `amount` of ``from``'s tokens of token type `id`\r\n     * will be burned.\r\n     * - `from` and `to` are never both zero.\r\n     * - `ids` and `amounts` have the same, non-zero length.\r\n     *\r\n     * To learn more about hooks, head to xref:ROOT:extending-contracts.adoc#using-hooks[Using Hooks].\r\n     */\r\n    function _beforeTokenTransfer(\r\n        address operator,\r\n        address from,\r\n        address to,\r\n        uint256[] memory ids,\r\n        uint256[] memory amounts,\r\n        bytes memory data\r\n    ) internal virtual {}\r\n\r\n    function _doSafeTransferAcceptanceCheck(\r\n        address operator,\r\n        address from,\r\n        address to,\r\n        uint256 id,\r\n        uint256 amount,\r\n        bytes memory data\r\n    ) private {\r\n        if (to.isContract()) {\r\n            try\r\n                IERC1155ReceiverUpgradeable(to).onERC1155Received(\r\n                    operator,\r\n                    from,\r\n                    id,\r\n                    amount,\r\n                    data\r\n                )\r\n            returns (bytes4 response) {\r\n                if (\r\n                    response !=\r\n                    IERC1155ReceiverUpgradeable.onERC1155Received.selector\r\n                ) {\r\n                    revert(\"ERC1155: ERC1155Receiver rejected tokens\");\r\n                }\r\n            } catch Error(string memory reason) {\r\n                revert(reason);\r\n            } catch {\r\n                revert(\"ERC1155: transfer to non ERC1155Receiver implementer\");\r\n            }\r\n        }\r\n    }\r\n\r\n    function _doSafeBatchTransferAcceptanceCheck(\r\n        address operator,\r\n        address from,\r\n        address to,\r\n        uint256[] memory ids,\r\n        uint256[] memory amounts,\r\n        bytes memory data\r\n    ) private {\r\n        if (to.isContract()) {\r\n            try\r\n                IERC1155ReceiverUpgradeable(to).onERC1155BatchReceived(\r\n                    operator,\r\n                    from,\r\n                    ids,\r\n                    amounts,\r\n                    data\r\n                )\r\n            returns (bytes4 response) {\r\n                if (\r\n                    response !=\r\n                    IERC1155ReceiverUpgradeable.onERC1155BatchReceived.selector\r\n                ) {\r\n                    revert(\"ERC1155: ERC1155Receiver rejected tokens\");\r\n                }\r\n            } catch Error(string memory reason) {\r\n                revert(reason);\r\n            } catch {\r\n                revert(\"ERC1155: transfer to non ERC1155Receiver implementer\");\r\n            }\r\n        }\r\n    }\r\n\r\n    /**\r\n     -----------------------------\r\n     * @dev PausableUpgradeable functions\r\n     */\r\n    function pause() public onlyOwner {\r\n        _pause();\r\n    }\r\n\r\n    function unpause() public onlyOwner {\r\n        _unpause();\r\n    }\r\n\r\n    /**\r\n     * @dev PausableUpgradeable functions\r\n     -----------------------------\r\n     */\r\n\r\n    function _asSingletonArray(uint256 element)\r\n        private\r\n        pure\r\n        returns (uint256[] memory)\r\n    {\r\n        uint256[] memory array = new uint256[](1);\r\n        array[0] = element;\r\n\r\n        return array;\r\n    }\r\n\r\n    function _authorizeUpgrade(address newImplementation)\r\n        internal\r\n        override\r\n        onlyOwner\r\n    {}\r\n}\r\n",
  "sourcePath": "E:\\Currentworkspace\\work\\Artalaxies_contract\\contracts\\testnet\\TestnetDerivativeToken.sol",
  "compiler": {
    "name": "solc",
    "version": "0.8.9+commit.e5eed63a.Emscripten.clang"
  },
  "schemaVersion": "3.4.3",
  "updatedAt": "2021-12-27T03:42:45.916Z",
  "networkType": "ethereum",
  "devdoc": {
    "kind": "dev",
    "methods": {
      "balanceOf(address,uint256)": {
        "details": "See {IERC1155-balanceOf}. Requirements: - `account` cannot be the zero address."
      },
      "balanceOfBatch(address[],uint256[])": {
        "details": "See {IERC1155-balanceOfBatch}. Requirements: - `accounts` and `ids` must have the same length."
      },
      "constructor": {
        "custom:oz-upgrades-unsafe-allow": "constructor"
      },
      "isApprovedForAll(address,address)": {
        "details": "See {IERC1155-isApprovedForAll}."
      },
      "owner()": {
        "details": "Returns the address of the current owner."
      },
      "pause()": {
        "details": "PausableUpgradeable functions"
      },
      "paused()": {
        "details": "Returns true if the contract is paused, and false otherwise."
      },
      "renounceOwnership()": {
        "details": "Leaves the contract without owner. It will not be possible to call `onlyOwner` functions anymore. Can only be called by the current owner. NOTE: Renouncing ownership will leave the contract without an owner, thereby removing any functionality that is only available to the owner."
      },
      "safeBatchTransferFrom(address,address,uint256[],uint256[],bytes)": {
        "details": "See {IERC1155-safeBatchTransferFrom}."
      },
      "safeTransferFrom(address,address,uint256,uint256,bytes)": {
        "details": "See {IERC1155-safeTransferFrom}."
      },
      "setApprovalForAll(address,bool)": {
        "details": "See {IERC1155-setApprovalForAll}."
      },
      "supportsInterface(bytes4)": {
        "details": "See {IERC165-supportsInterface}."
      },
      "transferOwnership(address)": {
        "details": "Transfers ownership of the contract to a new account (`newOwner`). Can only be called by the current owner."
      },
      "upgradeTo(address)": {
        "details": "Upgrade the implementation of the proxy to `newImplementation`. Calls {_authorizeUpgrade}. Emits an {Upgraded} event."
      },
      "upgradeToAndCall(address,bytes)": {
        "details": "Upgrade the implementation of the proxy to `newImplementation`, and subsequently execute the function call encoded in `data`. Calls {_authorizeUpgrade}. Emits an {Upgraded} event."
      },
      "uri(uint256)": {
        "details": "See {IERC1155MetadataURI-uri}. This implementation returns the same URI for *all* token types. It relies on the token type ID substitution mechanism https://eips.ethereum.org/EIPS/eip-1155#metadata[defined in the EIP]. Clients calling this function must replace the `\\{id\\}` substring with the actual token type ID."
      }
    },
    "version": 1
  },
  "userdoc": {
    "kind": "user",
    "methods": {
      "pause()": {
        "notice": "-----------------------------"
      }
    },
    "version": 1
  }
}