{
  "contractName": "ArtalaxiesMarket",
  "abi": [
    {
      "inputs": [],
      "stateMutability": "nonpayable",
      "type": "constructor"
    },
    {
      "anonymous": false,
      "inputs": [
        {
          "indexed": false,
          "internalType": "address",
          "name": "previousAdmin",
          "type": "address"
        },
        {
          "indexed": false,
          "internalType": "address",
          "name": "newAdmin",
          "type": "address"
        }
      ],
      "name": "AdminChanged",
      "type": "event"
    },
    {
      "anonymous": false,
      "inputs": [
        {
          "indexed": true,
          "internalType": "address",
          "name": "owner",
          "type": "address"
        },
        {
          "indexed": true,
          "internalType": "address",
          "name": "approved",
          "type": "address"
        },
        {
          "indexed": true,
          "internalType": "uint256",
          "name": "tokenId",
          "type": "uint256"
        }
      ],
      "name": "Approval",
      "type": "event"
    },
    {
      "anonymous": false,
      "inputs": [
        {
          "indexed": true,
          "internalType": "address",
          "name": "owner",
          "type": "address"
        },
        {
          "indexed": true,
          "internalType": "address",
          "name": "operator",
          "type": "address"
        },
        {
          "indexed": false,
          "internalType": "bool",
          "name": "approved",
          "type": "bool"
        }
      ],
      "name": "ApprovalForAll",
      "type": "event"
    },
    {
      "anonymous": false,
      "inputs": [
        {
          "indexed": true,
          "internalType": "address",
          "name": "beacon",
          "type": "address"
        }
      ],
      "name": "BeaconUpgraded",
      "type": "event"
    },
    {
      "anonymous": false,
      "inputs": [
        {
          "indexed": true,
          "internalType": "bytes32",
          "name": "role",
          "type": "bytes32"
        },
        {
          "indexed": true,
          "internalType": "bytes32",
          "name": "previousAdminRole",
          "type": "bytes32"
        },
        {
          "indexed": true,
          "internalType": "bytes32",
          "name": "newAdminRole",
          "type": "bytes32"
        }
      ],
      "name": "RoleAdminChanged",
      "type": "event"
    },
    {
      "anonymous": false,
      "inputs": [
        {
          "indexed": true,
          "internalType": "bytes32",
          "name": "role",
          "type": "bytes32"
        },
        {
          "indexed": true,
          "internalType": "address",
          "name": "account",
          "type": "address"
        },
        {
          "indexed": true,
          "internalType": "address",
          "name": "sender",
          "type": "address"
        }
      ],
      "name": "RoleGranted",
      "type": "event"
    },
    {
      "anonymous": false,
      "inputs": [
        {
          "indexed": true,
          "internalType": "bytes32",
          "name": "role",
          "type": "bytes32"
        },
        {
          "indexed": true,
          "internalType": "address",
          "name": "account",
          "type": "address"
        },
        {
          "indexed": true,
          "internalType": "address",
          "name": "sender",
          "type": "address"
        }
      ],
      "name": "RoleRevoked",
      "type": "event"
    },
    {
      "anonymous": false,
      "inputs": [
        {
          "indexed": true,
          "internalType": "address",
          "name": "from",
          "type": "address"
        },
        {
          "indexed": true,
          "internalType": "address",
          "name": "to",
          "type": "address"
        },
        {
          "indexed": true,
          "internalType": "uint256",
          "name": "tokenId",
          "type": "uint256"
        }
      ],
      "name": "Transfer",
      "type": "event"
    },
    {
      "anonymous": false,
      "inputs": [
        {
          "indexed": true,
          "internalType": "address",
          "name": "implementation",
          "type": "address"
        }
      ],
      "name": "Upgraded",
      "type": "event"
    },
    {
      "inputs": [],
      "name": "DEFAULT_ADMIN_ROLE",
      "outputs": [
        {
          "internalType": "bytes32",
          "name": "",
          "type": "bytes32"
        }
      ],
      "stateMutability": "view",
      "type": "function"
    },
    {
      "inputs": [],
      "name": "MINTER_ROLE",
      "outputs": [
        {
          "internalType": "bytes32",
          "name": "",
          "type": "bytes32"
        }
      ],
      "stateMutability": "view",
      "type": "function"
    },
    {
      "inputs": [],
      "name": "UPGRADER_ROLE",
      "outputs": [
        {
          "internalType": "bytes32",
          "name": "",
          "type": "bytes32"
        }
      ],
      "stateMutability": "view",
      "type": "function"
    },
    {
      "inputs": [
        {
          "internalType": "address",
          "name": "to",
          "type": "address"
        },
        {
          "internalType": "uint256",
          "name": "tokenId",
          "type": "uint256"
        }
      ],
      "name": "approve",
      "outputs": [],
      "stateMutability": "nonpayable",
      "type": "function"
    },
    {
      "inputs": [
        {
          "internalType": "address",
          "name": "owner",
          "type": "address"
        }
      ],
      "name": "balanceOf",
      "outputs": [
        {
          "internalType": "uint256",
          "name": "",
          "type": "uint256"
        }
      ],
      "stateMutability": "view",
      "type": "function"
    },
    {
      "inputs": [
        {
          "internalType": "uint256",
          "name": "tokenId",
          "type": "uint256"
        }
      ],
      "name": "burn",
      "outputs": [],
      "stateMutability": "nonpayable",
      "type": "function"
    },
    {
      "inputs": [
        {
          "internalType": "uint256",
          "name": "tokenId",
          "type": "uint256"
        }
      ],
      "name": "getApproved",
      "outputs": [
        {
          "internalType": "address",
          "name": "",
          "type": "address"
        }
      ],
      "stateMutability": "view",
      "type": "function"
    },
    {
      "inputs": [
        {
          "internalType": "bytes32",
          "name": "role",
          "type": "bytes32"
        }
      ],
      "name": "getRoleAdmin",
      "outputs": [
        {
          "internalType": "bytes32",
          "name": "",
          "type": "bytes32"
        }
      ],
      "stateMutability": "view",
      "type": "function"
    },
    {
      "inputs": [
        {
          "internalType": "bytes32",
          "name": "role",
          "type": "bytes32"
        },
        {
          "internalType": "address",
          "name": "account",
          "type": "address"
        }
      ],
      "name": "grantRole",
      "outputs": [],
      "stateMutability": "nonpayable",
      "type": "function"
    },
    {
      "inputs": [
        {
          "internalType": "bytes32",
          "name": "role",
          "type": "bytes32"
        },
        {
          "internalType": "address",
          "name": "account",
          "type": "address"
        }
      ],
      "name": "hasRole",
      "outputs": [
        {
          "internalType": "bool",
          "name": "",
          "type": "bool"
        }
      ],
      "stateMutability": "view",
      "type": "function"
    },
    {
      "inputs": [
        {
          "internalType": "address",
          "name": "owner",
          "type": "address"
        },
        {
          "internalType": "address",
          "name": "operator",
          "type": "address"
        }
      ],
      "name": "isApprovedForAll",
      "outputs": [
        {
          "internalType": "bool",
          "name": "",
          "type": "bool"
        }
      ],
      "stateMutability": "view",
      "type": "function"
    },
    {
      "inputs": [],
      "name": "name",
      "outputs": [
        {
          "internalType": "string",
          "name": "",
          "type": "string"
        }
      ],
      "stateMutability": "view",
      "type": "function"
    },
    {
      "inputs": [
        {
          "internalType": "uint256",
          "name": "tokenId",
          "type": "uint256"
        }
      ],
      "name": "ownerOf",
      "outputs": [
        {
          "internalType": "address",
          "name": "",
          "type": "address"
        }
      ],
      "stateMutability": "view",
      "type": "function"
    },
    {
      "inputs": [
        {
          "internalType": "bytes32",
          "name": "role",
          "type": "bytes32"
        },
        {
          "internalType": "address",
          "name": "account",
          "type": "address"
        }
      ],
      "name": "renounceRole",
      "outputs": [],
      "stateMutability": "nonpayable",
      "type": "function"
    },
    {
      "inputs": [
        {
          "internalType": "bytes32",
          "name": "role",
          "type": "bytes32"
        },
        {
          "internalType": "address",
          "name": "account",
          "type": "address"
        }
      ],
      "name": "revokeRole",
      "outputs": [],
      "stateMutability": "nonpayable",
      "type": "function"
    },
    {
      "inputs": [
        {
          "internalType": "address",
          "name": "from",
          "type": "address"
        },
        {
          "internalType": "address",
          "name": "to",
          "type": "address"
        },
        {
          "internalType": "uint256",
          "name": "tokenId",
          "type": "uint256"
        }
      ],
      "name": "safeTransferFrom",
      "outputs": [],
      "stateMutability": "nonpayable",
      "type": "function"
    },
    {
      "inputs": [
        {
          "internalType": "address",
          "name": "from",
          "type": "address"
        },
        {
          "internalType": "address",
          "name": "to",
          "type": "address"
        },
        {
          "internalType": "uint256",
          "name": "tokenId",
          "type": "uint256"
        },
        {
          "internalType": "bytes",
          "name": "_data",
          "type": "bytes"
        }
      ],
      "name": "safeTransferFrom",
      "outputs": [],
      "stateMutability": "nonpayable",
      "type": "function"
    },
    {
      "inputs": [
        {
          "internalType": "address",
          "name": "operator",
          "type": "address"
        },
        {
          "internalType": "bool",
          "name": "approved",
          "type": "bool"
        }
      ],
      "name": "setApprovalForAll",
      "outputs": [],
      "stateMutability": "nonpayable",
      "type": "function"
    },
    {
      "inputs": [],
      "name": "symbol",
      "outputs": [
        {
          "internalType": "string",
          "name": "",
          "type": "string"
        }
      ],
      "stateMutability": "view",
      "type": "function"
    },
    {
      "inputs": [
        {
          "internalType": "address",
          "name": "from",
          "type": "address"
        },
        {
          "internalType": "address",
          "name": "to",
          "type": "address"
        },
        {
          "internalType": "uint256",
          "name": "tokenId",
          "type": "uint256"
        }
      ],
      "name": "transferFrom",
      "outputs": [],
      "stateMutability": "nonpayable",
      "type": "function"
    },
    {
      "inputs": [
        {
          "internalType": "address",
          "name": "newImplementation",
          "type": "address"
        }
      ],
      "name": "upgradeTo",
      "outputs": [],
      "stateMutability": "nonpayable",
      "type": "function"
    },
    {
      "inputs": [
        {
          "internalType": "address",
          "name": "newImplementation",
          "type": "address"
        },
        {
          "internalType": "bytes",
          "name": "data",
          "type": "bytes"
        }
      ],
      "name": "upgradeToAndCall",
      "outputs": [],
      "stateMutability": "payable",
      "type": "function"
    },
    {
      "inputs": [],
      "name": "initialize",
      "outputs": [],
      "stateMutability": "nonpayable",
      "type": "function"
    },
    {
      "inputs": [
        {
          "internalType": "address",
          "name": "to",
          "type": "address"
        }
      ],
      "name": "safeMint",
      "outputs": [],
      "stateMutability": "nonpayable",
      "type": "function"
    },
    {
      "inputs": [
        {
          "internalType": "address",
          "name": "to",
          "type": "address"
        },
        {
          "internalType": "string",
          "name": "uri",
          "type": "string"
        }
      ],
      "name": "safeMint",
      "outputs": [],
      "stateMutability": "nonpayable",
      "type": "function"
    },
    {
      "inputs": [
        {
          "internalType": "string",
          "name": "uri_",
          "type": "string"
        }
      ],
      "name": "setBaseURI",
      "outputs": [],
      "stateMutability": "nonpayable",
      "type": "function"
    },
    {
      "inputs": [],
      "name": "getBaseURI",
      "outputs": [
        {
          "internalType": "string",
          "name": "",
          "type": "string"
        }
      ],
      "stateMutability": "view",
      "type": "function"
    },
    {
      "inputs": [],
      "name": "getTotalMint",
      "outputs": [
        {
          "internalType": "uint256",
          "name": "",
          "type": "uint256"
        }
      ],
      "stateMutability": "view",
      "type": "function"
    },
    {
      "inputs": [],
      "name": "version",
      "outputs": [
        {
          "internalType": "string",
          "name": "",
          "type": "string"
        }
      ],
      "stateMutability": "pure",
      "type": "function"
    },
    {
      "inputs": [
        {
          "internalType": "uint256",
          "name": "tokenId",
          "type": "uint256"
        }
      ],
      "name": "tokenURI",
      "outputs": [
        {
          "internalType": "string",
          "name": "",
          "type": "string"
        }
      ],
      "stateMutability": "view",
      "type": "function"
    },
    {
      "inputs": [
        {
          "internalType": "bytes4",
          "name": "interfaceId",
          "type": "bytes4"
        }
      ],
      "name": "supportsInterface",
      "outputs": [
        {
          "internalType": "bool",
          "name": "",
          "type": "bool"
        }
      ],
      "stateMutability": "view",
      "type": "function"
    }
  ],
  "bytecode": "0x60a06040523073ffffffffffffffffffffffffffffffffffffffff1660809073ffffffffffffffffffffffffffffffffffffffff168152503480156200004457600080fd5b50600060019054906101000a900460ff16806200006c575060008054906101000a900460ff16155b620000ae576040517f08c379a0000000000000000000000000000000000000000000000000000000008152600401620000a590620001af565b60405180910390fd5b60008060019054906101000a900460ff161590508015620000ff576001600060016101000a81548160ff02191690831515021790555060016000806101000a81548160ff0219169083151502179055505b8015620001215760008060016101000a81548160ff0219169083151502179055505b50620001d1565b600082825260208201905092915050565b7f496e697469616c697a61626c653a20636f6e747261637420697320616c72656160008201527f647920696e697469616c697a6564000000000000000000000000000000000000602082015250565b600062000197602e8362000128565b9150620001a48262000139565b604082019050919050565b60006020820190508181036000830152620001ca8162000188565b9050919050565b6080516158bd6200020260003960008181610ad401528181610b6301528181610d340152610dc301526158bd6000f3fe6080604052600436106101d85760003560e01c80636352211e11610102578063b88d4fde11610095578063d547741f11610064578063d547741f146106a9578063d795cdb7146106d2578063e985e9c5146106fd578063f72c0d8b1461073a576101d8565b8063b88d4fde146105ef578063c87b56dd14610618578063d204c45e14610655578063d53913931461067e576101d8565b806391d14854116100d157806391d148541461053357806395d89b4114610570578063a217fddf1461059b578063a22cb465146105c6576101d8565b80636352211e1461047757806370a08231146104b4578063714c5398146104f15780638129fc1c1461051c576101d8565b806336568abe1161017a57806342966c681161014957806342966c68146103de5780634f1ef2861461040757806354fd4d501461042357806355f804b31461044e576101d8565b806336568abe1461033a5780633659cfe61461036357806340d097c31461038c57806342842e0e146103b5576101d8565b8063095ea7b3116101b6578063095ea7b31461028257806323b872dd146102ab578063248a9ca3146102d45780632f2ff15d14610311576101d8565b806301ffc9a7146101dd57806306fdde031461021a578063081812fc14610245575b600080fd5b3480156101e957600080fd5b5061020460048036038101906101ff9190613da5565b610765565b6040516102119190613ded565b60405180910390f35b34801561022657600080fd5b5061022f610777565b60405161023c9190613ea1565b60405180910390f35b34801561025157600080fd5b5061026c60048036038101906102679190613ef9565b610809565b6040516102799190613f67565b60405180910390f35b34801561028e57600080fd5b506102a960048036038101906102a49190613fae565b61088e565b005b3480156102b757600080fd5b506102d260048036038101906102cd9190613fee565b6109a6565b005b3480156102e057600080fd5b506102fb60048036038101906102f69190614077565b610a06565b60405161030891906140b3565b60405180910390f35b34801561031d57600080fd5b50610338600480360381019061033391906140ce565b610a26565b005b34801561034657600080fd5b50610361600480360381019061035c91906140ce565b610a4f565b005b34801561036f57600080fd5b5061038a6004803603810190610385919061410e565b610ad2565b005b34801561039857600080fd5b506103b360048036038101906103ae919061410e565b610c5b565b005b3480156103c157600080fd5b506103dc60048036038101906103d79190613fee565b610cb6565b005b3480156103ea57600080fd5b5061040560048036038101906104009190613ef9565b610cd6565b005b610421600480360381019061041c9190614270565b610d32565b005b34801561042f57600080fd5b50610438610e6f565b6040516104459190613ea1565b60405180910390f35b34801561045a57600080fd5b506104756004803603810190610470919061436d565b610eac565b005b34801561048357600080fd5b5061049e60048036038101906104999190613ef9565b610edd565b6040516104ab9190613f67565b60405180910390f35b3480156104c057600080fd5b506104db60048036038101906104d6919061410e565b610f8f565b6040516104e891906143c5565b60405180910390f35b3480156104fd57600080fd5b50610506611047565b6040516105139190613ea1565b60405180910390f35b34801561052857600080fd5b50610531611056565b005b34801561053f57600080fd5b5061055a600480360381019061055591906140ce565b611254565b6040516105679190613ded565b60405180910390f35b34801561057c57600080fd5b506105856112bf565b6040516105929190613ea1565b60405180910390f35b3480156105a757600080fd5b506105b0611351565b6040516105bd91906140b3565b60405180910390f35b3480156105d257600080fd5b506105ed60048036038101906105e8919061440c565b611358565b005b3480156105fb57600080fd5b506106166004803603810190610611919061444c565b61136e565b005b34801561062457600080fd5b5061063f600480360381019061063a9190613ef9565b6113d0565b60405161064c9190613ea1565b60405180910390f35b34801561066157600080fd5b5061067c600480360381019061067791906144cf565b6113e2565b005b34801561068a57600080fd5b50610693611448565b6040516106a091906140b3565b60405180910390f35b3480156106b557600080fd5b506106d060048036038101906106cb91906140ce565b61146c565b005b3480156106de57600080fd5b506106e7611495565b6040516106f491906143c5565b60405180910390f35b34801561070957600080fd5b50610724600480360381019061071f919061452b565b6114b3565b6040516107319190613ded565b60405180910390f35b34801561074657600080fd5b5061074f611547565b60405161075c91906140b3565b60405180910390f35b60006107708261156b565b9050919050565b6060606580546107869061459a565b80601f01602080910402602001604051908101604052809291908181526020018280546107b29061459a565b80156107ff5780601f106107d4576101008083540402835291602001916107ff565b820191906000526020600020905b8154815290600101906020018083116107e257829003601f168201915b5050505050905090565b6000610814826115e5565b610853576040517f08c379a000000000000000000000000000000000000000000000000000000000815260040161084a9061463e565b60405180910390fd5b6069600083815260200190815260200160002060009054906101000a900473ffffffffffffffffffffffffffffffffffffffff169050919050565b600061089982610edd565b90508073ffffffffffffffffffffffffffffffffffffffff168373ffffffffffffffffffffffffffffffffffffffff16141561090a576040517f08c379a0000000000000000000000000000000000000000000000000000000008152600401610901906146d0565b60405180910390fd5b8073ffffffffffffffffffffffffffffffffffffffff16610929611651565b73ffffffffffffffffffffffffffffffffffffffff161480610958575061095781610952611651565b6114b3565b5b610997576040517f08c379a000000000000000000000000000000000000000000000000000000000815260040161098e90614762565b60405180910390fd5b6109a18383611659565b505050565b6109b76109b1611651565b82611712565b6109f6576040517f08c379a00000000000000000000000000000000000000000000000000000000081526004016109ed906147f4565b60405180910390fd5b610a018383836117f0565b505050565b600060fb6000838152602001908152602001600020600101549050919050565b610a2f82610a06565b610a4081610a3b611651565b611a4c565b610a4a8383611ae9565b505050565b610a57611651565b73ffffffffffffffffffffffffffffffffffffffff168173ffffffffffffffffffffffffffffffffffffffff1614610ac4576040517f08c379a0000000000000000000000000000000000000000000000000000000008152600401610abb90614886565b60405180910390fd5b610ace8282611bca565b5050565b7f000000000000000000000000000000000000000000000000000000000000000073ffffffffffffffffffffffffffffffffffffffff163073ffffffffffffffffffffffffffffffffffffffff161415610b61576040517f08c379a0000000000000000000000000000000000000000000000000000000008152600401610b5890614918565b60405180910390fd5b7f000000000000000000000000000000000000000000000000000000000000000073ffffffffffffffffffffffffffffffffffffffff16610ba0611cac565b73ffffffffffffffffffffffffffffffffffffffff1614610bf6576040517f08c379a0000000000000000000000000000000000000000000000000000000008152600401610bed906149aa565b60405180910390fd5b610bff81611d03565b610c5881600067ffffffffffffffff811115610c1e57610c1d614145565b5b6040519080825280601f01601f191660200182016040528015610c505781602001600182028036833780820191505090505b506000611d39565b50565b7f9f2df0fed2c77648de5860a4cc508cd0818c85b8b8a1ab4ceeef8d981c8956a6610c8d81610c88611651565b611a4c565b6000610c9a610191611f0a565b9050610ca7610191611f18565b610cb18382611f2e565b505050565b610cd18383836040518060200160405280600081525061136e565b505050565b610ce7610ce1611651565b82611712565b610d26576040517f08c379a0000000000000000000000000000000000000000000000000000000008152600401610d1d90614a3c565b60405180910390fd5b610d2f81611f4c565b50565b7f000000000000000000000000000000000000000000000000000000000000000073ffffffffffffffffffffffffffffffffffffffff163073ffffffffffffffffffffffffffffffffffffffff161415610dc1576040517f08c379a0000000000000000000000000000000000000000000000000000000008152600401610db890614918565b60405180910390fd5b7f000000000000000000000000000000000000000000000000000000000000000073ffffffffffffffffffffffffffffffffffffffff16610e00611cac565b73ffffffffffffffffffffffffffffffffffffffff1614610e56576040517f08c379a0000000000000000000000000000000000000000000000000000000008152600401610e4d906149aa565b60405180910390fd5b610e5f82611d03565b610e6b82826001611d39565b5050565b60606040518060400160405280600281526020017f7631000000000000000000000000000000000000000000000000000000000000815250905090565b6000801b610ec181610ebc611651565b611a4c565b816101929080519060200190610ed8929190613c56565b505050565b6000806067600084815260200190815260200160002060009054906101000a900473ffffffffffffffffffffffffffffffffffffffff169050600073ffffffffffffffffffffffffffffffffffffffff168173ffffffffffffffffffffffffffffffffffffffff161415610f86576040517f08c379a0000000000000000000000000000000000000000000000000000000008152600401610f7d90614ace565b60405180910390fd5b80915050919050565b60008073ffffffffffffffffffffffffffffffffffffffff168273ffffffffffffffffffffffffffffffffffffffff161415611000576040517f08c379a0000000000000000000000000000000000000000000000000000000008152600401610ff790614b60565b60405180910390fd5b606860008373ffffffffffffffffffffffffffffffffffffffff1673ffffffffffffffffffffffffffffffffffffffff168152602001908152602001600020549050919050565b6060611051611f58565b905090565b600060019054906101000a900460ff168061107c575060008054906101000a900460ff16155b6110bb576040517f08c379a00000000000000000000000000000000000000000000000000000000081526004016110b290614bf2565b60405180910390fd5b60008060019054906101000a900460ff16159050801561110b576001600060016101000a81548160ff02191690831515021790555060016000806101000a81548160ff0219169083151502179055505b61117f6040518060400160405280601181526020017f417274616c6178696573204d61726b65740000000000000000000000000000008152506040518060400160405280600481526020017f4152545800000000000000000000000000000000000000000000000000000000815250611feb565b6111876120e0565b61118f6121d1565b6111976122c2565b61119f6123b3565b6111ac6000801b33611ae9565b6111d67f9f2df0fed2c77648de5860a4cc508cd0818c85b8b8a1ab4ceeef8d981c8956a633611ae9565b6112007f189ab7a9244df0848122154315af71fe140f3db0fe014031783b0946b8c9d2e333611ae9565b6040518060600160405280603c8152602001615825603c9139610192908051906020019061122f929190613c56565b5080156112515760008060016101000a81548160ff0219169083151502179055505b50565b600060fb600084815260200190815260200160002060000160008373ffffffffffffffffffffffffffffffffffffffff1673ffffffffffffffffffffffffffffffffffffffff16815260200190815260200160002060009054906101000a900460ff16905092915050565b6060606680546112ce9061459a565b80601f01602080910402602001604051908101604052809291908181526020018280546112fa9061459a565b80156113475780601f1061131c57610100808354040283529160200191611347565b820191906000526020600020905b81548152906001019060200180831161132a57829003601f168201915b5050505050905090565b6000801b81565b61136a611363611651565b838361249c565b5050565b61137f611379611651565b83611712565b6113be576040517f08c379a00000000000000000000000000000000000000000000000000000000081526004016113b5906147f4565b60405180910390fd5b6113ca84848484612609565b50505050565b60606113db82612665565b9050919050565b7f9f2df0fed2c77648de5860a4cc508cd0818c85b8b8a1ab4ceeef8d981c8956a66114148161140f611651565b611a4c565b6000611421610191611f0a565b905061142e610191611f18565b6114388482611f2e565b61144281846127b7565b50505050565b7f9f2df0fed2c77648de5860a4cc508cd0818c85b8b8a1ab4ceeef8d981c8956a681565b61147582610a06565b61148681611481611651565b611a4c565b6114908383611bca565b505050565b600060016114a4610191611f0a565b6114ae9190614c41565b905090565b6000606a60008473ffffffffffffffffffffffffffffffffffffffff1673ffffffffffffffffffffffffffffffffffffffff16815260200190815260200160002060008373ffffffffffffffffffffffffffffffffffffffff1673ffffffffffffffffffffffffffffffffffffffff16815260200190815260200160002060009054906101000a900460ff16905092915050565b7f189ab7a9244df0848122154315af71fe140f3db0fe014031783b0946b8c9d2e381565b60007f7965db0b000000000000000000000000000000000000000000000000000000007bffffffffffffffffffffffffffffffffffffffffffffffffffffffff1916827bffffffffffffffffffffffffffffffffffffffffffffffffffffffff191614806115de57506115dd8261282b565b5b9050919050565b60008073ffffffffffffffffffffffffffffffffffffffff166067600084815260200190815260200160002060009054906101000a900473ffffffffffffffffffffffffffffffffffffffff1673ffffffffffffffffffffffffffffffffffffffff1614159050919050565b600033905090565b816069600083815260200190815260200160002060006101000a81548173ffffffffffffffffffffffffffffffffffffffff021916908373ffffffffffffffffffffffffffffffffffffffff160217905550808273ffffffffffffffffffffffffffffffffffffffff166116cc83610edd565b73ffffffffffffffffffffffffffffffffffffffff167f8c5be1e5ebec7d5bd14f71427d1e84f3dd0314c0f7b2291e5b200ac8c7c3b92560405160405180910390a45050565b600061171d826115e5565b61175c576040517f08c379a000000000000000000000000000000000000000000000000000000000815260040161175390614d09565b60405180910390fd5b600061176783610edd565b90508073ffffffffffffffffffffffffffffffffffffffff168473ffffffffffffffffffffffffffffffffffffffff1614806117d657508373ffffffffffffffffffffffffffffffffffffffff166117be84610809565b73ffffffffffffffffffffffffffffffffffffffff16145b806117e757506117e681856114b3565b5b91505092915050565b8273ffffffffffffffffffffffffffffffffffffffff1661181082610edd565b73ffffffffffffffffffffffffffffffffffffffff1614611866576040517f08c379a000000000000000000000000000000000000000000000000000000000815260040161185d90614d9b565b60405180910390fd5b600073ffffffffffffffffffffffffffffffffffffffff168273ffffffffffffffffffffffffffffffffffffffff1614156118d6576040517f08c379a00000000000000000000000000000000000000000000000000000000081526004016118cd90614e2d565b60405180910390fd5b6118e183838361290d565b6118ec600082611659565b6001606860008573ffffffffffffffffffffffffffffffffffffffff1673ffffffffffffffffffffffffffffffffffffffff168152602001908152602001600020600082825461193c9190614e4d565b925050819055506001606860008473ffffffffffffffffffffffffffffffffffffffff1673ffffffffffffffffffffffffffffffffffffffff16815260200190815260200160002060008282546119939190614c41565b92505081905550816067600083815260200190815260200160002060006101000a81548173ffffffffffffffffffffffffffffffffffffffff021916908373ffffffffffffffffffffffffffffffffffffffff160217905550808273ffffffffffffffffffffffffffffffffffffffff168473ffffffffffffffffffffffffffffffffffffffff167fddf252ad1be2c89b69c2b068fc378daa952ba7f163c4a11628f55a4df523b3ef60405160405180910390a4505050565b611a568282611254565b611ae557611a7b8173ffffffffffffffffffffffffffffffffffffffff166014612912565b611a898360001c6020612912565b604051602001611a9a929190614f55565b6040516020818303038152906040526040517f08c379a0000000000000000000000000000000000000000000000000000000008152600401611adc9190613ea1565b60405180910390fd5b5050565b611af38282611254565b611bc657600160fb600084815260200190815260200160002060000160008373ffffffffffffffffffffffffffffffffffffffff1673ffffffffffffffffffffffffffffffffffffffff16815260200190815260200160002060006101000a81548160ff021916908315150217905550611b6b611651565b73ffffffffffffffffffffffffffffffffffffffff168173ffffffffffffffffffffffffffffffffffffffff16837f2f8788117e7eff1d82e926ec794901d17c78024a50270940304540a733656f0d60405160405180910390a45b5050565b611bd48282611254565b15611ca857600060fb600084815260200190815260200160002060000160008373ffffffffffffffffffffffffffffffffffffffff1673ffffffffffffffffffffffffffffffffffffffff16815260200190815260200160002060006101000a81548160ff021916908315150217905550611c4d611651565b73ffffffffffffffffffffffffffffffffffffffff168173ffffffffffffffffffffffffffffffffffffffff16837ff6391f5c32d9c69d2a47ea670b442974b53935d1edc7fd64eb21e047a839171b60405160405180910390a45b5050565b6000611cda7f360894a13ba1a3210667c828492db98dca3e2076cc3735a920a3ca505d382bbc60001b612b4e565b60000160009054906101000a900473ffffffffffffffffffffffffffffffffffffffff16905090565b7f189ab7a9244df0848122154315af71fe140f3db0fe014031783b0946b8c9d2e3611d3581611d30611651565b611a4c565b5050565b6000611d43611cac565b9050611d4e84612b58565b600083511180611d5b5750815b15611d6c57611d6a8484612c11565b505b6000611d9a7f4910fdfa16fed3260ed0e7147f7cc6da11a60208b5b9406d12a635614ffd914360001b612cf5565b90508060000160009054906101000a900460ff16611f035760018160000160006101000a81548160ff021916908315150217905550611e668583604051602401611de49190613f67565b6040516020818303038152906040527f3659cfe6000000000000000000000000000000000000000000000000000000007bffffffffffffffffffffffffffffffffffffffffffffffffffffffff19166020820180517bffffffffffffffffffffffffffffffffffffffffffffffffffffffff8381831617835250505050612c11565b5060008160000160006101000a81548160ff021916908315150217905550611e8c611cac565b73ffffffffffffffffffffffffffffffffffffffff168273ffffffffffffffffffffffffffffffffffffffff1614611ef9576040517f08c379a0000000000000000000000000000000000000000000000000000000008152600401611ef090615001565b60405180910390fd5b611f0285612cff565b5b5050505050565b600081600001549050919050565b6001816000016000828254019250508190555050565b611f48828260405180602001604052806000815250612d4e565b5050565b611f5581612da9565b50565b60606101928054611f689061459a565b80601f0160208091040260200160405190810160405280929190818152602001828054611f949061459a565b8015611fe15780601f10611fb657610100808354040283529160200191611fe1565b820191906000526020600020905b815481529060010190602001808311611fc457829003601f168201915b5050505050905090565b600060019054906101000a900460ff1680612011575060008054906101000a900460ff16155b612050576040517f08c379a000000000000000000000000000000000000000000000000000000000815260040161204790614bf2565b60405180910390fd5b60008060019054906101000a900460ff1615905080156120a0576001600060016101000a81548160ff02191690831515021790555060016000806101000a81548160ff0219169083151502179055505b6120a8612dfc565b6120b0612ed5565b6120ba8383612fae565b80156120db5760008060016101000a81548160ff0219169083151502179055505b505050565b600060019054906101000a900460ff1680612106575060008054906101000a900460ff16155b612145576040517f08c379a000000000000000000000000000000000000000000000000000000000815260040161213c90614bf2565b60405180910390fd5b60008060019054906101000a900460ff161590508015612195576001600060016101000a81548160ff02191690831515021790555060016000806101000a81548160ff0219169083151502179055505b61219d612dfc565b6121a5612ed5565b6121ad6130b7565b80156121ce5760008060016101000a81548160ff0219169083151502179055505b50565b600060019054906101000a900460ff16806121f7575060008054906101000a900460ff16155b612236576040517f08c379a000000000000000000000000000000000000000000000000000000000815260040161222d90614bf2565b60405180910390fd5b60008060019054906101000a900460ff161590508015612286576001600060016101000a81548160ff02191690831515021790555060016000806101000a81548160ff0219169083151502179055505b61228e612dfc565b612296612ed5565b61229e613190565b80156122bf5760008060016101000a81548160ff0219169083151502179055505b50565b600060019054906101000a900460ff16806122e8575060008054906101000a900460ff16155b612327576040517f08c379a000000000000000000000000000000000000000000000000000000000815260040161231e90614bf2565b60405180910390fd5b60008060019054906101000a900460ff161590508015612377576001600060016101000a81548160ff02191690831515021790555060016000806101000a81548160ff0219169083151502179055505b61237f612dfc565b612387612ed5565b61238f613269565b80156123b05760008060016101000a81548160ff0219169083151502179055505b50565b600060019054906101000a900460ff16806123d9575060008054906101000a900460ff16155b612418576040517f08c379a000000000000000000000000000000000000000000000000000000000815260040161240f90614bf2565b60405180910390fd5b60008060019054906101000a900460ff161590508015612468576001600060016101000a81548160ff02191690831515021790555060016000806101000a81548160ff0219169083151502179055505b612470613342565b61247861341b565b80156124995760008060016101000a81548160ff0219169083151502179055505b50565b8173ffffffffffffffffffffffffffffffffffffffff168373ffffffffffffffffffffffffffffffffffffffff16141561250b576040517f08c379a00000000000000000000000000000000000000000000000000000000081526004016125029061506d565b60405180910390fd5b80606a60008573ffffffffffffffffffffffffffffffffffffffff1673ffffffffffffffffffffffffffffffffffffffff16815260200190815260200160002060008473ffffffffffffffffffffffffffffffffffffffff1673ffffffffffffffffffffffffffffffffffffffff16815260200190815260200160002060006101000a81548160ff0219169083151502179055508173ffffffffffffffffffffffffffffffffffffffff168373ffffffffffffffffffffffffffffffffffffffff167f17307eab39ab6107e8899845ad3d59bd9653f200f220920489ca2b5937696c31836040516125fc9190613ded565b60405180910390a3505050565b6126148484846117f0565b612620848484846134f4565b61265f576040517f08c379a0000000000000000000000000000000000000000000000000000000008152600401612656906150ff565b60405180910390fd5b50505050565b6060612670826115e5565b6126af576040517f08c379a00000000000000000000000000000000000000000000000000000000081526004016126a690615191565b60405180910390fd5b60006097600084815260200190815260200160002080546126cf9061459a565b80601f01602080910402602001604051908101604052809291908181526020018280546126fb9061459a565b80156127485780601f1061271d57610100808354040283529160200191612748565b820191906000526020600020905b81548152906001019060200180831161272b57829003601f168201915b505050505090506000612759611f58565b905060008151141561276f5781925050506127b2565b6000825111156127a457808260405160200161278c9291906151b1565b604051602081830303815290604052925050506127b2565b6127ad8461368b565b925050505b919050565b6127c0826115e5565b6127ff576040517f08c379a00000000000000000000000000000000000000000000000000000000081526004016127f690615247565b60405180910390fd5b80609760008481526020019081526020016000209080519060200190612826929190613c56565b505050565b60007f80ac58cd000000000000000000000000000000000000000000000000000000007bffffffffffffffffffffffffffffffffffffffffffffffffffffffff1916827bffffffffffffffffffffffffffffffffffffffffffffffffffffffff191614806128f657507f5b5e139f000000000000000000000000000000000000000000000000000000007bffffffffffffffffffffffffffffffffffffffffffffffffffffffff1916827bffffffffffffffffffffffffffffffffffffffffffffffffffffffff1916145b80612906575061290582613732565b5b9050919050565b505050565b6060600060028360026129259190615267565b61292f9190614c41565b67ffffffffffffffff81111561294857612947614145565b5b6040519080825280601f01601f19166020018201604052801561297a5781602001600182028036833780820191505090505b5090507f3000000000000000000000000000000000000000000000000000000000000000816000815181106129b2576129b16152c1565b5b60200101907effffffffffffffffffffffffffffffffffffffffffffffffffffffffffffff1916908160001a9053507f780000000000000000000000000000000000000000000000000000000000000081600181518110612a1657612a156152c1565b5b60200101907effffffffffffffffffffffffffffffffffffffffffffffffffffffffffffff1916908160001a90535060006001846002612a569190615267565b612a609190614c41565b90505b6001811115612b00577f3031323334353637383961626364656600000000000000000000000000000000600f861660108110612aa257612aa16152c1565b5b1a60f81b828281518110612ab957612ab86152c1565b5b60200101907effffffffffffffffffffffffffffffffffffffffffffffffffffffffffffff1916908160001a905350600485901c945080612af9906152f0565b9050612a63565b5060008414612b44576040517f08c379a0000000000000000000000000000000000000000000000000000000008152600401612b3b90615366565b60405180910390fd5b8091505092915050565b6000819050919050565b612b618161379c565b612ba0576040517f08c379a0000000000000000000000000000000000000000000000000000000008152600401612b97906153f8565b60405180910390fd5b80612bcd7f360894a13ba1a3210667c828492db98dca3e2076cc3735a920a3ca505d382bbc60001b612b4e565b60000160006101000a81548173ffffffffffffffffffffffffffffffffffffffff021916908373ffffffffffffffffffffffffffffffffffffffff16021790555050565b6060612c1c8361379c565b612c5b576040517f08c379a0000000000000000000000000000000000000000000000000000000008152600401612c529061548a565b60405180910390fd5b6000808473ffffffffffffffffffffffffffffffffffffffff1684604051612c8391906154f1565b600060405180830381855af49150503d8060008114612cbe576040519150601f19603f3d011682016040523d82523d6000602084013e612cc3565b606091505b5091509150612ceb8282604051806060016040528060278152602001615861602791396137af565b9250505092915050565b6000819050919050565b612d0881612b58565b8073ffffffffffffffffffffffffffffffffffffffff167fbc7cd75a20ee27fd9adebab32041f755214dbc6bffa90cc0225b39da2e5c2d3b60405160405180910390a250565b612d588383613816565b612d6560008484846134f4565b612da4576040517f08c379a0000000000000000000000000000000000000000000000000000000008152600401612d9b906150ff565b60405180910390fd5b505050565b612db2816139e4565b6000609760008381526020019081526020016000208054612dd29061459a565b905014612df957609760008281526020019081526020016000206000612df89190613cdc565b5b50565b600060019054906101000a900460ff1680612e22575060008054906101000a900460ff16155b612e61576040517f08c379a0000000000000000000000000000000000000000000000000000000008152600401612e5890614bf2565b60405180910390fd5b60008060019054906101000a900460ff161590508015612eb1576001600060016101000a81548160ff02191690831515021790555060016000806101000a81548160ff0219169083151502179055505b8015612ed25760008060016101000a81548160ff0219169083151502179055505b50565b600060019054906101000a900460ff1680612efb575060008054906101000a900460ff16155b612f3a576040517f08c379a0000000000000000000000000000000000000000000000000000000008152600401612f3190614bf2565b60405180910390fd5b60008060019054906101000a900460ff161590508015612f8a576001600060016101000a81548160ff02191690831515021790555060016000806101000a81548160ff0219169083151502179055505b8015612fab5760008060016101000a81548160ff0219169083151502179055505b50565b600060019054906101000a900460ff1680612fd4575060008054906101000a900460ff16155b613013576040517f08c379a000000000000000000000000000000000000000000000000000000000815260040161300a90614bf2565b60405180910390fd5b60008060019054906101000a900460ff161590508015613063576001600060016101000a81548160ff02191690831515021790555060016000806101000a81548160ff0219169083151502179055505b8260659080519060200190613079929190613c56565b508160669080519060200190613090929190613c56565b5080156130b25760008060016101000a81548160ff0219169083151502179055505b505050565b600060019054906101000a900460ff16806130dd575060008054906101000a900460ff16155b61311c576040517f08c379a000000000000000000000000000000000000000000000000000000000815260040161311390614bf2565b60405180910390fd5b60008060019054906101000a900460ff16159050801561316c576001600060016101000a81548160ff02191690831515021790555060016000806101000a81548160ff0219169083151502179055505b801561318d5760008060016101000a81548160ff0219169083151502179055505b50565b600060019054906101000a900460ff16806131b6575060008054906101000a900460ff16155b6131f5576040517f08c379a00000000000000000000000000000000000000000000000000000000081526004016131ec90614bf2565b60405180910390fd5b60008060019054906101000a900460ff161590508015613245576001600060016101000a81548160ff02191690831515021790555060016000806101000a81548160ff0219169083151502179055505b80156132665760008060016101000a81548160ff0219169083151502179055505b50565b600060019054906101000a900460ff168061328f575060008054906101000a900460ff16155b6132ce576040517f08c379a00000000000000000000000000000000000000000000000000000000081526004016132c590614bf2565b60405180910390fd5b60008060019054906101000a900460ff16159050801561331e576001600060016101000a81548160ff02191690831515021790555060016000806101000a81548160ff0219169083151502179055505b801561333f5760008060016101000a81548160ff0219169083151502179055505b50565b600060019054906101000a900460ff1680613368575060008054906101000a900460ff16155b6133a7576040517f08c379a000000000000000000000000000000000000000000000000000000000815260040161339e90614bf2565b60405180910390fd5b60008060019054906101000a900460ff1615905080156133f7576001600060016101000a81548160ff02191690831515021790555060016000806101000a81548160ff0219169083151502179055505b80156134185760008060016101000a81548160ff0219169083151502179055505b50565b600060019054906101000a900460ff1680613441575060008054906101000a900460ff16155b613480576040517f08c379a000000000000000000000000000000000000000000000000000000000815260040161347790614bf2565b60405180910390fd5b60008060019054906101000a900460ff1615905080156134d0576001600060016101000a81548160ff02191690831515021790555060016000806101000a81548160ff0219169083151502179055505b80156134f15760008060016101000a81548160ff0219169083151502179055505b50565b60006135158473ffffffffffffffffffffffffffffffffffffffff1661379c565b1561367e578373ffffffffffffffffffffffffffffffffffffffff1663150b7a0261353e611651565b8786866040518563ffffffff1660e01b81526004016135609493929190615552565b602060405180830381600087803b15801561357a57600080fd5b505af19250505080156135ab57506040513d601f19601f820116820180604052508101906135a891906155b3565b60015b61362e573d80600081146135db576040519150601f19603f3d011682016040523d82523d6000602084013e6135e0565b606091505b50600081511415613626576040517f08c379a000000000000000000000000000000000000000000000000000000000815260040161361d906150ff565b60405180910390fd5b805181602001fd5b63150b7a0260e01b7bffffffffffffffffffffffffffffffffffffffffffffffffffffffff1916817bffffffffffffffffffffffffffffffffffffffffffffffffffffffff191614915050613683565b600190505b949350505050565b6060613696826115e5565b6136d5576040517f08c379a00000000000000000000000000000000000000000000000000000000081526004016136cc90615652565b60405180910390fd5b60006136df611f58565b905060008151116136ff576040518060200160405280600081525061372a565b8061370984613af5565b60405160200161371a9291906151b1565b6040516020818303038152906040525b915050919050565b60007f01ffc9a7000000000000000000000000000000000000000000000000000000007bffffffffffffffffffffffffffffffffffffffffffffffffffffffff1916827bffffffffffffffffffffffffffffffffffffffffffffffffffffffff1916149050919050565b600080823b905060008111915050919050565b606083156137bf5782905061380f565b6000835111156137d25782518084602001fd5b816040517f08c379a00000000000000000000000000000000000000000000000000000000081526004016138069190613ea1565b60405180910390fd5b9392505050565b600073ffffffffffffffffffffffffffffffffffffffff168273ffffffffffffffffffffffffffffffffffffffff161415613886576040517f08c379a000000000000000000000000000000000000000000000000000000000815260040161387d906156be565b60405180910390fd5b61388f816115e5565b156138cf576040517f08c379a00000000000000000000000000000000000000000000000000000000081526004016138c69061572a565b60405180910390fd5b6138db6000838361290d565b6001606860008473ffffffffffffffffffffffffffffffffffffffff1673ffffffffffffffffffffffffffffffffffffffff168152602001908152602001600020600082825461392b9190614c41565b92505081905550816067600083815260200190815260200160002060006101000a81548173ffffffffffffffffffffffffffffffffffffffff021916908373ffffffffffffffffffffffffffffffffffffffff160217905550808273ffffffffffffffffffffffffffffffffffffffff16600073ffffffffffffffffffffffffffffffffffffffff167fddf252ad1be2c89b69c2b068fc378daa952ba7f163c4a11628f55a4df523b3ef60405160405180910390a45050565b60006139ef82610edd565b90506139fd8160008461290d565b613a08600083611659565b6001606860008373ffffffffffffffffffffffffffffffffffffffff1673ffffffffffffffffffffffffffffffffffffffff1681526020019081526020016000206000828254613a589190614e4d565b925050819055506067600083815260200190815260200160002060006101000a81549073ffffffffffffffffffffffffffffffffffffffff021916905581600073ffffffffffffffffffffffffffffffffffffffff168273ffffffffffffffffffffffffffffffffffffffff167fddf252ad1be2c89b69c2b068fc378daa952ba7f163c4a11628f55a4df523b3ef60405160405180910390a45050565b60606000821415613b3d576040518060400160405280600181526020017f30000000000000000000000000000000000000000000000000000000000000008152509050613c51565b600082905060005b60008214613b6f578080613b589061574a565b915050600a82613b6891906157c2565b9150613b45565b60008167ffffffffffffffff811115613b8b57613b8a614145565b5b6040519080825280601f01601f191660200182016040528015613bbd5781602001600182028036833780820191505090505b5090505b60008514613c4a57600182613bd69190614e4d565b9150600a85613be591906157f3565b6030613bf19190614c41565b60f81b818381518110613c0757613c066152c1565b5b60200101907effffffffffffffffffffffffffffffffffffffffffffffffffffffffffffff1916908160001a905350600a85613c4391906157c2565b9450613bc1565b8093505050505b919050565b828054613c629061459a565b90600052602060002090601f016020900481019282613c845760008555613ccb565b82601f10613c9d57805160ff1916838001178555613ccb565b82800160010185558215613ccb579182015b82811115613cca578251825591602001919060010190613caf565b5b509050613cd89190613d1c565b5090565b508054613ce89061459a565b6000825580601f10613cfa5750613d19565b601f016020900490600052602060002090810190613d189190613d1c565b5b50565b5b80821115613d35576000816000905550600101613d1d565b5090565b6000604051905090565b600080fd5b600080fd5b60007fffffffff0000000000000000000000000000000000000000000000000000000082169050919050565b613d8281613d4d565b8114613d8d57600080fd5b50565b600081359050613d9f81613d79565b92915050565b600060208284031215613dbb57613dba613d43565b5b6000613dc984828501613d90565b91505092915050565b60008115159050919050565b613de781613dd2565b82525050565b6000602082019050613e026000830184613dde565b92915050565b600081519050919050565b600082825260208201905092915050565b60005b83811015613e42578082015181840152602081019050613e27565b83811115613e51576000848401525b50505050565b6000601f19601f8301169050919050565b6000613e7382613e08565b613e7d8185613e13565b9350613e8d818560208601613e24565b613e9681613e57565b840191505092915050565b60006020820190508181036000830152613ebb8184613e68565b905092915050565b6000819050919050565b613ed681613ec3565b8114613ee157600080fd5b50565b600081359050613ef381613ecd565b92915050565b600060208284031215613f0f57613f0e613d43565b5b6000613f1d84828501613ee4565b91505092915050565b600073ffffffffffffffffffffffffffffffffffffffff82169050919050565b6000613f5182613f26565b9050919050565b613f6181613f46565b82525050565b6000602082019050613f7c6000830184613f58565b92915050565b613f8b81613f46565b8114613f9657600080fd5b50565b600081359050613fa881613f82565b92915050565b60008060408385031215613fc557613fc4613d43565b5b6000613fd385828601613f99565b9250506020613fe485828601613ee4565b9150509250929050565b60008060006060848603121561400757614006613d43565b5b600061401586828701613f99565b935050602061402686828701613f99565b925050604061403786828701613ee4565b9150509250925092565b6000819050919050565b61405481614041565b811461405f57600080fd5b50565b6000813590506140718161404b565b92915050565b60006020828403121561408d5761408c613d43565b5b600061409b84828501614062565b91505092915050565b6140ad81614041565b82525050565b60006020820190506140c860008301846140a4565b92915050565b600080604083850312156140e5576140e4613d43565b5b60006140f385828601614062565b925050602061410485828601613f99565b9150509250929050565b60006020828403121561412457614123613d43565b5b600061413284828501613f99565b91505092915050565b600080fd5b600080fd5b7f4e487b7100000000000000000000000000000000000000000000000000000000600052604160045260246000fd5b61417d82613e57565b810181811067ffffffffffffffff8211171561419c5761419b614145565b5b80604052505050565b60006141af613d39565b90506141bb8282614174565b919050565b600067ffffffffffffffff8211156141db576141da614145565b5b6141e482613e57565b9050602081019050919050565b82818337600083830152505050565b600061421361420e846141c0565b6141a5565b90508281526020810184848401111561422f5761422e614140565b5b61423a8482856141f1565b509392505050565b600082601f8301126142575761425661413b565b5b8135614267848260208601614200565b91505092915050565b6000806040838503121561428757614286613d43565b5b600061429585828601613f99565b925050602083013567ffffffffffffffff8111156142b6576142b5613d48565b5b6142c285828601614242565b9150509250929050565b600067ffffffffffffffff8211156142e7576142e6614145565b5b6142f082613e57565b9050602081019050919050565b600061431061430b846142cc565b6141a5565b90508281526020810184848401111561432c5761432b614140565b5b6143378482856141f1565b509392505050565b600082601f8301126143545761435361413b565b5b81356143648482602086016142fd565b91505092915050565b60006020828403121561438357614382613d43565b5b600082013567ffffffffffffffff8111156143a1576143a0613d48565b5b6143ad8482850161433f565b91505092915050565b6143bf81613ec3565b82525050565b60006020820190506143da60008301846143b6565b92915050565b6143e981613dd2565b81146143f457600080fd5b50565b600081359050614406816143e0565b92915050565b6000806040838503121561442357614422613d43565b5b600061443185828601613f99565b9250506020614442858286016143f7565b9150509250929050565b6000806000806080858703121561446657614465613d43565b5b600061447487828801613f99565b945050602061448587828801613f99565b935050604061449687828801613ee4565b925050606085013567ffffffffffffffff8111156144b7576144b6613d48565b5b6144c387828801614242565b91505092959194509250565b600080604083850312156144e6576144e5613d43565b5b60006144f485828601613f99565b925050602083013567ffffffffffffffff81111561451557614514613d48565b5b6145218582860161433f565b9150509250929050565b6000806040838503121561454257614541613d43565b5b600061455085828601613f99565b925050602061456185828601613f99565b9150509250929050565b7f4e487b7100000000000000000000000000000000000000000000000000000000600052602260045260246000fd5b600060028204905060018216806145b257607f821691505b602082108114156145c6576145c561456b565b5b50919050565b7f4552433732313a20617070726f76656420717565727920666f72206e6f6e657860008201527f697374656e7420746f6b656e0000000000000000000000000000000000000000602082015250565b6000614628602c83613e13565b9150614633826145cc565b604082019050919050565b600060208201905081810360008301526146578161461b565b9050919050565b7f4552433732313a20617070726f76616c20746f2063757272656e74206f776e6560008201527f7200000000000000000000000000000000000000000000000000000000000000602082015250565b60006146ba602183613e13565b91506146c58261465e565b604082019050919050565b600060208201905081810360008301526146e9816146ad565b9050919050565b7f4552433732313a20617070726f76652063616c6c6572206973206e6f74206f7760008201527f6e6572206e6f7220617070726f76656420666f7220616c6c0000000000000000602082015250565b600061474c603883613e13565b9150614757826146f0565b604082019050919050565b6000602082019050818103600083015261477b8161473f565b9050919050565b7f4552433732313a207472616e736665722063616c6c6572206973206e6f74206f60008201527f776e6572206e6f7220617070726f766564000000000000000000000000000000602082015250565b60006147de603183613e13565b91506147e982614782565b604082019050919050565b6000602082019050818103600083015261480d816147d1565b9050919050565b7f416363657373436f6e74726f6c3a2063616e206f6e6c792072656e6f756e636560008201527f20726f6c657320666f722073656c660000000000000000000000000000000000602082015250565b6000614870602f83613e13565b915061487b82614814565b604082019050919050565b6000602082019050818103600083015261489f81614863565b9050919050565b7f46756e6374696f6e206d7573742062652063616c6c6564207468726f7567682060008201527f64656c656761746563616c6c0000000000000000000000000000000000000000602082015250565b6000614902602c83613e13565b915061490d826148a6565b604082019050919050565b60006020820190508181036000830152614931816148f5565b9050919050565b7f46756e6374696f6e206d7573742062652063616c6c6564207468726f7567682060008201527f6163746976652070726f78790000000000000000000000000000000000000000602082015250565b6000614994602c83613e13565b915061499f82614938565b604082019050919050565b600060208201905081810360008301526149c381614987565b9050919050565b7f4552433732314275726e61626c653a2063616c6c6572206973206e6f74206f7760008201527f6e6572206e6f7220617070726f76656400000000000000000000000000000000602082015250565b6000614a26603083613e13565b9150614a31826149ca565b604082019050919050565b60006020820190508181036000830152614a5581614a19565b9050919050565b7f4552433732313a206f776e657220717565727920666f72206e6f6e657869737460008201527f656e7420746f6b656e0000000000000000000000000000000000000000000000602082015250565b6000614ab8602983613e13565b9150614ac382614a5c565b604082019050919050565b60006020820190508181036000830152614ae781614aab565b9050919050565b7f4552433732313a2062616c616e636520717565727920666f7220746865207a6560008201527f726f206164647265737300000000000000000000000000000000000000000000602082015250565b6000614b4a602a83613e13565b9150614b5582614aee565b604082019050919050565b60006020820190508181036000830152614b7981614b3d565b9050919050565b7f496e697469616c697a61626c653a20636f6e747261637420697320616c72656160008201527f647920696e697469616c697a6564000000000000000000000000000000000000602082015250565b6000614bdc602e83613e13565b9150614be782614b80565b604082019050919050565b60006020820190508181036000830152614c0b81614bcf565b9050919050565b7f4e487b7100000000000000000000000000000000000000000000000000000000600052601160045260246000fd5b6000614c4c82613ec3565b9150614c5783613ec3565b9250827fffffffffffffffffffffffffffffffffffffffffffffffffffffffffffffffff03821115614c8c57614c8b614c12565b5b828201905092915050565b7f4552433732313a206f70657261746f7220717565727920666f72206e6f6e657860008201527f697374656e7420746f6b656e0000000000000000000000000000000000000000602082015250565b6000614cf3602c83613e13565b9150614cfe82614c97565b604082019050919050565b60006020820190508181036000830152614d2281614ce6565b9050919050565b7f4552433732313a207472616e73666572206f6620746f6b656e2074686174206960008201527f73206e6f74206f776e0000000000000000000000000000000000000000000000602082015250565b6000614d85602983613e13565b9150614d9082614d29565b604082019050919050565b60006020820190508181036000830152614db481614d78565b9050919050565b7f4552433732313a207472616e7366657220746f20746865207a65726f2061646460008201527f7265737300000000000000000000000000000000000000000000000000000000602082015250565b6000614e17602483613e13565b9150614e2282614dbb565b604082019050919050565b60006020820190508181036000830152614e4681614e0a565b9050919050565b6000614e5882613ec3565b9150614e6383613ec3565b925082821015614e7657614e75614c12565b5b828203905092915050565b600081905092915050565b7f416363657373436f6e74726f6c3a206163636f756e7420000000000000000000600082015250565b6000614ec2601783614e81565b9150614ecd82614e8c565b601782019050919050565b6000614ee382613e08565b614eed8185614e81565b9350614efd818560208601613e24565b80840191505092915050565b7f206973206d697373696e6720726f6c6520000000000000000000000000000000600082015250565b6000614f3f601183614e81565b9150614f4a82614f09565b601182019050919050565b6000614f6082614eb5565b9150614f6c8285614ed8565b9150614f7782614f32565b9150614f838284614ed8565b91508190509392505050565b7f45524331393637557067726164653a207570677261646520627265616b73206660008201527f7572746865722075706772616465730000000000000000000000000000000000602082015250565b6000614feb602f83613e13565b9150614ff682614f8f565b604082019050919050565b6000602082019050818103600083015261501a81614fde565b9050919050565b7f4552433732313a20617070726f766520746f2063616c6c657200000000000000600082015250565b6000615057601983613e13565b915061506282615021565b602082019050919050565b600060208201905081810360008301526150868161504a565b9050919050565b7f4552433732313a207472616e7366657220746f206e6f6e20455243373231526560008201527f63656976657220696d706c656d656e7465720000000000000000000000000000602082015250565b60006150e9603283613e13565b91506150f48261508d565b604082019050919050565b60006020820190508181036000830152615118816150dc565b9050919050565b7f45524337323155524953746f726167653a2055524920717565727920666f722060008201527f6e6f6e6578697374656e7420746f6b656e000000000000000000000000000000602082015250565b600061517b603183613e13565b91506151868261511f565b604082019050919050565b600060208201905081810360008301526151aa8161516e565b9050919050565b60006151bd8285614ed8565b91506151c98284614ed8565b91508190509392505050565b7f45524337323155524953746f726167653a2055524920736574206f66206e6f6e60008201527f6578697374656e7420746f6b656e000000000000000000000000000000000000602082015250565b6000615231602e83613e13565b915061523c826151d5565b604082019050919050565b6000602082019050818103600083015261526081615224565b9050919050565b600061527282613ec3565b915061527d83613ec3565b9250817fffffffffffffffffffffffffffffffffffffffffffffffffffffffffffffffff04831182151516156152b6576152b5614c12565b5b828202905092915050565b7f4e487b7100000000000000000000000000000000000000000000000000000000600052603260045260246000fd5b60006152fb82613ec3565b9150600082141561530f5761530e614c12565b5b600182039050919050565b7f537472696e67733a20686578206c656e67746820696e73756666696369656e74600082015250565b6000615350602083613e13565b915061535b8261531a565b602082019050919050565b6000602082019050818103600083015261537f81615343565b9050919050565b7f455243313936373a206e657720696d706c656d656e746174696f6e206973206e60008201527f6f74206120636f6e747261637400000000000000000000000000000000000000602082015250565b60006153e2602d83613e13565b91506153ed82615386565b604082019050919050565b60006020820190508181036000830152615411816153d5565b9050919050565b7f416464726573733a2064656c65676174652063616c6c20746f206e6f6e2d636f60008201527f6e74726163740000000000000000000000000000000000000000000000000000602082015250565b6000615474602683613e13565b915061547f82615418565b604082019050919050565b600060208201905081810360008301526154a381615467565b9050919050565b600081519050919050565b600081905092915050565b60006154cb826154aa565b6154d581856154b5565b93506154e5818560208601613e24565b80840191505092915050565b60006154fd82846154c0565b915081905092915050565b600082825260208201905092915050565b6000615524826154aa565b61552e8185615508565b935061553e818560208601613e24565b61554781613e57565b840191505092915050565b60006080820190506155676000830187613f58565b6155746020830186613f58565b61558160408301856143b6565b81810360608301526155938184615519565b905095945050505050565b6000815190506155ad81613d79565b92915050565b6000602082840312156155c9576155c8613d43565b5b60006155d78482850161559e565b91505092915050565b7f4552433732314d657461646174613a2055524920717565727920666f72206e6f60008201527f6e6578697374656e7420746f6b656e0000000000000000000000000000000000602082015250565b600061563c602f83613e13565b9150615647826155e0565b604082019050919050565b6000602082019050818103600083015261566b8161562f565b9050919050565b7f4552433732313a206d696e7420746f20746865207a65726f2061646472657373600082015250565b60006156a8602083613e13565b91506156b382615672565b602082019050919050565b600060208201905081810360008301526156d78161569b565b9050919050565b7f4552433732313a20746f6b656e20616c7265616479206d696e74656400000000600082015250565b6000615714601c83613e13565b915061571f826156de565b602082019050919050565b6000602082019050818103600083015261574381615707565b9050919050565b600061575582613ec3565b91507fffffffffffffffffffffffffffffffffffffffffffffffffffffffffffffffff82141561578857615787614c12565b5b600182019050919050565b7f4e487b7100000000000000000000000000000000000000000000000000000000600052601260045260246000fd5b60006157cd82613ec3565b91506157d883613ec3565b9250826157e8576157e7615793565b5b828204905092915050565b60006157fe82613ec3565b915061580983613ec3565b92508261581957615818615793565b5b82820690509291505056fe68747470733a2f2f61727469636c652e63756c6c656e2e6d6c2f626c6f636b636861696e2f617274616c61786965735f64656661756c742e6a736f6e416464726573733a206c6f772d6c6576656c2064656c65676174652063616c6c206661696c6564a2646970667358221220af02fd1b98cbe191d3b92e0f8941d409fd39b95fbb752475b2993cbbae0529aa64736f6c63430008090033",
  "immutableReferences": {
    "897": [
      {
        "length": 32,
        "start": 2772
      },
      {
        "length": 32,
        "start": 2915
      },
      {
        "length": 32,
        "start": 3380
      },
      {
        "length": 32,
        "start": 3523
      }
    ]
  },
  "source": "// SPDX-License-Identifier: MIT\r\npragma solidity ^0.8.9;\r\n\r\nimport \"@openzeppelin/contracts-upgradeable/token/ERC721/ERC721Upgradeable.sol\";\r\nimport \"@openzeppelin/contracts-upgradeable/token/ERC721/extensions/ERC721URIStorageUpgradeable.sol\";\r\nimport \"@openzeppelin/contracts-upgradeable/token/ERC721/extensions/ERC721BurnableUpgradeable.sol\";\r\nimport \"@openzeppelin/contracts-upgradeable/access/AccessControlUpgradeable.sol\";\r\nimport \"@openzeppelin/contracts-upgradeable/proxy/utils/Initializable.sol\";\r\nimport \"@openzeppelin/contracts-upgradeable/proxy/utils/UUPSUpgradeable.sol\";\r\nimport \"@openzeppelin/contracts-upgradeable/utils/CountersUpgradeable.sol\";\r\n\r\n/// @custom:security-contact security@artalaxies.com\r\ncontract ArtalaxiesMarket is Initializable, ERC721Upgradeable, ERC721URIStorageUpgradeable, ERC721BurnableUpgradeable, AccessControlUpgradeable, UUPSUpgradeable {\r\n    using CountersUpgradeable for CountersUpgradeable.Counter;\r\n\r\n    bytes32 public constant MINTER_ROLE = keccak256(\"MINTER_ROLE\");\r\n    CountersUpgradeable.Counter private _tokenIdCounter;\r\n    bytes32 public constant UPGRADER_ROLE = keccak256(\"UPGRADER_ROLE\");\r\n\r\n    // For baseURI\r\n    string private _URI;\r\n\r\n    /// @custom:oz-upgrades-unsafe-allow constructor\r\n    constructor() initializer {}\r\n\r\n\r\n    function initialize() initializer public {\r\n        __ERC721_init(\"Artalaxies Market\", \"ARTX\");\r\n        __ERC721URIStorage_init();\r\n        __ERC721Burnable_init();\r\n        __AccessControl_init();\r\n        __UUPSUpgradeable_init();\r\n\r\n        _grantRole(DEFAULT_ADMIN_ROLE, msg.sender);\r\n        _grantRole(MINTER_ROLE, msg.sender);\r\n        _grantRole(UPGRADER_ROLE, msg.sender);\r\n        _URI = \"https://article.cullen.ml/blockchain/artalaxies_default.json\";\r\n    }\r\n\r\n    // Mint a token.\r\n    function safeMint(address to, string memory uri) public onlyRole(MINTER_ROLE) {\r\n        uint256 tokenId = _tokenIdCounter.current();\r\n        _tokenIdCounter.increment();\r\n        _safeMint(to, tokenId);\r\n        _setTokenURI(tokenId, uri);\r\n    }\r\n\r\n    // Mint a token without tokenURI\r\n    function safeMint(address to) public onlyRole(MINTER_ROLE) {\r\n        uint256 tokenId = _tokenIdCounter.current();\r\n        _tokenIdCounter.increment();\r\n        _safeMint(to, tokenId);\r\n    }\r\n\r\n\r\n    // Setting Base URI for BaseURI\r\n    function setBaseURI(string memory uri_) public onlyRole(DEFAULT_ADMIN_ROLE) {\r\n        _URI = uri_;\r\n    }\r\n\r\n    // get Default Base URI\r\n    function getBaseURI() public view returns (string memory){\r\n        return _baseURI();\r\n     }\r\n\r\n    // Total amount of tokens.\r\n    function getTotalMint() public view returns (uint256){\r\n        return _tokenIdCounter.current() + 1;\r\n    }\r\n\r\n    // Version of the Smart Contract.\r\n    function version() pure public returns (string memory){\r\n        return \"v1\";\r\n    }\r\n\r\n    function _authorizeUpgrade(address newImplementation)\r\n        internal\r\n        onlyRole(UPGRADER_ROLE)\r\n        override\r\n    {}\r\n\r\n    function _baseURI() internal view virtual override returns (string memory) {\r\n        return _URI;\r\n    }\r\n    \r\n    // The following functions are overrides required by Solidity.\r\n\r\n    function _burn(uint256 tokenId)\r\n        internal\r\n        override(ERC721Upgradeable, ERC721URIStorageUpgradeable)\r\n    {\r\n        super._burn(tokenId);\r\n    }\r\n\r\n    // Get a URI form a token\r\n    function tokenURI(uint256 tokenId)\r\n        public\r\n        view\r\n        override(ERC721Upgradeable, ERC721URIStorageUpgradeable)\r\n        returns (string memory)\r\n    {\r\n        return super.tokenURI(tokenId);\r\n    }\r\n\r\n    function supportsInterface(bytes4 interfaceId)\r\n        public\r\n        view\r\n        override(ERC721Upgradeable, AccessControlUpgradeable)\r\n        returns (bool)\r\n    {\r\n        return super.supportsInterface(interfaceId);\r\n    }\r\n\r\n\r\n}",
  "sourcePath": "E:\\Currentworkspace\\work\\Artalaxies_contract\\contracts\\testnet\\ArtalaxiesMarket.sol",
  "compiler": {
    "name": "solc",
    "version": "0.8.9+commit.e5eed63a.Emscripten.clang"
  },
  "schemaVersion": "3.4.3",
  "updatedAt": "2021-12-12T07:42:21.521Z",
  "devdoc": {
    "custom:security-contact": "security@artalaxies.com",
    "kind": "dev",
    "methods": {
      "approve(address,uint256)": {
        "details": "See {IERC721-approve}."
      },
      "balanceOf(address)": {
        "details": "See {IERC721-balanceOf}."
      },
      "burn(uint256)": {
        "details": "Burns `tokenId`. See {ERC721-_burn}. Requirements: - The caller must own `tokenId` or be an approved operator."
      },
      "constructor": {
        "custom:oz-upgrades-unsafe-allow": "constructor"
      },
      "getApproved(uint256)": {
        "details": "See {IERC721-getApproved}."
      },
      "getRoleAdmin(bytes32)": {
        "details": "Returns the admin role that controls `role`. See {grantRole} and {revokeRole}. To change a role's admin, use {_setRoleAdmin}."
      },
      "grantRole(bytes32,address)": {
        "details": "Grants `role` to `account`. If `account` had not been already granted `role`, emits a {RoleGranted} event. Requirements: - the caller must have ``role``'s admin role."
      },
      "hasRole(bytes32,address)": {
        "details": "Returns `true` if `account` has been granted `role`."
      },
      "isApprovedForAll(address,address)": {
        "details": "See {IERC721-isApprovedForAll}."
      },
      "name()": {
        "details": "See {IERC721Metadata-name}."
      },
      "ownerOf(uint256)": {
        "details": "See {IERC721-ownerOf}."
      },
      "renounceRole(bytes32,address)": {
        "details": "Revokes `role` from the calling account. Roles are often managed via {grantRole} and {revokeRole}: this function's purpose is to provide a mechanism for accounts to lose their privileges if they are compromised (such as when a trusted device is misplaced). If the calling account had been revoked `role`, emits a {RoleRevoked} event. Requirements: - the caller must be `account`."
      },
      "revokeRole(bytes32,address)": {
        "details": "Revokes `role` from `account`. If `account` had been granted `role`, emits a {RoleRevoked} event. Requirements: - the caller must have ``role``'s admin role."
      },
      "safeTransferFrom(address,address,uint256)": {
        "details": "See {IERC721-safeTransferFrom}."
      },
      "safeTransferFrom(address,address,uint256,bytes)": {
        "details": "See {IERC721-safeTransferFrom}."
      },
      "setApprovalForAll(address,bool)": {
        "details": "See {IERC721-setApprovalForAll}."
      },
      "symbol()": {
        "details": "See {IERC721Metadata-symbol}."
      },
      "transferFrom(address,address,uint256)": {
        "details": "See {IERC721-transferFrom}."
      },
      "upgradeTo(address)": {
        "details": "Upgrade the implementation of the proxy to `newImplementation`. Calls {_authorizeUpgrade}. Emits an {Upgraded} event."
      },
      "upgradeToAndCall(address,bytes)": {
        "details": "Upgrade the implementation of the proxy to `newImplementation`, and subsequently execute the function call encoded in `data`. Calls {_authorizeUpgrade}. Emits an {Upgraded} event."
      }
    },
    "version": 1
  },
  "userdoc": {
    "kind": "user",
    "methods": {},
    "version": 1
  }
}